{
  "_format": "hh-sol-artifact-1",
  "contractName": "RealEstateNFT",
  "sourceName": "contracts/RealEstateNFT.sol",
  "abi": [
    {
      "inputs": [],
      "stateMutability": "nonpayable",
      "type": "constructor"
    },
    {
      "anonymous": false,
      "inputs": [
        {
          "indexed": true,
          "internalType": "address",
          "name": "owner",
          "type": "address"
        },
        {
          "indexed": true,
          "internalType": "address",
          "name": "approved",
          "type": "address"
        },
        {
          "indexed": true,
          "internalType": "uint256",
          "name": "tokenId",
          "type": "uint256"
        }
      ],
      "name": "Approval",
      "type": "event"
    },
    {
      "anonymous": false,
      "inputs": [
        {
          "indexed": true,
          "internalType": "address",
          "name": "owner",
          "type": "address"
        },
        {
          "indexed": true,
          "internalType": "address",
          "name": "operator",
          "type": "address"
        },
        {
          "indexed": false,
          "internalType": "bool",
          "name": "approved",
          "type": "bool"
        }
      ],
      "name": "ApprovalForAll",
      "type": "event"
    },
    {
      "anonymous": false,
      "inputs": [
        {
          "indexed": false,
          "internalType": "uint256",
          "name": "tokenId",
          "type": "uint256"
        },
        {
          "indexed": false,
          "internalType": "string",
          "name": "tokenURI",
          "type": "string"
        },
        {
          "indexed": false,
          "internalType": "address",
          "name": "owner",
          "type": "address"
        }
      ],
      "name": "NFTTokenCreated",
      "type": "event"
    },
    {
      "anonymous": false,
      "inputs": [
        {
          "indexed": true,
          "internalType": "address",
          "name": "previousOwner",
          "type": "address"
        },
        {
          "indexed": true,
          "internalType": "address",
          "name": "newOwner",
          "type": "address"
        }
      ],
      "name": "OwnershipTransferred",
      "type": "event"
    },
    {
      "anonymous": false,
      "inputs": [
        {
          "indexed": false,
          "internalType": "address",
          "name": "account",
          "type": "address"
        }
      ],
      "name": "Paused",
      "type": "event"
    },
    {
      "anonymous": false,
      "inputs": [
        {
          "indexed": true,
          "internalType": "address",
          "name": "from",
          "type": "address"
        },
        {
          "indexed": true,
          "internalType": "address",
          "name": "to",
          "type": "address"
        },
        {
          "indexed": true,
          "internalType": "uint256",
          "name": "tokenId",
          "type": "uint256"
        }
      ],
      "name": "Transfer",
      "type": "event"
    },
    {
      "anonymous": false,
      "inputs": [
        {
          "indexed": false,
          "internalType": "address",
          "name": "account",
          "type": "address"
        }
      ],
      "name": "Unpaused",
      "type": "event"
    },
    {
      "inputs": [
        {
          "internalType": "string",
          "name": "",
          "type": "string"
        }
      ],
      "name": "NFT",
      "outputs": [
        {
          "internalType": "uint256",
          "name": "",
          "type": "uint256"
        }
      ],
      "stateMutability": "view",
      "type": "function"
    },
    {
      "inputs": [],
      "name": "_tokenIdCounter",
      "outputs": [
        {
          "internalType": "uint256",
          "name": "_value",
          "type": "uint256"
        }
      ],
      "stateMutability": "view",
      "type": "function"
    },
    {
      "inputs": [
        {
          "internalType": "address",
          "name": "to",
          "type": "address"
        },
        {
          "internalType": "uint256",
          "name": "tokenId",
          "type": "uint256"
        }
      ],
      "name": "approve",
      "outputs": [],
      "stateMutability": "nonpayable",
      "type": "function"
    },
    {
      "inputs": [
        {
          "internalType": "address",
          "name": "owner",
          "type": "address"
        }
      ],
      "name": "balanceOf",
      "outputs": [
        {
          "internalType": "uint256",
          "name": "",
          "type": "uint256"
        }
      ],
      "stateMutability": "view",
      "type": "function"
    },
    {
      "inputs": [
        {
          "internalType": "uint256",
          "name": "tokenId",
          "type": "uint256"
        }
      ],
      "name": "burn",
      "outputs": [],
      "stateMutability": "nonpayable",
      "type": "function"
    },
    {
      "inputs": [
        {
          "internalType": "uint256",
          "name": "tokenId",
          "type": "uint256"
        }
      ],
      "name": "getApproved",
      "outputs": [
        {
          "internalType": "address",
          "name": "",
          "type": "address"
        }
      ],
      "stateMutability": "view",
      "type": "function"
    },
    {
      "inputs": [
        {
          "internalType": "address",
          "name": "owner",
          "type": "address"
        },
        {
          "internalType": "address",
          "name": "operator",
          "type": "address"
        }
      ],
      "name": "isApprovedForAll",
      "outputs": [
        {
          "internalType": "bool",
          "name": "",
          "type": "bool"
        }
      ],
      "stateMutability": "view",
      "type": "function"
    },
    {
      "inputs": [
        {
          "internalType": "address",
          "name": "_to",
          "type": "address"
        },
        {
          "internalType": "string",
          "name": "tokenURI_",
          "type": "string"
        }
      ],
      "name": "mint",
      "outputs": [],
      "stateMutability": "nonpayable",
      "type": "function"
    },
    {
      "inputs": [],
      "name": "name",
      "outputs": [
        {
          "internalType": "string",
          "name": "",
          "type": "string"
        }
      ],
      "stateMutability": "view",
      "type": "function"
    },
    {
      "inputs": [],
      "name": "owner",
      "outputs": [
        {
          "internalType": "address",
          "name": "",
          "type": "address"
        }
      ],
      "stateMutability": "view",
      "type": "function"
    },
    {
      "inputs": [
        {
          "internalType": "uint256",
          "name": "tokenId",
          "type": "uint256"
        }
      ],
      "name": "ownerOf",
      "outputs": [
        {
          "internalType": "address",
          "name": "",
          "type": "address"
        }
      ],
      "stateMutability": "view",
      "type": "function"
    },
    {
      "inputs": [],
      "name": "pause",
      "outputs": [],
      "stateMutability": "nonpayable",
      "type": "function"
    },
    {
      "inputs": [],
      "name": "paused",
      "outputs": [
        {
          "internalType": "bool",
          "name": "",
          "type": "bool"
        }
      ],
      "stateMutability": "view",
      "type": "function"
    },
    {
      "inputs": [],
      "name": "renounceOwnership",
      "outputs": [],
      "stateMutability": "nonpayable",
      "type": "function"
    },
    {
      "inputs": [
        {
          "internalType": "address",
          "name": "to",
          "type": "address"
        }
      ],
      "name": "safeMint",
      "outputs": [],
      "stateMutability": "nonpayable",
      "type": "function"
    },
    {
      "inputs": [
        {
          "internalType": "address",
          "name": "from",
          "type": "address"
        },
        {
          "internalType": "address",
          "name": "to",
          "type": "address"
        },
        {
          "internalType": "uint256",
          "name": "tokenId",
          "type": "uint256"
        }
      ],
      "name": "safeTransferFrom",
      "outputs": [],
      "stateMutability": "nonpayable",
      "type": "function"
    },
    {
      "inputs": [
        {
          "internalType": "address",
          "name": "from",
          "type": "address"
        },
        {
          "internalType": "address",
          "name": "to",
          "type": "address"
        },
        {
          "internalType": "uint256",
          "name": "tokenId",
          "type": "uint256"
        },
        {
          "internalType": "bytes",
          "name": "data",
          "type": "bytes"
        }
      ],
      "name": "safeTransferFrom",
      "outputs": [],
      "stateMutability": "nonpayable",
      "type": "function"
    },
    {
      "inputs": [
        {
          "internalType": "address",
          "name": "operator",
          "type": "address"
        },
        {
          "internalType": "bool",
          "name": "approved",
          "type": "bool"
        }
      ],
      "name": "setApprovalForAll",
      "outputs": [],
      "stateMutability": "nonpayable",
      "type": "function"
    },
    {
      "inputs": [
        {
          "internalType": "bytes4",
          "name": "interfaceId",
          "type": "bytes4"
        }
      ],
      "name": "supportsInterface",
      "outputs": [
        {
          "internalType": "bool",
          "name": "",
          "type": "bool"
        }
      ],
      "stateMutability": "view",
      "type": "function"
    },
    {
      "inputs": [],
      "name": "symbol",
      "outputs": [
        {
          "internalType": "string",
          "name": "",
          "type": "string"
        }
      ],
      "stateMutability": "view",
      "type": "function"
    },
    {
      "inputs": [
        {
          "internalType": "uint256",
          "name": "index",
          "type": "uint256"
        }
      ],
      "name": "tokenByIndex",
      "outputs": [
        {
          "internalType": "uint256",
          "name": "",
          "type": "uint256"
        }
      ],
      "stateMutability": "view",
      "type": "function"
    },
    {
      "inputs": [
        {
          "internalType": "address",
          "name": "owner",
          "type": "address"
        },
        {
          "internalType": "uint256",
          "name": "index",
          "type": "uint256"
        }
      ],
      "name": "tokenOfOwnerByIndex",
      "outputs": [
        {
          "internalType": "uint256",
          "name": "",
          "type": "uint256"
        }
      ],
      "stateMutability": "view",
      "type": "function"
    },
    {
      "inputs": [
        {
          "internalType": "uint256",
          "name": "tokenId",
          "type": "uint256"
        }
      ],
      "name": "tokenURI",
      "outputs": [
        {
          "internalType": "string",
          "name": "",
          "type": "string"
        }
      ],
      "stateMutability": "view",
      "type": "function"
    },
    {
      "inputs": [],
      "name": "totalSupply",
      "outputs": [
        {
          "internalType": "uint256",
          "name": "",
          "type": "uint256"
        }
      ],
      "stateMutability": "view",
      "type": "function"
    },
    {
      "inputs": [
        {
          "internalType": "address",
          "name": "from",
          "type": "address"
        },
        {
          "internalType": "address",
          "name": "to",
          "type": "address"
        },
        {
          "internalType": "uint256",
          "name": "tokenId",
          "type": "uint256"
        }
      ],
      "name": "transferFrom",
      "outputs": [],
      "stateMutability": "nonpayable",
      "type": "function"
    },
    {
      "inputs": [
        {
          "internalType": "address",
          "name": "newOwner",
          "type": "address"
        }
      ],
      "name": "transferOwnership",
      "outputs": [],
      "stateMutability": "nonpayable",
      "type": "function"
    },
    {
      "inputs": [],
      "name": "unpause",
      "outputs": [],
      "stateMutability": "nonpayable",
      "type": "function"
    }
  ],
  "bytecode": "0x60806040523480156200001157600080fd5b506040518060400160405280600d81526020017f5265616c4573746174654e4654000000000000000000000000000000000000008152506040518060400160405280600481526020017f524e465400000000000000000000000000000000000000000000000000000000815250816000908051906020019062000096929190620001c1565b508060019080519060200190620000af929190620001c1565b5050506000600b60006101000a81548160ff021916908315150217905550620000ed620000e1620000f360201b60201c565b620000fb60201b60201c565b620002d6565b600033905090565b6000600b60019054906101000a900473ffffffffffffffffffffffffffffffffffffffff16905081600b60016101000a81548173ffffffffffffffffffffffffffffffffffffffff021916908373ffffffffffffffffffffffffffffffffffffffff1602179055508173ffffffffffffffffffffffffffffffffffffffff168173ffffffffffffffffffffffffffffffffffffffff167f8be0079c531659141344cd1fd0a4f28419497f9722a3daafe3b4186f6b6457e060405160405180910390a35050565b828054620001cf9062000271565b90600052602060002090601f016020900481019282620001f357600085556200023f565b82601f106200020e57805160ff19168380011785556200023f565b828001600101855582156200023f579182015b828111156200023e57825182559160200191906001019062000221565b5b5090506200024e919062000252565b5090565b5b808211156200026d57600081600090555060010162000253565b5090565b600060028204905060018216806200028a57607f821691505b60208210811415620002a157620002a0620002a7565b5b50919050565b7f4e487b7100000000000000000000000000000000000000000000000000000000600052602260045260246000fd5b613b8880620002e66000396000f3fe608060405234801561001057600080fd5b50600436106101a95760003560e01c80636352211e116100f957806395d89b4111610097578063c87b56dd11610071578063c87b56dd14610494578063d0def521146104c4578063e985e9c5146104e0578063f2fde38b14610510576101a9565b806395d89b411461043e578063a22cb4651461045c578063b88d4fde14610478576101a9565b806373c997f1116100d357806373c997f1146103c85780638456cb59146103f857806384c4bd4b146104025780638da5cb5b14610420576101a9565b80636352211e1461035e57806370a082311461038e578063715018a6146103be576101a9565b80632f745c591161016657806342842e0e1161014057806342842e0e146102d857806342966c68146102f45780634f6ccce7146103105780635c975abb14610340576101a9565b80632f745c59146102825780633f4ba83a146102b257806340d097c3146102bc576101a9565b806301ffc9a7146101ae57806306fdde03146101de578063081812fc146101fc578063095ea7b31461022c57806318160ddd1461024857806323b872dd14610266575b600080fd5b6101c860048036038101906101c39190612a8d565b61052c565b6040516101d59190612f45565b60405180910390f35b6101e661053e565b6040516101f39190612f60565b60405180910390f35b61021660048036038101906102119190612b30565b6105d0565b6040516102239190612ede565b60405180910390f35b61024660048036038101906102419190612a4d565b610616565b005b61025061072e565b60405161025d91906131c2565b60405180910390f35b610280600480360381019061027b91906128db565b61073b565b005b61029c60048036038101906102979190612a4d565b61079b565b6040516102a991906131c2565b60405180910390f35b6102ba610840565b005b6102d660048036038101906102d1919061286e565b610852565b005b6102f260048036038101906102ed91906128db565b61087a565b005b61030e60048036038101906103099190612b30565b61089a565b005b61032a60048036038101906103259190612b30565b6108f6565b60405161033791906131c2565b60405180910390f35b610348610967565b6040516103559190612f45565b60405180910390f35b61037860048036038101906103739190612b30565b61097e565b6040516103859190612ede565b60405180910390f35b6103a860048036038101906103a3919061286e565b610a30565b6040516103b591906131c2565b60405180910390f35b6103c6610ae8565b005b6103e260048036038101906103dd9190612ae7565b610afc565b6040516103ef91906131c2565b60405180910390f35b610400610b2a565b005b61040a610b3c565b60405161041791906131c2565b60405180910390f35b610428610b48565b6040516104359190612ede565b60405180910390f35b610446610b72565b6040516104539190612f60565b60405180910390f35b610476600480360381019061047191906129b1565b610c04565b005b610492600480360381019061048d919061292e565b610c1a565b005b6104ae60048036038101906104a99190612b30565b610c7c565b6040516104bb9190612f60565b60405180910390f35b6104de60048036038101906104d991906129f1565b610c8e565b005b6104fa60048036038101906104f5919061289b565b610d3a565b6040516105079190612f45565b60405180910390f35b61052a6004803603810190610525919061286e565b610dce565b005b600061053782610e52565b9050919050565b60606000805461054d90613456565b80601f016020809104026020016040519081016040528092919081815260200182805461057990613456565b80156105c65780601f1061059b576101008083540402835291602001916105c6565b820191906000526020600020905b8154815290600101906020018083116105a957829003601f168201915b5050505050905090565b60006105db82610ecc565b6004600083815260200190815260200160002060009054906101000a900473ffffffffffffffffffffffffffffffffffffffff169050919050565b60006106218261097e565b90508073ffffffffffffffffffffffffffffffffffffffff168373ffffffffffffffffffffffffffffffffffffffff161415610692576040517f08c379a000000000000000000000000000000000000000000000000000000000815260040161068990613162565b60405180910390fd5b8073ffffffffffffffffffffffffffffffffffffffff166106b1610f17565b73ffffffffffffffffffffffffffffffffffffffff1614806106e057506106df816106da610f17565b610d3a565b5b61071f576040517f08c379a0000000000000000000000000000000000000000000000000000000008152600401610716906130e2565b60405180910390fd5b6107298383610f1f565b505050565b6000600880549050905090565b61074c610746610f17565b82610fd8565b61078b576040517f08c379a0000000000000000000000000000000000000000000000000000000008152600401610782906131a2565b60405180910390fd5b61079683838361106d565b505050565b60006107a683610a30565b82106107e7576040517f08c379a00000000000000000000000000000000000000000000000000000000081526004016107de90612fa2565b60405180910390fd5b600660008473ffffffffffffffffffffffffffffffffffffffff1673ffffffffffffffffffffffffffffffffffffffff168152602001908152602001600020600083815260200190815260200160002054905092915050565b6108486112d4565b610850611352565b565b61085a6112d4565b61086d81610868600c6113b5565b6113c3565b610877600c6113e1565b50565b61089583838360405180602001604052806000815250610c1a565b505050565b6108ab6108a5610f17565b82610fd8565b6108ea576040517f08c379a00000000000000000000000000000000000000000000000000000000081526004016108e1906131a2565b60405180910390fd5b6108f3816113f7565b50565b600061090061072e565b8210610941576040517f08c379a000000000000000000000000000000000000000000000000000000000815260040161093890613182565b60405180910390fd5b60088281548110610955576109546135ef565b5b90600052602060002001549050919050565b6000600b60009054906101000a900460ff16905090565b6000806002600084815260200190815260200160002060009054906101000a900473ffffffffffffffffffffffffffffffffffffffff169050600073ffffffffffffffffffffffffffffffffffffffff168173ffffffffffffffffffffffffffffffffffffffff161415610a27576040517f08c379a0000000000000000000000000000000000000000000000000000000008152600401610a1e90613142565b60405180910390fd5b80915050919050565b60008073ffffffffffffffffffffffffffffffffffffffff168273ffffffffffffffffffffffffffffffffffffffff161415610aa1576040517f08c379a0000000000000000000000000000000000000000000000000000000008152600401610a98906130a2565b60405180910390fd5b600360008373ffffffffffffffffffffffffffffffffffffffff1673ffffffffffffffffffffffffffffffffffffffff168152602001908152602001600020549050919050565b610af06112d4565b610afa6000611403565b565b600d818051602081018201805184825260208301602085012081835280955050505050506000915090505481565b610b326112d4565b610b3a6114c9565b565b600c8060000154905081565b6000600b60019054906101000a900473ffffffffffffffffffffffffffffffffffffffff16905090565b606060018054610b8190613456565b80601f0160208091040260200160405190810160405280929190818152602001828054610bad90613456565b8015610bfa5780601f10610bcf57610100808354040283529160200191610bfa565b820191906000526020600020905b815481529060010190602001808311610bdd57829003601f168201915b5050505050905090565b610c16610c0f610f17565b838361152c565b5050565b610c2b610c25610f17565b83610fd8565b610c6a576040517f08c379a0000000000000000000000000000000000000000000000000000000008152600401610c61906131a2565b60405180910390fd5b610c7684848484611699565b50505050565b6060610c87826116f5565b9050919050565b610c966112d4565b610ca982610ca4600c6113b5565b6113c3565b610cbc610cb6600c6113b5565b82611808565b610cc6600c6113b5565b600d82604051610cd69190612ea3565b908152602001604051809103902081905550610cf2600c6113e1565b7f71af4bb654f00a712902a3131faaeec41925871b4d96f817ec562d5898577d4b610d1d600c6113b5565b8284604051610d2e939291906131dd565b60405180910390a15050565b6000600560008473ffffffffffffffffffffffffffffffffffffffff1673ffffffffffffffffffffffffffffffffffffffff16815260200190815260200160002060008373ffffffffffffffffffffffffffffffffffffffff1673ffffffffffffffffffffffffffffffffffffffff16815260200190815260200160002060009054906101000a900460ff16905092915050565b610dd66112d4565b600073ffffffffffffffffffffffffffffffffffffffff168173ffffffffffffffffffffffffffffffffffffffff161415610e46576040517f08c379a0000000000000000000000000000000000000000000000000000000008152600401610e3d90612fe2565b60405180910390fd5b610e4f81611403565b50565b60007f780e9d63000000000000000000000000000000000000000000000000000000007bffffffffffffffffffffffffffffffffffffffffffffffffffffffff1916827bffffffffffffffffffffffffffffffffffffffffffffffffffffffff19161480610ec55750610ec48261187c565b5b9050919050565b610ed58161195e565b610f14576040517f08c379a0000000000000000000000000000000000000000000000000000000008152600401610f0b90613142565b60405180910390fd5b50565b600033905090565b816004600083815260200190815260200160002060006101000a81548173ffffffffffffffffffffffffffffffffffffffff021916908373ffffffffffffffffffffffffffffffffffffffff160217905550808273ffffffffffffffffffffffffffffffffffffffff16610f928361097e565b73ffffffffffffffffffffffffffffffffffffffff167f8c5be1e5ebec7d5bd14f71427d1e84f3dd0314c0f7b2291e5b200ac8c7c3b92560405160405180910390a45050565b600080610fe48361097e565b90508073ffffffffffffffffffffffffffffffffffffffff168473ffffffffffffffffffffffffffffffffffffffff16148061102657506110258185610d3a565b5b8061106457508373ffffffffffffffffffffffffffffffffffffffff1661104c846105d0565b73ffffffffffffffffffffffffffffffffffffffff16145b91505092915050565b8273ffffffffffffffffffffffffffffffffffffffff1661108d8261097e565b73ffffffffffffffffffffffffffffffffffffffff16146110e3576040517f08c379a00000000000000000000000000000000000000000000000000000000081526004016110da90613002565b60405180910390fd5b600073ffffffffffffffffffffffffffffffffffffffff168273ffffffffffffffffffffffffffffffffffffffff161415611153576040517f08c379a000000000000000000000000000000000000000000000000000000000815260040161114a90613042565b60405180910390fd5b61115e8383836119ca565b611169600082610f1f565b6001600360008573ffffffffffffffffffffffffffffffffffffffff1673ffffffffffffffffffffffffffffffffffffffff16815260200190815260200160002060008282546111b9919061336c565b925050819055506001600360008473ffffffffffffffffffffffffffffffffffffffff1673ffffffffffffffffffffffffffffffffffffffff168152602001908152602001600020600082825461121091906132e5565b92505081905550816002600083815260200190815260200160002060006101000a81548173ffffffffffffffffffffffffffffffffffffffff021916908373ffffffffffffffffffffffffffffffffffffffff160217905550808273ffffffffffffffffffffffffffffffffffffffff168473ffffffffffffffffffffffffffffffffffffffff167fddf252ad1be2c89b69c2b068fc378daa952ba7f163c4a11628f55a4df523b3ef60405160405180910390a46112cf8383836119e2565b505050565b6112dc610f17565b73ffffffffffffffffffffffffffffffffffffffff166112fa610b48565b73ffffffffffffffffffffffffffffffffffffffff1614611350576040517f08c379a000000000000000000000000000000000000000000000000000000000815260040161134790613122565b60405180910390fd5b565b61135a6119e7565b6000600b60006101000a81548160ff0219169083151502179055507f5db9ee0a495bf2e6ff9c91a7834c1ba4fdd244a5e8aa4e537bd38aeae4b073aa61139e610f17565b6040516113ab9190612ede565b60405180910390a1565b600081600001549050919050565b6113dd828260405180602001604052806000815250611a30565b5050565b6001816000016000828254019250508190555050565b61140081611a8b565b50565b6000600b60019054906101000a900473ffffffffffffffffffffffffffffffffffffffff16905081600b60016101000a81548173ffffffffffffffffffffffffffffffffffffffff021916908373ffffffffffffffffffffffffffffffffffffffff1602179055508173ffffffffffffffffffffffffffffffffffffffff168173ffffffffffffffffffffffffffffffffffffffff167f8be0079c531659141344cd1fd0a4f28419497f9722a3daafe3b4186f6b6457e060405160405180910390a35050565b6114d1611ade565b6001600b60006101000a81548160ff0219169083151502179055507f62e78cea01bee320cd4e420270b5ea74000d11b0c9f74754ebdbfc544b05a258611515610f17565b6040516115229190612ede565b60405180910390a1565b8173ffffffffffffffffffffffffffffffffffffffff168373ffffffffffffffffffffffffffffffffffffffff16141561159b576040517f08c379a000000000000000000000000000000000000000000000000000000000815260040161159290613062565b60405180910390fd5b80600560008573ffffffffffffffffffffffffffffffffffffffff1673ffffffffffffffffffffffffffffffffffffffff16815260200190815260200160002060008473ffffffffffffffffffffffffffffffffffffffff1673ffffffffffffffffffffffffffffffffffffffff16815260200190815260200160002060006101000a81548160ff0219169083151502179055508173ffffffffffffffffffffffffffffffffffffffff168373ffffffffffffffffffffffffffffffffffffffff167f17307eab39ab6107e8899845ad3d59bd9653f200f220920489ca2b5937696c318360405161168c9190612f45565b60405180910390a3505050565b6116a484848461106d565b6116b084848484611b28565b6116ef576040517f08c379a00000000000000000000000000000000000000000000000000000000081526004016116e690612fc2565b60405180910390fd5b50505050565b606061170082610ecc565b6000600a6000848152602001908152602001600020805461172090613456565b80601f016020809104026020016040519081016040528092919081815260200182805461174c90613456565b80156117995780601f1061176e57610100808354040283529160200191611799565b820191906000526020600020905b81548152906001019060200180831161177c57829003601f168201915b5050505050905060006117aa611cbf565b90506000815114156117c0578192505050611803565b6000825111156117f55780826040516020016117dd929190612eba565b60405160208183030381529060405292505050611803565b6117fe84611cd6565b925050505b919050565b6118118261195e565b611850576040517f08c379a0000000000000000000000000000000000000000000000000000000008152600401611847906130c2565b60405180910390fd5b80600a60008481526020019081526020016000209080519060200190611877929190612642565b505050565b60007f80ac58cd000000000000000000000000000000000000000000000000000000007bffffffffffffffffffffffffffffffffffffffffffffffffffffffff1916827bffffffffffffffffffffffffffffffffffffffffffffffffffffffff1916148061194757507f5b5e139f000000000000000000000000000000000000000000000000000000007bffffffffffffffffffffffffffffffffffffffffffffffffffffffff1916827bffffffffffffffffffffffffffffffffffffffffffffffffffffffff1916145b80611957575061195682611d3e565b5b9050919050565b60008073ffffffffffffffffffffffffffffffffffffffff166002600084815260200190815260200160002060009054906101000a900473ffffffffffffffffffffffffffffffffffffffff1673ffffffffffffffffffffffffffffffffffffffff1614159050919050565b6119d2611ade565b6119dd838383611da8565b505050565b505050565b6119ef610967565b611a2e576040517f08c379a0000000000000000000000000000000000000000000000000000000008152600401611a2590612f82565b60405180910390fd5b565b611a3a8383611ebc565b611a476000848484611b28565b611a86576040517f08c379a0000000000000000000000000000000000000000000000000000000008152600401611a7d90612fc2565b60405180910390fd5b505050565b611a9481612096565b6000600a60008381526020019081526020016000208054611ab490613456565b905014611adb57600a60008281526020019081526020016000206000611ada91906126c8565b5b50565b611ae6610967565b15611b26576040517f08c379a0000000000000000000000000000000000000000000000000000000008152600401611b1d90613082565b60405180910390fd5b565b6000611b498473ffffffffffffffffffffffffffffffffffffffff166121b3565b15611cb2578373ffffffffffffffffffffffffffffffffffffffff1663150b7a02611b72610f17565b8786866040518563ffffffff1660e01b8152600401611b949493929190612ef9565b602060405180830381600087803b158015611bae57600080fd5b505af1925050508015611bdf57506040513d601f19601f82011682018060405250810190611bdc9190612aba565b60015b611c62573d8060008114611c0f576040519150601f19603f3d011682016040523d82523d6000602084013e611c14565b606091505b50600081511415611c5a576040517f08c379a0000000000000000000000000000000000000000000000000000000008152600401611c5190612fc2565b60405180910390fd5b805181602001fd5b63150b7a0260e01b7bffffffffffffffffffffffffffffffffffffffffffffffffffffffff1916817bffffffffffffffffffffffffffffffffffffffffffffffffffffffff191614915050611cb7565b600190505b949350505050565b606060405180602001604052806000815250905090565b6060611ce182610ecc565b6000611ceb611cbf565b90506000815111611d0b5760405180602001604052806000815250611d36565b80611d15846121d6565b604051602001611d26929190612eba565b6040516020818303038152906040525b915050919050565b60007f01ffc9a7000000000000000000000000000000000000000000000000000000007bffffffffffffffffffffffffffffffffffffffffffffffffffffffff1916827bffffffffffffffffffffffffffffffffffffffffffffffffffffffff1916149050919050565b611db3838383612337565b600073ffffffffffffffffffffffffffffffffffffffff168373ffffffffffffffffffffffffffffffffffffffff161415611df657611df18161233c565b611e35565b8173ffffffffffffffffffffffffffffffffffffffff168373ffffffffffffffffffffffffffffffffffffffff1614611e3457611e338382612385565b5b5b600073ffffffffffffffffffffffffffffffffffffffff168273ffffffffffffffffffffffffffffffffffffffff161415611e7857611e73816124f2565b611eb7565b8273ffffffffffffffffffffffffffffffffffffffff168273ffffffffffffffffffffffffffffffffffffffff1614611eb657611eb582826125c3565b5b5b505050565b600073ffffffffffffffffffffffffffffffffffffffff168273ffffffffffffffffffffffffffffffffffffffff161415611f2c576040517f08c379a0000000000000000000000000000000000000000000000000000000008152600401611f2390613102565b60405180910390fd5b611f358161195e565b15611f75576040517f08c379a0000000000000000000000000000000000000000000000000000000008152600401611f6c90613022565b60405180910390fd5b611f81600083836119ca565b6001600360008473ffffffffffffffffffffffffffffffffffffffff1673ffffffffffffffffffffffffffffffffffffffff1681526020019081526020016000206000828254611fd191906132e5565b92505081905550816002600083815260200190815260200160002060006101000a81548173ffffffffffffffffffffffffffffffffffffffff021916908373ffffffffffffffffffffffffffffffffffffffff160217905550808273ffffffffffffffffffffffffffffffffffffffff16600073ffffffffffffffffffffffffffffffffffffffff167fddf252ad1be2c89b69c2b068fc378daa952ba7f163c4a11628f55a4df523b3ef60405160405180910390a4612092600083836119e2565b5050565b60006120a18261097e565b90506120af816000846119ca565b6120ba600083610f1f565b6001600360008373ffffffffffffffffffffffffffffffffffffffff1673ffffffffffffffffffffffffffffffffffffffff168152602001908152602001600020600082825461210a919061336c565b925050819055506002600083815260200190815260200160002060006101000a81549073ffffffffffffffffffffffffffffffffffffffff021916905581600073ffffffffffffffffffffffffffffffffffffffff168273ffffffffffffffffffffffffffffffffffffffff167fddf252ad1be2c89b69c2b068fc378daa952ba7f163c4a11628f55a4df523b3ef60405160405180910390a46121af816000846119e2565b5050565b6000808273ffffffffffffffffffffffffffffffffffffffff163b119050919050565b6060600082141561221e576040518060400160405280600181526020017f30000000000000000000000000000000000000000000000000000000000000008152509050612332565b600082905060005b60008214612250578080612239906134b9565b915050600a82612249919061333b565b9150612226565b60008167ffffffffffffffff81111561226c5761226b61361e565b5b6040519080825280601f01601f19166020018201604052801561229e5781602001600182028036833780820191505090505b5090505b6000851461232b576001826122b7919061336c565b9150600a856122c69190613502565b60306122d291906132e5565b60f81b8183815181106122e8576122e76135ef565b5b60200101907effffffffffffffffffffffffffffffffffffffffffffffffffffffffffffff1916908160001a905350600a85612324919061333b565b94506122a2565b8093505050505b919050565b505050565b6008805490506009600083815260200190815260200160002081905550600881908060018154018082558091505060019003906000526020600020016000909190919091505550565b6000600161239284610a30565b61239c919061336c565b9050600060076000848152602001908152602001600020549050818114612481576000600660008673ffffffffffffffffffffffffffffffffffffffff1673ffffffffffffffffffffffffffffffffffffffff168152602001908152602001600020600084815260200190815260200160002054905080600660008773ffffffffffffffffffffffffffffffffffffffff1673ffffffffffffffffffffffffffffffffffffffff168152602001908152602001600020600084815260200190815260200160002081905550816007600083815260200190815260200160002081905550505b6007600084815260200190815260200160002060009055600660008573ffffffffffffffffffffffffffffffffffffffff1673ffffffffffffffffffffffffffffffffffffffff16815260200190815260200160002060008381526020019081526020016000206000905550505050565b60006001600880549050612506919061336c565b9050600060096000848152602001908152602001600020549050600060088381548110612536576125356135ef565b5b906000526020600020015490508060088381548110612558576125576135ef565b5b9060005260206000200181905550816009600083815260200190815260200160002081905550600960008581526020019081526020016000206000905560088054806125a7576125a66135c0565b5b6001900381819060005260206000200160009055905550505050565b60006125ce83610a30565b905081600660008573ffffffffffffffffffffffffffffffffffffffff1673ffffffffffffffffffffffffffffffffffffffff168152602001908152602001600020600083815260200190815260200160002081905550806007600084815260200190815260200160002081905550505050565b82805461264e90613456565b90600052602060002090601f01602090048101928261267057600085556126b7565b82601f1061268957805160ff19168380011785556126b7565b828001600101855582156126b7579182015b828111156126b657825182559160200191906001019061269b565b5b5090506126c49190612708565b5090565b5080546126d490613456565b6000825580601f106126e65750612705565b601f0160209004906000526020600020908101906127049190612708565b5b50565b5b80821115612721576000816000905550600101612709565b5090565b600061273861273384613240565b61321b565b90508281526020810184848401111561275457612753613652565b5b61275f848285613414565b509392505050565b600061277a61277584613271565b61321b565b90508281526020810184848401111561279657612795613652565b5b6127a1848285613414565b509392505050565b6000813590506127b881613af6565b92915050565b6000813590506127cd81613b0d565b92915050565b6000813590506127e281613b24565b92915050565b6000815190506127f781613b24565b92915050565b600082601f8301126128125761281161364d565b5b8135612822848260208601612725565b91505092915050565b600082601f8301126128405761283f61364d565b5b8135612850848260208601612767565b91505092915050565b60008135905061286881613b3b565b92915050565b6000602082840312156128845761288361365c565b5b6000612892848285016127a9565b91505092915050565b600080604083850312156128b2576128b161365c565b5b60006128c0858286016127a9565b92505060206128d1858286016127a9565b9150509250929050565b6000806000606084860312156128f4576128f361365c565b5b6000612902868287016127a9565b9350506020612913868287016127a9565b925050604061292486828701612859565b9150509250925092565b600080600080608085870312156129485761294761365c565b5b6000612956878288016127a9565b9450506020612967878288016127a9565b935050604061297887828801612859565b925050606085013567ffffffffffffffff81111561299957612998613657565b5b6129a5878288016127fd565b91505092959194509250565b600080604083850312156129c8576129c761365c565b5b60006129d6858286016127a9565b92505060206129e7858286016127be565b9150509250929050565b60008060408385031215612a0857612a0761365c565b5b6000612a16858286016127a9565b925050602083013567ffffffffffffffff811115612a3757612a36613657565b5b612a438582860161282b565b9150509250929050565b60008060408385031215612a6457612a6361365c565b5b6000612a72858286016127a9565b9250506020612a8385828601612859565b9150509250929050565b600060208284031215612aa357612aa261365c565b5b6000612ab1848285016127d3565b91505092915050565b600060208284031215612ad057612acf61365c565b5b6000612ade848285016127e8565b91505092915050565b600060208284031215612afd57612afc61365c565b5b600082013567ffffffffffffffff811115612b1b57612b1a613657565b5b612b278482850161282b565b91505092915050565b600060208284031215612b4657612b4561365c565b5b6000612b5484828501612859565b91505092915050565b612b66816133a0565b82525050565b612b75816133b2565b82525050565b6000612b86826132a2565b612b9081856132b8565b9350612ba0818560208601613423565b612ba981613661565b840191505092915050565b6000612bbf826132ad565b612bc981856132c9565b9350612bd9818560208601613423565b612be281613661565b840191505092915050565b6000612bf8826132ad565b612c0281856132da565b9350612c12818560208601613423565b80840191505092915050565b6000612c2b6014836132c9565b9150612c3682613672565b602082019050919050565b6000612c4e602b836132c9565b9150612c598261369b565b604082019050919050565b6000612c716032836132c9565b9150612c7c826136ea565b604082019050919050565b6000612c946026836132c9565b9150612c9f82613739565b604082019050919050565b6000612cb76025836132c9565b9150612cc282613788565b604082019050919050565b6000612cda601c836132c9565b9150612ce5826137d7565b602082019050919050565b6000612cfd6024836132c9565b9150612d0882613800565b604082019050919050565b6000612d206019836132c9565b9150612d2b8261384f565b602082019050919050565b6000612d436010836132c9565b9150612d4e82613878565b602082019050919050565b6000612d666029836132c9565b9150612d71826138a1565b604082019050919050565b6000612d89602e836132c9565b9150612d94826138f0565b604082019050919050565b6000612dac603e836132c9565b9150612db78261393f565b604082019050919050565b6000612dcf6020836132c9565b9150612dda8261398e565b602082019050919050565b6000612df26020836132c9565b9150612dfd826139b7565b602082019050919050565b6000612e156018836132c9565b9150612e20826139e0565b602082019050919050565b6000612e386021836132c9565b9150612e4382613a09565b604082019050919050565b6000612e5b602c836132c9565b9150612e6682613a58565b604082019050919050565b6000612e7e602e836132c9565b9150612e8982613aa7565b604082019050919050565b612e9d8161340a565b82525050565b6000612eaf8284612bed565b915081905092915050565b6000612ec68285612bed565b9150612ed28284612bed565b91508190509392505050565b6000602082019050612ef36000830184612b5d565b92915050565b6000608082019050612f0e6000830187612b5d565b612f1b6020830186612b5d565b612f286040830185612e94565b8181036060830152612f3a8184612b7b565b905095945050505050565b6000602082019050612f5a6000830184612b6c565b92915050565b60006020820190508181036000830152612f7a8184612bb4565b905092915050565b60006020820190508181036000830152612f9b81612c1e565b9050919050565b60006020820190508181036000830152612fbb81612c41565b9050919050565b60006020820190508181036000830152612fdb81612c64565b9050919050565b60006020820190508181036000830152612ffb81612c87565b9050919050565b6000602082019050818103600083015261301b81612caa565b9050919050565b6000602082019050818103600083015261303b81612ccd565b9050919050565b6000602082019050818103600083015261305b81612cf0565b9050919050565b6000602082019050818103600083015261307b81612d13565b9050919050565b6000602082019050818103600083015261309b81612d36565b9050919050565b600060208201905081810360008301526130bb81612d59565b9050919050565b600060208201905081810360008301526130db81612d7c565b9050919050565b600060208201905081810360008301526130fb81612d9f565b9050919050565b6000602082019050818103600083015261311b81612dc2565b9050919050565b6000602082019050818103600083015261313b81612de5565b9050919050565b6000602082019050818103600083015261315b81612e08565b9050919050565b6000602082019050818103600083015261317b81612e2b565b9050919050565b6000602082019050818103600083015261319b81612e4e565b9050919050565b600060208201905081810360008301526131bb81612e71565b9050919050565b60006020820190506131d76000830184612e94565b92915050565b60006060820190506131f26000830186612e94565b81810360208301526132048185612bb4565b90506132136040830184612b5d565b949350505050565b6000613225613236565b90506132318282613488565b919050565b6000604051905090565b600067ffffffffffffffff82111561325b5761325a61361e565b5b61326482613661565b9050602081019050919050565b600067ffffffffffffffff82111561328c5761328b61361e565b5b61329582613661565b9050602081019050919050565b600081519050919050565b600081519050919050565b600082825260208201905092915050565b600082825260208201905092915050565b600081905092915050565b60006132f08261340a565b91506132fb8361340a565b9250827fffffffffffffffffffffffffffffffffffffffffffffffffffffffffffffffff038211156133305761332f613533565b5b828201905092915050565b60006133468261340a565b91506133518361340a565b92508261336157613360613562565b5b828204905092915050565b60006133778261340a565b91506133828361340a565b92508282101561339557613394613533565b5b828203905092915050565b60006133ab826133ea565b9050919050565b60008115159050919050565b60007fffffffff0000000000000000000000000000000000000000000000000000000082169050919050565b600073ffffffffffffffffffffffffffffffffffffffff82169050919050565b6000819050919050565b82818337600083830152505050565b60005b83811015613441578082015181840152602081019050613426565b83811115613450576000848401525b50505050565b6000600282049050600182168061346e57607f821691505b6020821081141561348257613481613591565b5b50919050565b61349182613661565b810181811067ffffffffffffffff821117156134b0576134af61361e565b5b80604052505050565b60006134c48261340a565b91507fffffffffffffffffffffffffffffffffffffffffffffffffffffffffffffffff8214156134f7576134f6613533565b5b600182019050919050565b600061350d8261340a565b91506135188361340a565b92508261352857613527613562565b5b828206905092915050565b7f4e487b7100000000000000000000000000000000000000000000000000000000600052601160045260246000fd5b7f4e487b7100000000000000000000000000000000000000000000000000000000600052601260045260246000fd5b7f4e487b7100000000000000000000000000000000000000000000000000000000600052602260045260246000fd5b7f4e487b7100000000000000000000000000000000000000000000000000000000600052603160045260246000fd5b7f4e487b7100000000000000000000000000000000000000000000000000000000600052603260045260246000fd5b7f4e487b7100000000000000000000000000000000000000000000000000000000600052604160045260246000fd5b600080fd5b600080fd5b600080fd5b600080fd5b6000601f19601f8301169050919050565b7f5061757361626c653a206e6f7420706175736564000000000000000000000000600082015250565b7f455243373231456e756d657261626c653a206f776e657220696e646578206f7560008201527f74206f6620626f756e6473000000000000000000000000000000000000000000602082015250565b7f4552433732313a207472616e7366657220746f206e6f6e20455243373231526560008201527f63656976657220696d706c656d656e7465720000000000000000000000000000602082015250565b7f4f776e61626c653a206e6577206f776e657220697320746865207a65726f206160008201527f6464726573730000000000000000000000000000000000000000000000000000602082015250565b7f4552433732313a207472616e736665722066726f6d20696e636f72726563742060008201527f6f776e6572000000000000000000000000000000000000000000000000000000602082015250565b7f4552433732313a20746f6b656e20616c7265616479206d696e74656400000000600082015250565b7f4552433732313a207472616e7366657220746f20746865207a65726f2061646460008201527f7265737300000000000000000000000000000000000000000000000000000000602082015250565b7f4552433732313a20617070726f766520746f2063616c6c657200000000000000600082015250565b7f5061757361626c653a2070617573656400000000000000000000000000000000600082015250565b7f4552433732313a2061646472657373207a65726f206973206e6f74206120766160008201527f6c6964206f776e65720000000000000000000000000000000000000000000000602082015250565b7f45524337323155524953746f726167653a2055524920736574206f66206e6f6e60008201527f6578697374656e7420746f6b656e000000000000000000000000000000000000602082015250565b7f4552433732313a20617070726f76652063616c6c6572206973206e6f7420746f60008201527f6b656e206f776e6572206e6f7220617070726f76656420666f7220616c6c0000602082015250565b7f4552433732313a206d696e7420746f20746865207a65726f2061646472657373600082015250565b7f4f776e61626c653a2063616c6c6572206973206e6f7420746865206f776e6572600082015250565b7f4552433732313a20696e76616c696420746f6b656e2049440000000000000000600082015250565b7f4552433732313a20617070726f76616c20746f2063757272656e74206f776e6560008201527f7200000000000000000000000000000000000000000000000000000000000000602082015250565b7f455243373231456e756d657261626c653a20676c6f62616c20696e646578206f60008201527f7574206f6620626f756e64730000000000000000000000000000000000000000602082015250565b7f4552433732313a2063616c6c6572206973206e6f7420746f6b656e206f776e6560008201527f72206e6f7220617070726f766564000000000000000000000000000000000000602082015250565b613aff816133a0565b8114613b0a57600080fd5b50565b613b16816133b2565b8114613b2157600080fd5b50565b613b2d816133be565b8114613b3857600080fd5b50565b613b448161340a565b8114613b4f57600080fd5b5056fea2646970667358221220fb96150bb3c69f5ff3d6b0c48352ece0d6369cbed25ad680c45e00308d53417564736f6c63430008070033",
  "linkReferences": {},
  "deployedLinkReferences": {}
}