{
  "contractName": "NFTEscrow",
  "abi": [
    {
      "inputs": [],
      "stateMutability": "nonpayable",
      "type": "constructor"
    },
    {
      "inputs": [],
      "name": "buyerAddress",
      "outputs": [
        {
          "internalType": "address payable",
          "name": "",
          "type": "address"
        }
      ],
      "stateMutability": "view",
      "type": "function"
    },
    {
      "inputs": [],
      "name": "nftAddress",
      "outputs": [
        {
          "internalType": "address",
          "name": "",
          "type": "address"
        }
      ],
      "stateMutability": "view",
      "type": "function"
    },
    {
      "inputs": [],
      "name": "projectState",
      "outputs": [
        {
          "internalType": "enum NFTEscrow.ProjectState",
          "name": "",
          "type": "uint8"
        }
      ],
      "stateMutability": "view",
      "type": "function"
    },
    {
      "inputs": [],
      "name": "sellerAddress",
      "outputs": [
        {
          "internalType": "address payable",
          "name": "",
          "type": "address"
        }
      ],
      "stateMutability": "view",
      "type": "function"
    },
    {
      "inputs": [
        {
          "internalType": "address",
          "name": "operator",
          "type": "address"
        },
        {
          "internalType": "address",
          "name": "from",
          "type": "address"
        },
        {
          "internalType": "uint256",
          "name": "tokenId",
          "type": "uint256"
        },
        {
          "internalType": "bytes",
          "name": "data",
          "type": "bytes"
        }
      ],
      "name": "onERC721Received",
      "outputs": [
        {
          "internalType": "bytes4",
          "name": "",
          "type": "bytes4"
        }
      ],
      "stateMutability": "nonpayable",
      "type": "function"
    },
    {
      "inputs": [
        {
          "internalType": "address",
          "name": "_NFTAddress",
          "type": "address"
        },
        {
          "internalType": "uint256",
          "name": "_TokenID",
          "type": "uint256"
        }
      ],
      "name": "depositNFT",
      "outputs": [],
      "stateMutability": "nonpayable",
      "type": "function"
    },
    {
      "inputs": [],
      "name": "cancelAtNFT",
      "outputs": [],
      "stateMutability": "nonpayable",
      "type": "function"
    },
    {
      "inputs": [
        {
          "internalType": "bool",
          "name": "_state",
          "type": "bool"
        }
      ],
      "name": "cancelBeforeDelivery",
      "outputs": [],
      "stateMutability": "payable",
      "type": "function"
    },
    {
      "inputs": [],
      "name": "depositETH",
      "outputs": [],
      "stateMutability": "payable",
      "type": "function"
    },
    {
      "inputs": [],
      "name": "initiateDelivery",
      "outputs": [],
      "stateMutability": "nonpayable",
      "type": "function"
    },
    {
      "inputs": [],
      "name": "confirmDelivery",
      "outputs": [],
      "stateMutability": "payable",
      "type": "function"
    },
    {
      "inputs": [],
      "name": "getBalance",
      "outputs": [
        {
          "internalType": "uint256",
          "name": "balance",
          "type": "uint256"
        }
      ],
      "stateMutability": "view",
      "type": "function"
    }
  ],
  "bytecode": "0x60806040526004805461ffff1916905534801561001b57600080fd5b5060008054336001600160a01b03199091161790556004805462ff0000191690556108a48061004b6000396000f3fe6080604052600436106100a75760003560e01c80635bf8633a116100645780635bf8633a146101935780635e10177b146101b3578063748807ab146101bb5780639b5b9b18146101e8578063a1ee418114610208578063f6326fb31461021d57600080fd5b806312065fe0146100ac578063150b7a02146100cc5780632f9fa7f614610111578063342901a7146101285780633d9b2ae61461013b57806344834aca14610173575b600080fd5b3480156100b857600080fd5b506040514781526020015b60405180910390f35b3480156100d857600080fd5b506100f86100e736600461071e565b630a85bd0160e11b95945050505050565b6040516001600160e01b031990911681526020016100c3565b34801561011d57600080fd5b50610126610225565b005b6101266101363660046107b9565b6102ea565b34801561014757600080fd5b5060005461015b906001600160a01b031681565b6040516001600160a01b0390911681526020016100c3565b34801561017f57600080fd5b5060015461015b906001600160a01b031681565b34801561019f57600080fd5b5060025461015b906001600160a01b031681565b610126610460565b3480156101c757600080fd5b506004546101db9062010000900460ff1681565b6040516100c391906107f8565b3480156101f457600080fd5b50610126610203366004610820565b610560565b34801561021457600080fd5b50610126610631565b6101266106ae565b60018060045462010000900460ff166006811115610245576102456107e2565b1461024f57600080fd5b6000546001600160a01b0316331461026657600080fd5b600254600354604051632142170760e11b81526001600160a01b03909216916342842e0e9161029b913091339160040161084a565b600060405180830381600087803b1580156102b557600080fd5b505af11580156102c9573d6000803e3d6000fd5b5050600480546002935090915062ff0000191662010000835b021790555050565b60038060045462010000900460ff16600681111561030a5761030a6107e2565b1461031457600080fd5b6001546001600160a01b031633148061033757506000546001600160a01b031633145b61034057600080fd5b6000546001600160a01b0316330361036a576004805461ff00191661010084151502179055610379565b6004805460ff19168315151790555b60045460ff610100909104161515600114801561039d575060045460ff1615156001145b1561045c57600254600054600354604051632142170760e11b81526001600160a01b03938416936342842e0e936103dd933093929091169160040161084a565b600060405180830381600087803b1580156103f757600080fd5b505af115801561040b573d6000803e3d6000fd5b50506001546040516001600160a01b0390911692504780156108fc029250906000818181858888f19350505050158015610449573d6000803e3d6000fd5b506004805462ff00001916620400001790555b5050565b60058060045462010000900460ff166006811115610480576104806107e2565b1461048a57600080fd5b6001546001600160a01b031633146104a157600080fd5b600254600154600354604051632142170760e11b81526001600160a01b03938416936342842e0e936104dc933093929091169160040161084a565b600060405180830381600087803b1580156104f657600080fd5b505af115801561050a573d6000803e3d6000fd5b5050600080546040516001600160a01b0390911693504780156108fc02935091818181858888f19350505050158015610547573d6000803e3d6000fd5b50600480546006919062ff0000191662010000836102e2565b60008060045462010000900460ff166006811115610580576105806107e2565b1461058a57600080fd5b6000546001600160a01b031633146105a157600080fd5b600280546001600160a01b0319166001600160a01b0385169081179091556003839055604051632142170760e11b81526342842e0e906105e99033903090879060040161084a565b600060405180830381600087803b15801561060357600080fd5b505af1158015610617573d6000803e3d6000fd5b50506004805462ff00001916620100001790555050505050565b60038060045462010000900460ff166006811115610651576106516107e2565b1461065b57600080fd5b6000546001600160a01b0316331461067257600080fd5b60045460ff1615801561068d5750600454610100900460ff16155b61069657600080fd5b600480546005919062ff0000191662010000836102e2565b60018060045462010000900460ff1660068111156106ce576106ce6107e2565b146106d857600080fd5b600180546001600160a01b03191633179055600480546003919062ff0000191662010000836102e2565b80356001600160a01b038116811461071957600080fd5b919050565b60008060008060006080868803121561073657600080fd5b61073f86610702565b945061074d60208701610702565b935060408601359250606086013567ffffffffffffffff8082111561077157600080fd5b818801915088601f83011261078557600080fd5b81358181111561079457600080fd5b8960208285010111156107a657600080fd5b9699959850939650602001949392505050565b6000602082840312156107cb57600080fd5b813580151581146107db57600080fd5b9392505050565b634e487b7160e01b600052602160045260246000fd5b602081016007831061081a57634e487b7160e01b600052602160045260246000fd5b91905290565b6000806040838503121561083357600080fd5b61083c83610702565b946020939093013593505050565b6001600160a01b03938416815291909216602082015260408101919091526060019056fea2646970667358221220f7799f7c038f97b4b0ab4139e57432b5fd3ebb9d98d03d837c18c628e75d869364736f6c63430008110033",
  "immutableReferences": {},
  "source": "//SPDX-License-Identifier: MIT\r\n \r\npragma solidity ^0.8.2;\r\nimport \"@openzeppelin/contracts/token/ERC721/ERC721.sol\";\r\nimport \"@openzeppelin/contracts/token/ERC721/IERC721Receiver.sol\";\r\n\r\ncontract NFTEscrow is IERC721Receiver {\r\n    \r\n    enum ProjectState {newEscrow, nftDeposited, cancelNFT, ethDeposited, canceledBeforeDelivery, deliveryInitiated, delivered}\r\n    \r\n    address payable public sellerAddress;\r\n    address payable public buyerAddress;\r\n    address public nftAddress;\r\n    uint256 tokenID;\r\n    bool buyerCancel = false;\r\n    bool sellerCancel = false;\r\n    ProjectState public projectState;\r\n\r\n    constructor(){\r\n        sellerAddress = payable(msg.sender);\r\n        projectState = ProjectState.newEscrow;\r\n    }\r\n    \r\n    function onERC721Received( address operator, address from, uint256 tokenId, bytes calldata data ) public override returns (bytes4) {\r\n        return this.onERC721Received.selector;\r\n    }\r\n    \r\n    function depositNFT(address _NFTAddress, uint256 _TokenID) public inProjectState(ProjectState.newEscrow) onlySeller {\r\n        nftAddress = _NFTAddress;\r\n        tokenID = _TokenID;\r\n        ERC721(nftAddress).safeTransferFrom(msg.sender, address(this), tokenID);\r\n        projectState = ProjectState.nftDeposited;\r\n    }\r\n    \r\n    function cancelAtNFT() public inProjectState(ProjectState.nftDeposited) onlySeller {\r\n        ERC721(nftAddress).safeTransferFrom(address(this), msg.sender, tokenID);\r\n        projectState = ProjectState.cancelNFT;\r\n    }\r\n  \r\n    function cancelBeforeDelivery(bool _state) public inProjectState(ProjectState.ethDeposited) payable BuyerOrSeller {\r\n        if (msg.sender == sellerAddress){\r\n            sellerCancel = _state;\r\n        }\r\n        else{\r\n            buyerCancel = _state;\r\n        }\r\n        \r\n        if (sellerCancel == true && buyerCancel == true){\r\n            ERC721(nftAddress).safeTransferFrom(address(this), sellerAddress, tokenID);\r\n            buyerAddress.transfer(address(this).balance);\r\n            projectState = ProjectState.canceledBeforeDelivery;     \r\n        }\r\n    }\r\n    \r\n    function depositETH() public payable inProjectState(ProjectState.nftDeposited) {\r\n        buyerAddress = payable(msg.sender);\r\n        projectState = ProjectState.ethDeposited;\r\n    }\r\n    \r\n    function initiateDelivery() public inProjectState(ProjectState.ethDeposited) onlySeller noDispute {\r\n        projectState = ProjectState.deliveryInitiated;\r\n    }        \r\n    \r\n    function confirmDelivery() public payable inProjectState(ProjectState.deliveryInitiated) onlyBuyer {\r\n        ERC721(nftAddress).safeTransferFrom(address(this), buyerAddress, tokenID);\r\n        sellerAddress.transfer(address(this).balance);\r\n        projectState = ProjectState.delivered;\r\n    }\r\n        \r\n   \tmodifier condition(bool _condition) {\r\n\t\trequire(_condition);\r\n\t\t_;\r\n\t}\r\n\r\n\tmodifier onlySeller() {\r\n\t\trequire(msg.sender == sellerAddress);\r\n\t\t_;\r\n\t}\r\n\r\n\tmodifier onlyBuyer() {\r\n\t\trequire(msg.sender == buyerAddress);\r\n\t\t_;\r\n\t}\r\n\t\r\n\tmodifier noDispute(){\r\n\t    require(buyerCancel == false && sellerCancel == false);\r\n\t    _;\r\n\t}\r\n\t\r\n\tmodifier BuyerOrSeller() {\r\n\t\trequire(msg.sender == buyerAddress || msg.sender == sellerAddress);\r\n\t\t_;\r\n\t}\r\n\t\r\n\tmodifier inProjectState(ProjectState _state) {\r\n\t\trequire(projectState == _state);\r\n\t\t_;\r\n\t}\r\n\r\n    function getBalance() public view returns (uint256 balance) {\r\n        return address(this).balance;\r\n    }\r\n} \r\n",
  "sourcePath": "/home/shubham/Desktop/Real-Estate-FNFT/blockchain/contracts/EscrowNFT.sol",
  "compiler": {
    "name": "solc",
    "version": "0.8.17+commit.8df45f5f.Emscripten.clang"
  },
  "schemaVersion": "3.4.9",
  "updatedAt": "2022-09-17T15:19:53.419Z",
  "devdoc": {
    "kind": "dev",
    "methods": {
      "onERC721Received(address,address,uint256,bytes)": {
        "details": "Whenever an {IERC721} `tokenId` token is transferred to this contract via {IERC721-safeTransferFrom} by `operator` from `from`, this function is called. It must return its Solidity selector to confirm the token transfer. If any other value is returned or the interface is not implemented by the recipient, the transfer will be reverted. The selector can be obtained in Solidity with `IERC721Receiver.onERC721Received.selector`."
      }
    },
    "version": 1
  },
  "userdoc": {
    "kind": "user",
    "methods": {},
    "version": 1
  }
}