{
  "contractName": "RealEstateNFT",
  "abi": [
    {
      "inputs": [],
      "stateMutability": "nonpayable",
      "type": "constructor"
    },
    {
      "anonymous": false,
      "inputs": [
        {
          "indexed": true,
          "internalType": "address",
          "name": "owner",
          "type": "address"
        },
        {
          "indexed": true,
          "internalType": "address",
          "name": "approved",
          "type": "address"
        },
        {
          "indexed": true,
          "internalType": "uint256",
          "name": "tokenId",
          "type": "uint256"
        }
      ],
      "name": "Approval",
      "type": "event"
    },
    {
      "anonymous": false,
      "inputs": [
        {
          "indexed": true,
          "internalType": "address",
          "name": "owner",
          "type": "address"
        },
        {
          "indexed": true,
          "internalType": "address",
          "name": "operator",
          "type": "address"
        },
        {
          "indexed": false,
          "internalType": "bool",
          "name": "approved",
          "type": "bool"
        }
      ],
      "name": "ApprovalForAll",
      "type": "event"
    },
    {
      "anonymous": false,
      "inputs": [
        {
          "indexed": false,
          "internalType": "uint256",
          "name": "tokenId",
          "type": "uint256"
        },
        {
          "indexed": false,
          "internalType": "string",
          "name": "tokenURI",
          "type": "string"
        },
        {
          "indexed": false,
          "internalType": "address",
          "name": "owner",
          "type": "address"
        }
      ],
      "name": "NFTTokenCreated",
      "type": "event"
    },
    {
      "anonymous": false,
      "inputs": [
        {
          "indexed": true,
          "internalType": "address",
          "name": "previousOwner",
          "type": "address"
        },
        {
          "indexed": true,
          "internalType": "address",
          "name": "newOwner",
          "type": "address"
        }
      ],
      "name": "OwnershipTransferred",
      "type": "event"
    },
    {
      "anonymous": false,
      "inputs": [
        {
          "indexed": false,
          "internalType": "address",
          "name": "account",
          "type": "address"
        }
      ],
      "name": "Paused",
      "type": "event"
    },
    {
      "anonymous": false,
      "inputs": [
        {
          "indexed": true,
          "internalType": "address",
          "name": "from",
          "type": "address"
        },
        {
          "indexed": true,
          "internalType": "address",
          "name": "to",
          "type": "address"
        },
        {
          "indexed": true,
          "internalType": "uint256",
          "name": "tokenId",
          "type": "uint256"
        }
      ],
      "name": "Transfer",
      "type": "event"
    },
    {
      "anonymous": false,
      "inputs": [
        {
          "indexed": false,
          "internalType": "address",
          "name": "account",
          "type": "address"
        }
      ],
      "name": "Unpaused",
      "type": "event"
    },
    {
      "inputs": [
        {
          "internalType": "string",
          "name": "",
          "type": "string"
        }
      ],
      "name": "NFT",
      "outputs": [
        {
          "internalType": "uint256",
          "name": "",
          "type": "uint256"
        }
      ],
      "stateMutability": "view",
      "type": "function"
    },
    {
      "inputs": [],
      "name": "_tokenIdCounter",
      "outputs": [
        {
          "internalType": "uint256",
          "name": "_value",
          "type": "uint256"
        }
      ],
      "stateMutability": "view",
      "type": "function"
    },
    {
      "inputs": [
        {
          "internalType": "address",
          "name": "to",
          "type": "address"
        },
        {
          "internalType": "uint256",
          "name": "tokenId",
          "type": "uint256"
        }
      ],
      "name": "approve",
      "outputs": [],
      "stateMutability": "nonpayable",
      "type": "function"
    },
    {
      "inputs": [
        {
          "internalType": "address",
          "name": "owner",
          "type": "address"
        }
      ],
      "name": "balanceOf",
      "outputs": [
        {
          "internalType": "uint256",
          "name": "",
          "type": "uint256"
        }
      ],
      "stateMutability": "view",
      "type": "function"
    },
    {
      "inputs": [
        {
          "internalType": "uint256",
          "name": "tokenId",
          "type": "uint256"
        }
      ],
      "name": "burn",
      "outputs": [],
      "stateMutability": "nonpayable",
      "type": "function"
    },
    {
      "inputs": [
        {
          "internalType": "uint256",
          "name": "tokenId",
          "type": "uint256"
        }
      ],
      "name": "getApproved",
      "outputs": [
        {
          "internalType": "address",
          "name": "",
          "type": "address"
        }
      ],
      "stateMutability": "view",
      "type": "function"
    },
    {
      "inputs": [
        {
          "internalType": "address",
          "name": "owner",
          "type": "address"
        },
        {
          "internalType": "address",
          "name": "operator",
          "type": "address"
        }
      ],
      "name": "isApprovedForAll",
      "outputs": [
        {
          "internalType": "bool",
          "name": "",
          "type": "bool"
        }
      ],
      "stateMutability": "view",
      "type": "function"
    },
    {
      "inputs": [],
      "name": "name",
      "outputs": [
        {
          "internalType": "string",
          "name": "",
          "type": "string"
        }
      ],
      "stateMutability": "view",
      "type": "function"
    },
    {
      "inputs": [],
      "name": "owner",
      "outputs": [
        {
          "internalType": "address",
          "name": "",
          "type": "address"
        }
      ],
      "stateMutability": "view",
      "type": "function"
    },
    {
      "inputs": [
        {
          "internalType": "uint256",
          "name": "tokenId",
          "type": "uint256"
        }
      ],
      "name": "ownerOf",
      "outputs": [
        {
          "internalType": "address",
          "name": "",
          "type": "address"
        }
      ],
      "stateMutability": "view",
      "type": "function"
    },
    {
      "inputs": [],
      "name": "paused",
      "outputs": [
        {
          "internalType": "bool",
          "name": "",
          "type": "bool"
        }
      ],
      "stateMutability": "view",
      "type": "function"
    },
    {
      "inputs": [],
      "name": "renounceOwnership",
      "outputs": [],
      "stateMutability": "nonpayable",
      "type": "function"
    },
    {
      "inputs": [
        {
          "internalType": "address",
          "name": "from",
          "type": "address"
        },
        {
          "internalType": "address",
          "name": "to",
          "type": "address"
        },
        {
          "internalType": "uint256",
          "name": "tokenId",
          "type": "uint256"
        }
      ],
      "name": "safeTransferFrom",
      "outputs": [],
      "stateMutability": "nonpayable",
      "type": "function"
    },
    {
      "inputs": [
        {
          "internalType": "address",
          "name": "from",
          "type": "address"
        },
        {
          "internalType": "address",
          "name": "to",
          "type": "address"
        },
        {
          "internalType": "uint256",
          "name": "tokenId",
          "type": "uint256"
        },
        {
          "internalType": "bytes",
          "name": "data",
          "type": "bytes"
        }
      ],
      "name": "safeTransferFrom",
      "outputs": [],
      "stateMutability": "nonpayable",
      "type": "function"
    },
    {
      "inputs": [
        {
          "internalType": "address",
          "name": "operator",
          "type": "address"
        },
        {
          "internalType": "bool",
          "name": "approved",
          "type": "bool"
        }
      ],
      "name": "setApprovalForAll",
      "outputs": [],
      "stateMutability": "nonpayable",
      "type": "function"
    },
    {
      "inputs": [],
      "name": "symbol",
      "outputs": [
        {
          "internalType": "string",
          "name": "",
          "type": "string"
        }
      ],
      "stateMutability": "view",
      "type": "function"
    },
    {
      "inputs": [
        {
          "internalType": "uint256",
          "name": "index",
          "type": "uint256"
        }
      ],
      "name": "tokenByIndex",
      "outputs": [
        {
          "internalType": "uint256",
          "name": "",
          "type": "uint256"
        }
      ],
      "stateMutability": "view",
      "type": "function"
    },
    {
      "inputs": [
        {
          "internalType": "address",
          "name": "owner",
          "type": "address"
        },
        {
          "internalType": "uint256",
          "name": "index",
          "type": "uint256"
        }
      ],
      "name": "tokenOfOwnerByIndex",
      "outputs": [
        {
          "internalType": "uint256",
          "name": "",
          "type": "uint256"
        }
      ],
      "stateMutability": "view",
      "type": "function"
    },
    {
      "inputs": [],
      "name": "totalSupply",
      "outputs": [
        {
          "internalType": "uint256",
          "name": "",
          "type": "uint256"
        }
      ],
      "stateMutability": "view",
      "type": "function"
    },
    {
      "inputs": [
        {
          "internalType": "address",
          "name": "from",
          "type": "address"
        },
        {
          "internalType": "address",
          "name": "to",
          "type": "address"
        },
        {
          "internalType": "uint256",
          "name": "tokenId",
          "type": "uint256"
        }
      ],
      "name": "transferFrom",
      "outputs": [],
      "stateMutability": "nonpayable",
      "type": "function"
    },
    {
      "inputs": [
        {
          "internalType": "address",
          "name": "newOwner",
          "type": "address"
        }
      ],
      "name": "transferOwnership",
      "outputs": [],
      "stateMutability": "nonpayable",
      "type": "function"
    },
    {
      "inputs": [
        {
          "internalType": "address",
          "name": "to",
          "type": "address"
        }
      ],
      "name": "safeMint",
      "outputs": [],
      "stateMutability": "nonpayable",
      "type": "function"
    },
    {
      "inputs": [],
      "name": "pause",
      "outputs": [],
      "stateMutability": "nonpayable",
      "type": "function"
    },
    {
      "inputs": [],
      "name": "unpause",
      "outputs": [],
      "stateMutability": "nonpayable",
      "type": "function"
    },
    {
      "inputs": [
        {
          "internalType": "uint256",
          "name": "tokenId",
          "type": "uint256"
        }
      ],
      "name": "tokenURI",
      "outputs": [
        {
          "internalType": "string",
          "name": "",
          "type": "string"
        }
      ],
      "stateMutability": "view",
      "type": "function"
    },
    {
      "inputs": [
        {
          "internalType": "bytes4",
          "name": "interfaceId",
          "type": "bytes4"
        }
      ],
      "name": "supportsInterface",
      "outputs": [
        {
          "internalType": "bool",
          "name": "",
          "type": "bool"
        }
      ],
      "stateMutability": "view",
      "type": "function"
    },
    {
      "inputs": [
        {
          "internalType": "address",
          "name": "_to",
          "type": "address"
        },
        {
          "internalType": "string",
          "name": "tokenURI_",
          "type": "string"
        }
      ],
      "name": "mint",
      "outputs": [],
      "stateMutability": "nonpayable",
      "type": "function"
    }
  ],
  "bytecode": "0x60806040523480156200001157600080fd5b506040518060400160405280600d81526020016c1499585b115cdd185d19539195609a1b815250604051806040016040528060048152602001631493919560e21b815250816000908162000066919062000192565b50600162000075828262000192565b5050600b805460ff19169055506200008d3362000093565b6200025e565b600b80546001600160a01b03838116610100818102610100600160a81b031985161790945560405193909204169182907f8be0079c531659141344cd1fd0a4f28419497f9722a3daafe3b4186f6b6457e090600090a35050565b634e487b7160e01b600052604160045260246000fd5b600181811c908216806200011857607f821691505b6020821081036200013957634e487b7160e01b600052602260045260246000fd5b50919050565b601f8211156200018d57600081815260208120601f850160051c81016020861015620001685750805b601f850160051c820191505b81811015620001895782815560010162000174565b5050505b505050565b81516001600160401b03811115620001ae57620001ae620000ed565b620001c681620001bf845462000103565b846200013f565b602080601f831160018114620001fe5760008415620001e55750858301515b600019600386901b1c1916600185901b17855562000189565b600085815260208120601f198616915b828110156200022f578886015182559484019460019091019084016200020e565b50858210156200024e5787850151600019600388901b60f8161c191681555b5050505050600190811b01905550565b6120c8806200026e6000396000f3fe608060405234801561001057600080fd5b50600436106101a95760003560e01c80636352211e116100f957806395d89b4111610097578063c87b56dd11610071578063c87b56dd14610371578063d0def52114610384578063e985e9c514610397578063f2fde38b146103d357600080fd5b806395d89b4114610343578063a22cb4651461034b578063b88d4fde1461035e57600080fd5b806373c997f1116100d357806373c997f1146102f05780638456cb591461031b57806384c4bd4b146103235780638da5cb5b1461032d57600080fd5b80636352211e146102c257806370a08231146102d5578063715018a6146102e857600080fd5b80632f745c591161016657806342842e0e1161014057806342842e0e1461027e57806342966c68146102915780634f6ccce7146102a45780635c975abb146102b757600080fd5b80632f745c59146102505780633f4ba83a1461026357806340d097c31461026b57600080fd5b806301ffc9a7146101ae57806306fdde03146101d6578063081812fc146101eb578063095ea7b31461021657806318160ddd1461022b57806323b872dd1461023d575b600080fd5b6101c16101bc3660046119c5565b6103e6565b60405190151581526020015b60405180910390f35b6101de6103f7565b6040516101cd9190611a32565b6101fe6101f9366004611a45565b610489565b6040516001600160a01b0390911681526020016101cd565b610229610224366004611a7a565b6104b0565b005b6008545b6040519081526020016101cd565b61022961024b366004611aa4565b6105ca565b61022f61025e366004611a7a565b6105fc565b610229610692565b610229610279366004611ae0565b6106a4565b61022961028c366004611aa4565b6106cf565b61022961029f366004611a45565b6106ea565b61022f6102b2366004611a45565b610718565b600b5460ff166101c1565b6101fe6102d0366004611a45565b6107ab565b61022f6102e3366004611ae0565b61080b565b610229610891565b61022f6102fe366004611ba7565b8051602081830181018051600d8252928201919093012091525481565b6102296108a3565b600c5461022f9081565b600b5461010090046001600160a01b03166101fe565b6101de6108b3565b610229610359366004611bdc565b6108c2565b61022961036c366004611c18565b6108d1565b6101de61037f366004611a45565b610909565b610229610392366004611c94565b610914565b6101c16103a5366004611ce2565b6001600160a01b03918216600090815260056020908152604080832093909416825291909152205460ff1690565b6102296103e1366004611ae0565b6109b3565b60006103f182610a29565b92915050565b60606000805461040690611d15565b80601f016020809104026020016040519081016040528092919081815260200182805461043290611d15565b801561047f5780601f106104545761010080835404028352916020019161047f565b820191906000526020600020905b81548152906001019060200180831161046257829003601f168201915b5050505050905090565b600061049482610a4e565b506000908152600460205260409020546001600160a01b031690565b60006104bb826107ab565b9050806001600160a01b0316836001600160a01b03160361052d5760405162461bcd60e51b815260206004820152602160248201527f4552433732313a20617070726f76616c20746f2063757272656e74206f776e656044820152603960f91b60648201526084015b60405180910390fd5b336001600160a01b0382161480610549575061054981336103a5565b6105bb5760405162461bcd60e51b815260206004820152603e60248201527f4552433732313a20617070726f76652063616c6c6572206973206e6f7420746f60448201527f6b656e206f776e6572206e6f7220617070726f76656420666f7220616c6c00006064820152608401610524565b6105c58383610aad565b505050565b6105d5335b82610b1b565b6105f15760405162461bcd60e51b815260040161052490611d4f565b6105c5838383610b9a565b60006106078361080b565b82106106695760405162461bcd60e51b815260206004820152602b60248201527f455243373231456e756d657261626c653a206f776e657220696e646578206f7560448201526a74206f6620626f756e647360a81b6064820152608401610524565b506001600160a01b03919091166000908152600660209081526040808320938352929052205490565b61069a610d41565b6106a2610da1565b565b6106ac610d41565b6106be816106b9600c5490565b610df3565b6106cc600c80546001019055565b50565b6105c5838383604051806020016040528060008152506108d1565b6106f3336105cf565b61070f5760405162461bcd60e51b815260040161052490611d4f565b6106cc81610e0d565b600061072360085490565b82106107865760405162461bcd60e51b815260206004820152602c60248201527f455243373231456e756d657261626c653a20676c6f62616c20696e646578206f60448201526b7574206f6620626f756e647360a01b6064820152608401610524565b6008828154811061079957610799611d9d565b90600052602060002001549050919050565b6000818152600260205260408120546001600160a01b0316806103f15760405162461bcd60e51b8152602060048201526018602482015277115490cdcc8c4e881a5b9d985b1a59081d1bdad95b88125160421b6044820152606401610524565b60006001600160a01b0382166108755760405162461bcd60e51b815260206004820152602960248201527f4552433732313a2061646472657373207a65726f206973206e6f7420612076616044820152683634b21037bbb732b960b91b6064820152608401610524565b506001600160a01b031660009081526003602052604090205490565b610899610d41565b6106a26000610e16565b6108ab610d41565b6106a2610e70565b60606001805461040690611d15565b6108cd338383610ead565b5050565b6108db3383610b1b565b6108f75760405162461bcd60e51b815260040161052490611d4f565b61090384848484610f7b565b50505050565b60606103f182610fae565b61091c610d41565b610929826106b9600c5490565b61093b610935600c5490565b826110b6565b600c54600d8260405161094e9190611db3565b9081526040519081900360200190205561096c600c80546001019055565b7f71af4bb654f00a712902a3131faaeec41925871b4d96f817ec562d5898577d4b610996600c5490565b82846040516109a793929190611dcf565b60405180910390a15050565b6109bb610d41565b6001600160a01b038116610a205760405162461bcd60e51b815260206004820152602660248201527f4f776e61626c653a206e6577206f776e657220697320746865207a65726f206160448201526564647265737360d01b6064820152608401610524565b6106cc81610e16565b60006001600160e01b0319821663780e9d6360e01b14806103f157506103f182611149565b6000818152600260205260409020546001600160a01b03166106cc5760405162461bcd60e51b8152602060048201526018602482015277115490cdcc8c4e881a5b9d985b1a59081d1bdad95b88125160421b6044820152606401610524565b600081815260046020526040902080546001600160a01b0319166001600160a01b0384169081179091558190610ae2826107ab565b6001600160a01b03167f8c5be1e5ebec7d5bd14f71427d1e84f3dd0314c0f7b2291e5b200ac8c7c3b92560405160405180910390a45050565b600080610b27836107ab565b9050806001600160a01b0316846001600160a01b03161480610b6e57506001600160a01b0380821660009081526005602090815260408083209388168352929052205460ff165b80610b925750836001600160a01b0316610b8784610489565b6001600160a01b0316145b949350505050565b826001600160a01b0316610bad826107ab565b6001600160a01b031614610c115760405162461bcd60e51b815260206004820152602560248201527f4552433732313a207472616e736665722066726f6d20696e636f72726563742060448201526437bbb732b960d91b6064820152608401610524565b6001600160a01b038216610c735760405162461bcd60e51b8152602060048201526024808201527f4552433732313a207472616e7366657220746f20746865207a65726f206164646044820152637265737360e01b6064820152608401610524565b610c7e838383611199565b610c89600082610aad565b6001600160a01b0383166000908152600360205260408120805460019290610cb2908490611e16565b90915550506001600160a01b0382166000908152600360205260408120805460019290610ce0908490611e29565b909155505060008181526002602052604080822080546001600160a01b0319166001600160a01b0386811691821790925591518493918716917fddf252ad1be2c89b69c2b068fc378daa952ba7f163c4a11628f55a4df523b3ef91a4505050565b600b546001600160a01b036101009091041633146106a25760405162461bcd60e51b815260206004820181905260248201527f4f776e61626c653a2063616c6c6572206973206e6f7420746865206f776e65726044820152606401610524565b610da96111ac565b600b805460ff191690557f5db9ee0a495bf2e6ff9c91a7834c1ba4fdd244a5e8aa4e537bd38aeae4b073aa335b6040516001600160a01b03909116815260200160405180910390a1565b6108cd8282604051806020016040528060008152506111f5565b6106cc81611228565b600b80546001600160a01b03838116610100818102610100600160a81b031985161790945560405193909204169182907f8be0079c531659141344cd1fd0a4f28419497f9722a3daafe3b4186f6b6457e090600090a35050565b610e78611268565b600b805460ff191660011790557f62e78cea01bee320cd4e420270b5ea74000d11b0c9f74754ebdbfc544b05a258610dd63390565b816001600160a01b0316836001600160a01b031603610f0e5760405162461bcd60e51b815260206004820152601960248201527f4552433732313a20617070726f766520746f2063616c6c6572000000000000006044820152606401610524565b6001600160a01b03838116600081815260056020908152604080832094871680845294825291829020805460ff191686151590811790915591519182527f17307eab39ab6107e8899845ad3d59bd9653f200f220920489ca2b5937696c31910160405180910390a3505050565b610f86848484610b9a565b610f92848484846112ae565b6109035760405162461bcd60e51b815260040161052490611e3c565b6060610fb982610a4e565b6000828152600a602052604081208054610fd290611d15565b80601f0160208091040260200160405190810160405280929190818152602001828054610ffe90611d15565b801561104b5780601f106110205761010080835404028352916020019161104b565b820191906000526020600020905b81548152906001019060200180831161102e57829003601f168201915b50505050509050600061106960408051602081019091526000815290565b9050805160000361107b575092915050565b8151156110ad578082604051602001611095929190611e8e565b60405160208183030381529060405292505050919050565b610b92846113af565b6000828152600260205260409020546001600160a01b03166111315760405162461bcd60e51b815260206004820152602e60248201527f45524337323155524953746f726167653a2055524920736574206f66206e6f6e60448201526d32bc34b9ba32b73a103a37b5b2b760911b6064820152608401610524565b6000828152600a602052604090206105c58282611f0b565b60006001600160e01b031982166380ac58cd60e01b148061117a57506001600160e01b03198216635b5e139f60e01b145b806103f157506301ffc9a760e01b6001600160e01b03198316146103f1565b6111a1611268565b6105c5838383611423565b600b5460ff166106a25760405162461bcd60e51b815260206004820152601460248201527314185d5cd8589b194e881b9bdd081c185d5cd95960621b6044820152606401610524565b6111ff83836114db565b61120c60008484846112ae565b6105c55760405162461bcd60e51b815260040161052490611e3c565b61123181611629565b6000818152600a60205260409020805461124a90611d15565b1590506106cc576000818152600a602052604081206106cc91611961565b600b5460ff16156106a25760405162461bcd60e51b815260206004820152601060248201526f14185d5cd8589b194e881c185d5cd95960821b6044820152606401610524565b60006001600160a01b0384163b156113a457604051630a85bd0160e11b81526001600160a01b0385169063150b7a02906112f2903390899088908890600401611fcb565b6020604051808303816000875af192505050801561132d575060408051601f3d908101601f1916820190925261132a91810190612008565b60015b61138a573d80801561135b576040519150601f19603f3d011682016040523d82523d6000602084013e611360565b606091505b5080516000036113825760405162461bcd60e51b815260040161052490611e3c565b805181602001fd5b6001600160e01b031916630a85bd0160e11b149050610b92565b506001949350505050565b60606113ba82610a4e565b60006113d160408051602081019091526000815290565b905060008151116113f1576040518060200160405280600081525061141c565b806113fb846116d0565b60405160200161140c929190611e8e565b6040516020818303038152906040525b9392505050565b6001600160a01b03831661147e5761147981600880546000838152600960205260408120829055600182018355919091527ff3f7a9fe364faab93b216da50a3214154f22a0a2b415b23a84c8169e8b636ee30155565b6114a1565b816001600160a01b0316836001600160a01b0316146114a1576114a183826117d1565b6001600160a01b0382166114b8576105c58161186e565b826001600160a01b0316826001600160a01b0316146105c5576105c5828261191d565b6001600160a01b0382166115315760405162461bcd60e51b815260206004820181905260248201527f4552433732313a206d696e7420746f20746865207a65726f20616464726573736044820152606401610524565b6000818152600260205260409020546001600160a01b0316156115965760405162461bcd60e51b815260206004820152601c60248201527f4552433732313a20746f6b656e20616c7265616479206d696e746564000000006044820152606401610524565b6115a260008383611199565b6001600160a01b03821660009081526003602052604081208054600192906115cb908490611e29565b909155505060008181526002602052604080822080546001600160a01b0319166001600160a01b03861690811790915590518392907fddf252ad1be2c89b69c2b068fc378daa952ba7f163c4a11628f55a4df523b3ef908290a45050565b6000611634826107ab565b905061164281600084611199565b61164d600083610aad565b6001600160a01b0381166000908152600360205260408120805460019290611676908490611e16565b909155505060008281526002602052604080822080546001600160a01b0319169055518391906001600160a01b038416907fddf252ad1be2c89b69c2b068fc378daa952ba7f163c4a11628f55a4df523b3ef908390a45050565b6060816000036116f75750506040805180820190915260018152600360fc1b602082015290565b8160005b8115611721578061170b81612025565b915061171a9050600a83612054565b91506116fb565b60008167ffffffffffffffff81111561173c5761173c611afb565b6040519080825280601f01601f191660200182016040528015611766576020820181803683370190505b5090505b8415610b925761177b600183611e16565b9150611788600a86612068565b611793906030611e29565b60f81b8183815181106117a8576117a8611d9d565b60200101906001600160f81b031916908160001a9053506117ca600a86612054565b945061176a565b600060016117de8461080b565b6117e89190611e16565b60008381526007602052604090205490915080821461183b576001600160a01b03841660009081526006602090815260408083208584528252808320548484528184208190558352600790915290208190555b5060009182526007602090815260408084208490556001600160a01b039094168352600681528383209183525290812055565b60085460009061188090600190611e16565b600083815260096020526040812054600880549394509092849081106118a8576118a8611d9d565b9060005260206000200154905080600883815481106118c9576118c9611d9d565b60009182526020808320909101929092558281526009909152604080822084905585825281205560088054806119015761190161207c565b6001900381819060005260206000200160009055905550505050565b60006119288361080b565b6001600160a01b039093166000908152600660209081526040808320868452825280832085905593825260079052919091209190915550565b50805461196d90611d15565b6000825580601f1061197d575050565b601f0160209004906000526020600020908101906106cc91905b808211156119ab5760008155600101611997565b5090565b6001600160e01b0319811681146106cc57600080fd5b6000602082840312156119d757600080fd5b813561141c816119af565b60005b838110156119fd5781810151838201526020016119e5565b50506000910152565b60008151808452611a1e8160208601602086016119e2565b601f01601f19169290920160200192915050565b60208152600061141c6020830184611a06565b600060208284031215611a5757600080fd5b5035919050565b80356001600160a01b0381168114611a7557600080fd5b919050565b60008060408385031215611a8d57600080fd5b611a9683611a5e565b946020939093013593505050565b600080600060608486031215611ab957600080fd5b611ac284611a5e565b9250611ad060208501611a5e565b9150604084013590509250925092565b600060208284031215611af257600080fd5b61141c82611a5e565b634e487b7160e01b600052604160045260246000fd5b600067ffffffffffffffff80841115611b2c57611b2c611afb565b604051601f8501601f19908116603f01168101908282118183101715611b5457611b54611afb565b81604052809350858152868686011115611b6d57600080fd5b858560208301376000602087830101525050509392505050565b600082601f830112611b9857600080fd5b61141c83833560208501611b11565b600060208284031215611bb957600080fd5b813567ffffffffffffffff811115611bd057600080fd5b610b9284828501611b87565b60008060408385031215611bef57600080fd5b611bf883611a5e565b915060208301358015158114611c0d57600080fd5b809150509250929050565b60008060008060808587031215611c2e57600080fd5b611c3785611a5e565b9350611c4560208601611a5e565b925060408501359150606085013567ffffffffffffffff811115611c6857600080fd5b8501601f81018713611c7957600080fd5b611c8887823560208401611b11565b91505092959194509250565b60008060408385031215611ca757600080fd5b611cb083611a5e565b9150602083013567ffffffffffffffff811115611ccc57600080fd5b611cd885828601611b87565b9150509250929050565b60008060408385031215611cf557600080fd5b611cfe83611a5e565b9150611d0c60208401611a5e565b90509250929050565b600181811c90821680611d2957607f821691505b602082108103611d4957634e487b7160e01b600052602260045260246000fd5b50919050565b6020808252602e908201527f4552433732313a2063616c6c6572206973206e6f7420746f6b656e206f776e6560408201526d1c881b9bdc88185c1c1c9bdd995960921b606082015260800190565b634e487b7160e01b600052603260045260246000fd5b60008251611dc58184602087016119e2565b9190910192915050565b838152606060208201526000611de86060830185611a06565b905060018060a01b0383166040830152949350505050565b634e487b7160e01b600052601160045260246000fd5b818103818111156103f1576103f1611e00565b808201808211156103f1576103f1611e00565b60208082526032908201527f4552433732313a207472616e7366657220746f206e6f6e20455243373231526560408201527131b2b4bb32b91034b6b83632b6b2b73a32b960711b606082015260800190565b60008351611ea08184602088016119e2565b835190830190611eb48183602088016119e2565b01949350505050565b601f8211156105c557600081815260208120601f850160051c81016020861015611ee45750805b601f850160051c820191505b81811015611f0357828155600101611ef0565b505050505050565b815167ffffffffffffffff811115611f2557611f25611afb565b611f3981611f338454611d15565b84611ebd565b602080601f831160018114611f6e5760008415611f565750858301515b600019600386901b1c1916600185901b178555611f03565b600085815260208120601f198616915b82811015611f9d57888601518255948401946001909101908401611f7e565b5085821015611fbb5787850151600019600388901b60f8161c191681555b5050505050600190811b01905550565b6001600160a01b0385811682528416602082015260408101839052608060608201819052600090611ffe90830184611a06565b9695505050505050565b60006020828403121561201a57600080fd5b815161141c816119af565b60006001820161203757612037611e00565b5060010190565b634e487b7160e01b600052601260045260246000fd5b6000826120635761206361203e565b500490565b6000826120775761207761203e565b500690565b634e487b7160e01b600052603160045260246000fdfea2646970667358221220e3038e2c4ca8db02de0f7169884cc9e3db55242962c2aba2808b35e7fac9a79164736f6c63430008110033",
  "immutableReferences": {},
  "source": "// SPDX-License-Identifier: MIT\r\npragma solidity ^0.8.0;\r\n\r\nimport \"@openzeppelin/contracts/token/ERC721/ERC721.sol\";\r\nimport \"@openzeppelin/contracts/token/ERC721/extensions/ERC721Enumerable.sol\";\r\nimport \"@openzeppelin/contracts/token/ERC721/extensions/ERC721URIStorage.sol\";\r\nimport \"@openzeppelin/contracts/security/Pausable.sol\";\r\nimport \"@openzeppelin/contracts/access/Ownable.sol\";\r\nimport \"@openzeppelin/contracts/token/ERC721/extensions/ERC721Burnable.sol\";\r\nimport \"@openzeppelin/contracts/utils/Counters.sol\";\r\n\r\ncontract RealEstateNFT is ERC721, ERC721Enumerable, ERC721URIStorage, Pausable, Ownable, ERC721Burnable {\r\n    using Counters for Counters.Counter;\r\n    \r\n    event NFTTokenCreated(uint256 tokenId, string tokenURI, address owner);\r\n    \r\n    Counters.Counter public _tokenIdCounter;\r\n    mapping(string  => uint256) public NFT;\r\n\r\n    constructor() ERC721(\"RealEstateNFT\", \"RNFT\") {}\r\n\r\n    function safeMint(address to) public onlyOwner {\r\n        _safeMint(to, _tokenIdCounter.current());\r\n        _tokenIdCounter.increment();\r\n    }\r\n\r\n    function pause() public onlyOwner {\r\n        _pause();\r\n    }\r\n\r\n    function unpause() public onlyOwner {\r\n        _unpause();\r\n    }\r\n\r\n    function _baseURI() internal pure override returns (string memory) {\r\n        return \"\";\r\n    }\r\n\r\n    function _beforeTokenTransfer(address from, address to, uint256 tokenId) internal whenNotPaused override(ERC721, ERC721Enumerable) {\r\n        super._beforeTokenTransfer(from, to, tokenId);\r\n    }\r\n\r\n    function _burn(uint256 tokenId) internal override(ERC721, ERC721URIStorage) {\r\n        super._burn(tokenId);\r\n    }\r\n\r\n    function tokenURI(uint256 tokenId) public view override(ERC721, ERC721URIStorage) returns (string memory) {\r\n        return super.tokenURI(tokenId);\r\n    }\r\n\r\n    function supportsInterface(bytes4 interfaceId) public view override(ERC721, ERC721Enumerable) returns (bool) {\r\n        return super.supportsInterface(interfaceId);\r\n    }\r\n\r\n    //is the caller of this function the owner of the NFT?\r\n\tmodifier isNFTOwner(uint256 _tokenURI) {\r\n\t\trequire(msg.sender == ownerOf(_tokenURI));\r\n\t\t_;\r\n\t}\r\n\r\n    function mint(address _to,string memory tokenURI_) external onlyOwner() {\r\n        _safeMint(_to, _tokenIdCounter.current());\r\n        _setTokenURI(_tokenIdCounter.current(), tokenURI_);\r\n        NFT[tokenURI_] = _tokenIdCounter.current();\r\n        _tokenIdCounter.increment();\r\n        emit NFTTokenCreated(_tokenIdCounter.current(), tokenURI_, _to);\r\n    }\r\n}\r\n",
  "sourcePath": "/home/shubham/Desktop/Real-Estate-FNFT/blockchain/contracts/RealEstateNFT.sol",
  "compiler": {
    "name": "solc",
    "version": "0.8.17+commit.8df45f5f.Emscripten.clang"
  },
  "schemaVersion": "3.4.9",
  "updatedAt": "2022-09-17T15:19:53.432Z",
  "devdoc": {
    "kind": "dev",
    "methods": {
      "approve(address,uint256)": {
        "details": "See {IERC721-approve}."
      },
      "balanceOf(address)": {
        "details": "See {IERC721-balanceOf}."
      },
      "burn(uint256)": {
        "details": "Burns `tokenId`. See {ERC721-_burn}. Requirements: - The caller must own `tokenId` or be an approved operator."
      },
      "getApproved(uint256)": {
        "details": "See {IERC721-getApproved}."
      },
      "isApprovedForAll(address,address)": {
        "details": "See {IERC721-isApprovedForAll}."
      },
      "name()": {
        "details": "See {IERC721Metadata-name}."
      },
      "owner()": {
        "details": "Returns the address of the current owner."
      },
      "ownerOf(uint256)": {
        "details": "See {IERC721-ownerOf}."
      },
      "paused()": {
        "details": "Returns true if the contract is paused, and false otherwise."
      },
      "renounceOwnership()": {
        "details": "Leaves the contract without owner. It will not be possible to call `onlyOwner` functions anymore. Can only be called by the current owner. NOTE: Renouncing ownership will leave the contract without an owner, thereby removing any functionality that is only available to the owner."
      },
      "safeTransferFrom(address,address,uint256)": {
        "details": "See {IERC721-safeTransferFrom}."
      },
      "safeTransferFrom(address,address,uint256,bytes)": {
        "details": "See {IERC721-safeTransferFrom}."
      },
      "setApprovalForAll(address,bool)": {
        "details": "See {IERC721-setApprovalForAll}."
      },
      "symbol()": {
        "details": "See {IERC721Metadata-symbol}."
      },
      "tokenByIndex(uint256)": {
        "details": "See {IERC721Enumerable-tokenByIndex}."
      },
      "tokenOfOwnerByIndex(address,uint256)": {
        "details": "See {IERC721Enumerable-tokenOfOwnerByIndex}."
      },
      "totalSupply()": {
        "details": "See {IERC721Enumerable-totalSupply}."
      },
      "transferFrom(address,address,uint256)": {
        "details": "See {IERC721-transferFrom}."
      },
      "transferOwnership(address)": {
        "details": "Transfers ownership of the contract to a new account (`newOwner`). Can only be called by the current owner."
      }
    },
    "version": 1
  },
  "userdoc": {
    "kind": "user",
    "methods": {},
    "version": 1
  }
}