{
  "_format": "hh-sol-artifact-1",
  "contractName": "FractionalClaim",
  "sourceName": "contracts/FractionalClaim.sol",
  "abi": [
    {
      "inputs": [
        {
          "internalType": "address",
          "name": "_nftAddress",
          "type": "address"
        },
        {
          "internalType": "uint256",
          "name": "_tokenID",
          "type": "uint256"
        }
      ],
      "stateMutability": "nonpayable",
      "type": "constructor"
    },
    {
      "anonymous": false,
      "inputs": [],
      "name": "funded",
      "type": "event"
    },
    {
      "inputs": [
        {
          "internalType": "address",
          "name": "_token",
          "type": "address"
        },
        {
          "internalType": "uint256",
          "name": "_amount",
          "type": "uint256"
        }
      ],
      "name": "claim",
      "outputs": [],
      "stateMutability": "payable",
      "type": "function"
    },
    {
      "inputs": [],
      "name": "claimState",
      "outputs": [
        {
          "internalType": "enum FractionalClaim.ClaimState",
          "name": "",
          "type": "uint8"
        }
      ],
      "stateMutability": "view",
      "type": "function"
    },
    {
      "inputs": [
        {
          "internalType": "address",
          "name": "_token",
          "type": "address"
        }
      ],
      "name": "fund",
      "outputs": [],
      "stateMutability": "payable",
      "type": "function"
    },
    {
      "inputs": [],
      "name": "funds",
      "outputs": [
        {
          "internalType": "uint256",
          "name": "",
          "type": "uint256"
        }
      ],
      "stateMutability": "view",
      "type": "function"
    },
    {
      "inputs": [],
      "name": "nftAddress",
      "outputs": [
        {
          "internalType": "address",
          "name": "",
          "type": "address"
        }
      ],
      "stateMutability": "view",
      "type": "function"
    },
    {
      "inputs": [],
      "name": "ownerAddress",
      "outputs": [
        {
          "internalType": "address payable",
          "name": "",
          "type": "address"
        }
      ],
      "stateMutability": "view",
      "type": "function"
    },
    {
      "inputs": [],
      "name": "supply",
      "outputs": [
        {
          "internalType": "uint256",
          "name": "",
          "type": "uint256"
        }
      ],
      "stateMutability": "view",
      "type": "function"
    },
    {
      "inputs": [],
      "name": "tokenAddress",
      "outputs": [
        {
          "internalType": "address",
          "name": "",
          "type": "address"
        }
      ],
      "stateMutability": "view",
      "type": "function"
    }
  ],
  "bytecode": "0x60806040523480156200001157600080fd5b5060405162000d6838038062000d6883398181016040528101906200003791906200021b565b8133828173ffffffffffffffffffffffffffffffffffffffff168373ffffffffffffffffffffffffffffffffffffffff16636352211e836040518263ffffffff1660e01b81526004016200008c919062000273565b60206040518083038186803b158015620000a557600080fd5b505afa158015620000ba573d6000803e3d6000fd5b505050506040513d601f19601f82011682018060405250810190620000e09190620001e9565b73ffffffffffffffffffffffffffffffffffffffff16146200010157600080fd5b84600160006101000a81548173ffffffffffffffffffffffffffffffffffffffff021916908373ffffffffffffffffffffffffffffffffffffffff160217905550336000806101000a81548173ffffffffffffffffffffffffffffffffffffffff021916908373ffffffffffffffffffffffffffffffffffffffff1602179055506000600260146101000a81548160ff02191690836002811115620001ab57620001aa620002ce565b5b0217905550505050505062000336565b600081519050620001cc8162000302565b92915050565b600081519050620001e3816200031c565b92915050565b600060208284031215620002025762000201620002fd565b5b60006200021284828501620001bb565b91505092915050565b60008060408385031215620002355762000234620002fd565b5b60006200024585828601620001bb565b92505060206200025885828601620001d2565b9150509250929050565b6200026d81620002c4565b82525050565b60006020820190506200028a600083018462000262565b92915050565b60006200029d82620002a4565b9050919050565b600073ffffffffffffffffffffffffffffffffffffffff82169050919050565b6000819050919050565b7f4e487b7100000000000000000000000000000000000000000000000000000000600052602160045260246000fd5b600080fd5b6200030d8162000290565b81146200031957600080fd5b50565b6200032781620002c4565b81146200033357600080fd5b50565b610a2280620003466000396000f3fe60806040526004361061007b5760003560e01c80639a7258091161004e5780639a7258091461011d5780639d76ea5814610148578063aad3ec9614610173578063c89f2ce41461018f5761007b565b8063047fc9aa1461008057806323024408146100ab5780635bf8633a146100c75780638f84aa09146100f2575b600080fd5b34801561008c57600080fd5b506100956101ba565b6040516100a29190610865565b60405180910390f35b6100c560048036038101906100c091906106da565b6101c0565b005b3480156100d357600080fd5b506100dc610380565b6040516100e991906107dd565b60405180910390f35b3480156100fe57600080fd5b506101076103a6565b60405161011491906107f8565b60405180910390f35b34801561012957600080fd5b506101326103ca565b60405161013f919061084a565b60405180910390f35b34801561015457600080fd5b5061015d6103dd565b60405161016a91906107dd565b60405180910390f35b61018d60048036038101906101889190610707565b610403565b005b34801561019b57600080fd5b506101a461066a565b6040516101b19190610865565b60405180910390f35b60045481565b60008060028111156101d5576101d461095f565b5b600260149054906101000a900460ff1660028111156101f7576101f661095f565b5b1461020157600080fd5b60008054906101000a900473ffffffffffffffffffffffffffffffffffffffff1673ffffffffffffffffffffffffffffffffffffffff163373ffffffffffffffffffffffffffffffffffffffff161461025957600080fd5b3460038190555081600260006101000a81548173ffffffffffffffffffffffffffffffffffffffff021916908373ffffffffffffffffffffffffffffffffffffffff1602179055506001600260146101000a81548160ff021916908360028111156102c7576102c661095f565b5b02179055508173ffffffffffffffffffffffffffffffffffffffff166318160ddd6040518163ffffffff1660e01b815260040160206040518083038186803b15801561031257600080fd5b505afa158015610326573d6000803e3d6000fd5b505050506040513d601f19601f8201168201806040525081019061034a9190610774565b6004819055507ff3a504f28a34fdf555994a3bdfd3dc29f822e8684a9ef01001afb738cc3cdd0a60405160405180910390a15050565b600160009054906101000a900473ffffffffffffffffffffffffffffffffffffffff1681565b60008054906101000a900473ffffffffffffffffffffffffffffffffffffffff1681565b600260149054906101000a900460ff1681565b600260009054906101000a900473ffffffffffffffffffffffffffffffffffffffff1681565b81600260009054906101000a900473ffffffffffffffffffffffffffffffffffffffff1673ffffffffffffffffffffffffffffffffffffffff168173ffffffffffffffffffffffffffffffffffffffff161461045e57600080fd5b8273ffffffffffffffffffffffffffffffffffffffff166323b872dd3330856040518463ffffffff1660e01b815260040161049b93929190610813565b602060405180830381600087803b1580156104b557600080fd5b505af11580156104c9573d6000803e3d6000fd5b505050506040513d601f19601f820116820180604052508101906104ed9190610747565b508273ffffffffffffffffffffffffffffffffffffffff166342966c68836040518263ffffffff1660e01b81526004016105279190610865565b600060405180830381600087803b15801561054157600080fd5b505af1158015610555573d6000803e3d6000fd5b505050503373ffffffffffffffffffffffffffffffffffffffff166108fc6105886004548561067090919063ffffffff16565b9081150290604051600060405180830381858888f193505050501580156105b3573d6000803e3d6000fd5b5060008373ffffffffffffffffffffffffffffffffffffffff166318160ddd6040518163ffffffff1660e01b815260040160206040518083038186803b1580156105fc57600080fd5b505afa158015610610573d6000803e3d6000fd5b505050506040513d601f19601f820116820180604052508101906106349190610774565b14156106655760028060146101000a81548160ff0219169083600281111561065f5761065e61095f565b5b02179055505b505050565b60035481565b6000818361067e9190610880565b905092915050565b600081359050610695816109a7565b92915050565b6000815190506106aa816109be565b92915050565b6000813590506106bf816109d5565b92915050565b6000815190506106d4816109d5565b92915050565b6000602082840312156106f0576106ef61098e565b5b60006106fe84828501610686565b91505092915050565b6000806040838503121561071e5761071d61098e565b5b600061072c85828601610686565b925050602061073d858286016106b0565b9150509250929050565b60006020828403121561075d5761075c61098e565b5b600061076b8482850161069b565b91505092915050565b60006020828403121561078a5761078961098e565b5b6000610798848285016106c5565b91505092915050565b6107aa816108c3565b82525050565b6107b9816108b1565b82525050565b6107c88161091e565b82525050565b6107d781610914565b82525050565b60006020820190506107f260008301846107b0565b92915050565b600060208201905061080d60008301846107a1565b92915050565b600060608201905061082860008301866107b0565b61083560208301856107b0565b61084260408301846107ce565b949350505050565b600060208201905061085f60008301846107bf565b92915050565b600060208201905061087a60008301846107ce565b92915050565b600061088b82610914565b915061089683610914565b9250826108a6576108a5610930565b5b828204905092915050565b60006108bc826108f4565b9050919050565b60006108ce826108f4565b9050919050565b60008115159050919050565b60008190506108ef82610993565b919050565b600073ffffffffffffffffffffffffffffffffffffffff82169050919050565b6000819050919050565b6000610929826108e1565b9050919050565b7f4e487b7100000000000000000000000000000000000000000000000000000000600052601260045260246000fd5b7f4e487b7100000000000000000000000000000000000000000000000000000000600052602160045260246000fd5b600080fd5b600381106109a4576109a361095f565b5b50565b6109b0816108b1565b81146109bb57600080fd5b50565b6109c7816108d5565b81146109d257600080fd5b50565b6109de81610914565b81146109e957600080fd5b5056fea264697066735822122032ecec64db00c75a3798c9343c661120c07a5eaaf268416d1329ed98211671b664736f6c63430008070033",
  "linkReferences": {},
  "deployedLinkReferences": {}
}