{
  "contractName": "FractionalNFT",
  "abi": [
    {
      "inputs": [],
      "stateMutability": "nonpayable",
      "type": "constructor"
    },
    {
      "anonymous": false,
      "inputs": [
        {
          "indexed": true,
          "internalType": "address",
          "name": "owner",
          "type": "address"
        },
        {
          "indexed": true,
          "internalType": "address",
          "name": "approved",
          "type": "address"
        },
        {
          "indexed": true,
          "internalType": "uint256",
          "name": "tokenId",
          "type": "uint256"
        }
      ],
      "name": "Approval",
      "type": "event"
    },
    {
      "anonymous": false,
      "inputs": [
        {
          "indexed": true,
          "internalType": "address",
          "name": "owner",
          "type": "address"
        },
        {
          "indexed": true,
          "internalType": "address",
          "name": "operator",
          "type": "address"
        },
        {
          "indexed": false,
          "internalType": "bool",
          "name": "approved",
          "type": "bool"
        }
      ],
      "name": "ApprovalForAll",
      "type": "event"
    },
    {
      "anonymous": false,
      "inputs": [
        {
          "indexed": true,
          "internalType": "address",
          "name": "previousOwner",
          "type": "address"
        },
        {
          "indexed": true,
          "internalType": "address",
          "name": "newOwner",
          "type": "address"
        }
      ],
      "name": "OwnershipTransferred",
      "type": "event"
    },
    {
      "anonymous": false,
      "inputs": [
        {
          "indexed": false,
          "internalType": "address",
          "name": "account",
          "type": "address"
        }
      ],
      "name": "Paused",
      "type": "event"
    },
    {
      "anonymous": false,
      "inputs": [
        {
          "indexed": true,
          "internalType": "address",
          "name": "from",
          "type": "address"
        },
        {
          "indexed": true,
          "internalType": "address",
          "name": "to",
          "type": "address"
        },
        {
          "indexed": true,
          "internalType": "uint256",
          "name": "tokenId",
          "type": "uint256"
        }
      ],
      "name": "Transfer",
      "type": "event"
    },
    {
      "anonymous": false,
      "inputs": [
        {
          "indexed": false,
          "internalType": "address",
          "name": "account",
          "type": "address"
        }
      ],
      "name": "Unpaused",
      "type": "event"
    },
    {
      "inputs": [
        {
          "internalType": "uint256",
          "name": "",
          "type": "uint256"
        }
      ],
      "name": "FNFT",
      "outputs": [
        {
          "internalType": "uint256",
          "name": "tokenId",
          "type": "uint256"
        },
        {
          "internalType": "address",
          "name": "fractionalToken",
          "type": "address"
        }
      ],
      "stateMutability": "view",
      "type": "function"
    },
    {
      "inputs": [
        {
          "internalType": "address",
          "name": "to",
          "type": "address"
        },
        {
          "internalType": "uint256",
          "name": "tokenId",
          "type": "uint256"
        }
      ],
      "name": "approve",
      "outputs": [],
      "stateMutability": "nonpayable",
      "type": "function"
    },
    {
      "inputs": [
        {
          "internalType": "address",
          "name": "owner",
          "type": "address"
        }
      ],
      "name": "balanceOf",
      "outputs": [
        {
          "internalType": "uint256",
          "name": "",
          "type": "uint256"
        }
      ],
      "stateMutability": "view",
      "type": "function"
    },
    {
      "inputs": [
        {
          "internalType": "uint256",
          "name": "tokenId",
          "type": "uint256"
        }
      ],
      "name": "burn",
      "outputs": [],
      "stateMutability": "nonpayable",
      "type": "function"
    },
    {
      "inputs": [
        {
          "internalType": "uint256",
          "name": "tokenId",
          "type": "uint256"
        }
      ],
      "name": "getApproved",
      "outputs": [
        {
          "internalType": "address",
          "name": "",
          "type": "address"
        }
      ],
      "stateMutability": "view",
      "type": "function"
    },
    {
      "inputs": [
        {
          "internalType": "address",
          "name": "owner",
          "type": "address"
        },
        {
          "internalType": "address",
          "name": "operator",
          "type": "address"
        }
      ],
      "name": "isApprovedForAll",
      "outputs": [
        {
          "internalType": "bool",
          "name": "",
          "type": "bool"
        }
      ],
      "stateMutability": "view",
      "type": "function"
    },
    {
      "inputs": [],
      "name": "name",
      "outputs": [
        {
          "internalType": "string",
          "name": "",
          "type": "string"
        }
      ],
      "stateMutability": "view",
      "type": "function"
    },
    {
      "inputs": [],
      "name": "owner",
      "outputs": [
        {
          "internalType": "address",
          "name": "",
          "type": "address"
        }
      ],
      "stateMutability": "view",
      "type": "function"
    },
    {
      "inputs": [
        {
          "internalType": "uint256",
          "name": "tokenId",
          "type": "uint256"
        }
      ],
      "name": "ownerOf",
      "outputs": [
        {
          "internalType": "address",
          "name": "",
          "type": "address"
        }
      ],
      "stateMutability": "view",
      "type": "function"
    },
    {
      "inputs": [],
      "name": "paused",
      "outputs": [
        {
          "internalType": "bool",
          "name": "",
          "type": "bool"
        }
      ],
      "stateMutability": "view",
      "type": "function"
    },
    {
      "inputs": [],
      "name": "renounceOwnership",
      "outputs": [],
      "stateMutability": "nonpayable",
      "type": "function"
    },
    {
      "inputs": [
        {
          "internalType": "address",
          "name": "from",
          "type": "address"
        },
        {
          "internalType": "address",
          "name": "to",
          "type": "address"
        },
        {
          "internalType": "uint256",
          "name": "tokenId",
          "type": "uint256"
        }
      ],
      "name": "safeTransferFrom",
      "outputs": [],
      "stateMutability": "nonpayable",
      "type": "function"
    },
    {
      "inputs": [
        {
          "internalType": "address",
          "name": "from",
          "type": "address"
        },
        {
          "internalType": "address",
          "name": "to",
          "type": "address"
        },
        {
          "internalType": "uint256",
          "name": "tokenId",
          "type": "uint256"
        },
        {
          "internalType": "bytes",
          "name": "data",
          "type": "bytes"
        }
      ],
      "name": "safeTransferFrom",
      "outputs": [],
      "stateMutability": "nonpayable",
      "type": "function"
    },
    {
      "inputs": [
        {
          "internalType": "address",
          "name": "operator",
          "type": "address"
        },
        {
          "internalType": "bool",
          "name": "approved",
          "type": "bool"
        }
      ],
      "name": "setApprovalForAll",
      "outputs": [],
      "stateMutability": "nonpayable",
      "type": "function"
    },
    {
      "inputs": [],
      "name": "symbol",
      "outputs": [
        {
          "internalType": "string",
          "name": "",
          "type": "string"
        }
      ],
      "stateMutability": "view",
      "type": "function"
    },
    {
      "inputs": [
        {
          "internalType": "uint256",
          "name": "index",
          "type": "uint256"
        }
      ],
      "name": "tokenByIndex",
      "outputs": [
        {
          "internalType": "uint256",
          "name": "",
          "type": "uint256"
        }
      ],
      "stateMutability": "view",
      "type": "function"
    },
    {
      "inputs": [
        {
          "internalType": "address",
          "name": "owner",
          "type": "address"
        },
        {
          "internalType": "uint256",
          "name": "index",
          "type": "uint256"
        }
      ],
      "name": "tokenOfOwnerByIndex",
      "outputs": [
        {
          "internalType": "uint256",
          "name": "",
          "type": "uint256"
        }
      ],
      "stateMutability": "view",
      "type": "function"
    },
    {
      "inputs": [],
      "name": "totalSupply",
      "outputs": [
        {
          "internalType": "uint256",
          "name": "",
          "type": "uint256"
        }
      ],
      "stateMutability": "view",
      "type": "function"
    },
    {
      "inputs": [
        {
          "internalType": "address",
          "name": "from",
          "type": "address"
        },
        {
          "internalType": "address",
          "name": "to",
          "type": "address"
        },
        {
          "internalType": "uint256",
          "name": "tokenId",
          "type": "uint256"
        }
      ],
      "name": "transferFrom",
      "outputs": [],
      "stateMutability": "nonpayable",
      "type": "function"
    },
    {
      "inputs": [
        {
          "internalType": "address",
          "name": "newOwner",
          "type": "address"
        }
      ],
      "name": "transferOwnership",
      "outputs": [],
      "stateMutability": "nonpayable",
      "type": "function"
    },
    {
      "inputs": [
        {
          "internalType": "uint256",
          "name": "tokenId",
          "type": "uint256"
        }
      ],
      "name": "tokenURI",
      "outputs": [
        {
          "internalType": "string",
          "name": "",
          "type": "string"
        }
      ],
      "stateMutability": "view",
      "type": "function"
    },
    {
      "inputs": [
        {
          "internalType": "bytes4",
          "name": "interfaceId",
          "type": "bytes4"
        }
      ],
      "name": "supportsInterface",
      "outputs": [
        {
          "internalType": "bool",
          "name": "",
          "type": "bool"
        }
      ],
      "stateMutability": "view",
      "type": "function"
    },
    {
      "inputs": [
        {
          "internalType": "address",
          "name": "_to",
          "type": "address"
        },
        {
          "internalType": "string",
          "name": "tokenURI_",
          "type": "string"
        },
        {
          "internalType": "uint256",
          "name": "_totalFractionalTokens",
          "type": "uint256"
        }
      ],
      "name": "mint",
      "outputs": [],
      "stateMutability": "nonpayable",
      "type": "function"
    }
  ],
  "bytecode": "0x60806040523480156200001157600080fd5b506040518060400160405280600d81526020016c119c9858dd1a5bdb985b139195609a1b815250604051806040016040528060048152602001631193919560e21b815250816000908162000066919062000192565b50600162000075828262000192565b5050600b805460ff19169055506200008d3362000093565b6200025e565b600b80546001600160a01b03838116610100818102610100600160a81b031985161790945560405193909204169182907f8be0079c531659141344cd1fd0a4f28419497f9722a3daafe3b4186f6b6457e090600090a35050565b634e487b7160e01b600052604160045260246000fd5b600181811c908216806200011857607f821691505b6020821081036200013957634e487b7160e01b600052602260045260246000fd5b50919050565b601f8211156200018d57600081815260208120601f850160051c81016020861015620001685750805b601f850160051c820191505b81811015620001895782815560010162000174565b5050505b505050565b81516001600160401b03811115620001ae57620001ae620000ed565b620001c681620001bf845462000103565b846200013f565b602080601f831160018114620001fe5760008415620001e55750858301515b600019600386901b1c1916600185901b17855562000189565b600085815260208120601f198616915b828110156200022f578886015182559484019460019091019084016200020e565b50858210156200024e5787850151600019600388901b60f8161c191681555b5050505050600190811b01905550565b6130eb806200026e6000396000f3fe60806040523480156200001157600080fd5b5060043610620001695760003560e01c80636352211e11620000d3578063adc4b8f51162000086578063adc4b8f514620002fe578063b88d4fde146200034f578063ba7aef431462000366578063c87b56dd146200037d578063e985e9c51462000394578063f2fde38b14620003d357600080fd5b80636352211e146200028e57806370a0823114620002a5578063715018a614620002bc5780638da5cb5b14620002c657806395d89b4114620002dd578063a22cb46514620002e757600080fd5b806323b872dd116200012c57806323b872dd146200020f5780632f745c59146200022657806342842e0e146200023d57806342966c6814620002545780634f6ccce7146200026b5780635c975abb146200028257600080fd5b806301ffc9a7146200016e57806306fdde03146200019a578063081812fc14620001b3578063095ea7b314620001e357806318160ddd14620001fc575b600080fd5b620001856200017f36600462001a6c565b620003ea565b60405190151581526020015b60405180910390f35b620001a4620003fd565b60405162000191919062001ae9565b620001ca620001c436600462001afe565b62000497565b6040516001600160a01b03909116815260200162000191565b620001fa620001f436600462001b35565b620004c0565b005b6008545b60405190815260200162000191565b620001fa6200022036600462001b62565b620005e4565b620002006200023736600462001b35565b6200061d565b620001fa6200024e36600462001b62565b620006b7565b620001fa6200026536600462001afe565b620006d4565b620002006200027c36600462001afe565b6200070c565b600b5460ff1662000185565b620001ca6200029f36600462001afe565b620007a5565b62000200620002b636600462001ba3565b62000807565b620001fa6200088f565b600b5461010090046001600160a01b0316620001ca565b620001a4620008a7565b620001fa620002f836600462001bc1565b620008b8565b620003316200030f36600462001afe565b600d60205260009081526040902080546001909101546001600160a01b031682565b604080519283526001600160a01b0390911660208301520162000191565b620001fa6200036036600462001c94565b620008c9565b620001fa6200037736600462001d19565b62000908565b620001a46200038e36600462001afe565b62000a58565b62000185620003a536600462001d8b565b6001600160a01b03918216600090815260056020908152604080832093909416825291909152205460ff1690565b620001fa620003e436600462001ba3565b62000a65565b6000620003f78262000ae1565b92915050565b6060600080546200040e9062001dc3565b80601f01602080910402602001604051908101604052809291908181526020018280546200043c9062001dc3565b80156200048d5780601f1062000461576101008083540402835291602001916200048d565b820191906000526020600020905b8154815290600101906020018083116200046f57829003601f168201915b5050505050905090565b6000620004a48262000b09565b506000908152600460205260409020546001600160a01b031690565b6000620004cd82620007a5565b9050806001600160a01b0316836001600160a01b031603620005405760405162461bcd60e51b815260206004820152602160248201527f4552433732313a20617070726f76616c20746f2063757272656e74206f776e656044820152603960f91b60648201526084015b60405180910390fd5b336001600160a01b03821614806200055f57506200055f8133620003a5565b620005d35760405162461bcd60e51b815260206004820152603e60248201527f4552433732313a20617070726f76652063616c6c6572206973206e6f7420746f60448201527f6b656e206f776e6572206e6f7220617070726f76656420666f7220616c6c0000606482015260840162000537565b620005df838362000b6a565b505050565b620005f1335b8262000bda565b620006105760405162461bcd60e51b8152600401620005379062001dff565b620005df83838362000c5f565b60006200062a8362000807565b82106200068e5760405162461bcd60e51b815260206004820152602b60248201527f455243373231456e756d657261626c653a206f776e657220696e646578206f7560448201526a74206f6620626f756e647360a81b606482015260840162000537565b506001600160a01b03919091166000908152600660209081526040808320938352929052205490565b620005df83838360405180602001604052806000815250620008c9565b620006df33620005ea565b620006fe5760405162461bcd60e51b8152600401620005379062001dff565b620007098162000e14565b50565b60006200071860085490565b82106200077d5760405162461bcd60e51b815260206004820152602c60248201527f455243373231456e756d657261626c653a20676c6f62616c20696e646578206f60448201526b7574206f6620626f756e647360a01b606482015260840162000537565b6008828154811062000793576200079362001e4d565b90600052602060002001549050919050565b6000818152600260205260408120546001600160a01b031680620003f75760405162461bcd60e51b8152602060048201526018602482015277115490cdcc8c4e881a5b9d985b1a59081d1bdad95b88125160421b604482015260640162000537565b60006001600160a01b038216620008735760405162461bcd60e51b815260206004820152602960248201527f4552433732313a2061646472657373207a65726f206973206e6f7420612076616044820152683634b21037bbb732b960b91b606482015260840162000537565b506001600160a01b031660009081526003602052604090205490565b6200089962000e1f565b620008a5600062000e81565b565b6060600180546200040e9062001dc3565b620008c533838362000edb565b5050565b620008d5338362000bda565b620008f45760405162461bcd60e51b8152600401620005379062001dff565b620009028484848462000fab565b50505050565b6200091262000e1f565b620009278362000921600c5490565b62000fe5565b6200093c62000935600c5490565b8362001001565b60006040516200094c90620019f3565b604051809103906000f08015801562000969573d6000803e3d6000fd5b506040516340c10f1960e01b8152336004820152602481018490529091506001600160a01b038216906340c10f1990604401600060405180830381600087803b158015620009b657600080fd5b505af1158015620009cb573d6000803e3d6000fd5b505060408051808201909152600080825260208201529150620009eb9050565b600c5481526001600160a01b038216602082015280600d600062000a0e600c5490565b815260208082019290925260400160002082518155910151600191820180546001600160a01b0319166001600160a01b03909216919091179055600c805490910190555050505050565b6060620003f78262001098565b62000a6f62000e1f565b6001600160a01b03811662000ad65760405162461bcd60e51b815260206004820152602660248201527f4f776e61626c653a206e6577206f776e657220697320746865207a65726f206160448201526564647265737360d01b606482015260840162000537565b620007098162000e81565b60006001600160e01b0319821663780e9d6360e01b1480620003f75750620003f782620011b1565b6000818152600260205260409020546001600160a01b0316620007095760405162461bcd60e51b8152602060048201526018602482015277115490cdcc8c4e881a5b9d985b1a59081d1bdad95b88125160421b604482015260640162000537565b600081815260046020526040902080546001600160a01b0319166001600160a01b038416908117909155819062000ba182620007a5565b6001600160a01b03167f8c5be1e5ebec7d5bd14f71427d1e84f3dd0314c0f7b2291e5b200ac8c7c3b92560405160405180910390a45050565b60008062000be883620007a5565b9050806001600160a01b0316846001600160a01b0316148062000c3057506001600160a01b0380821660009081526005602090815260408083209388168352929052205460ff165b8062000c575750836001600160a01b031662000c4c8462000497565b6001600160a01b0316145b949350505050565b826001600160a01b031662000c7482620007a5565b6001600160a01b03161462000cda5760405162461bcd60e51b815260206004820152602560248201527f4552433732313a207472616e736665722066726f6d20696e636f72726563742060448201526437bbb732b960d91b606482015260840162000537565b6001600160a01b03821662000d3e5760405162461bcd60e51b8152602060048201526024808201527f4552433732313a207472616e7366657220746f20746865207a65726f206164646044820152637265737360e01b606482015260840162000537565b62000d4b83838362001204565b62000d5860008262000b6a565b6001600160a01b038316600090815260036020526040812080546001929062000d8390849062001e79565b90915550506001600160a01b038216600090815260036020526040812080546001929062000db390849062001e93565b909155505060008181526002602052604080822080546001600160a01b0319166001600160a01b0386811691821790925591518493918716917fddf252ad1be2c89b69c2b068fc378daa952ba7f163c4a11628f55a4df523b3ef91a4505050565b62000709816200121b565b600b546001600160a01b03610100909104163314620008a55760405162461bcd60e51b815260206004820181905260248201527f4f776e61626c653a2063616c6c6572206973206e6f7420746865206f776e6572604482015260640162000537565b600b80546001600160a01b03838116610100818102610100600160a81b031985161790945560405193909204169182907f8be0079c531659141344cd1fd0a4f28419497f9722a3daafe3b4186f6b6457e090600090a35050565b816001600160a01b0316836001600160a01b03160362000f3e5760405162461bcd60e51b815260206004820152601960248201527f4552433732313a20617070726f766520746f2063616c6c657200000000000000604482015260640162000537565b6001600160a01b03838116600081815260056020908152604080832094871680845294825291829020805460ff191686151590811790915591519182527f17307eab39ab6107e8899845ad3d59bd9653f200f220920489ca2b5937696c31910160405180910390a3505050565b62000fb884848462000c5f565b62000fc68484848462001262565b620009025760405162461bcd60e51b8152600401620005379062001eae565b620008c582826040518060200160405280600081525062001370565b6000828152600260205260409020546001600160a01b03166200107e5760405162461bcd60e51b815260206004820152602e60248201527f45524337323155524953746f726167653a2055524920736574206f66206e6f6e60448201526d32bc34b9ba32b73a103a37b5b2b760911b606482015260840162000537565b6000828152600a60205260409020620005df828262001f52565b6060620010a58262000b09565b6000828152600a602052604081208054620010c09062001dc3565b80601f0160208091040260200160405190810160405280929190818152602001828054620010ee9062001dc3565b80156200113f5780601f1062001113576101008083540402835291602001916200113f565b820191906000526020600020905b8154815290600101906020018083116200112157829003601f168201915b5050505050905060006200115e60408051602081019091526000815290565b9050805160000362001171575092915050565b815115620011a65780826040516020016200118e9291906200201f565b60405160208183030381529060405292505050919050565b62000c5784620013aa565b60006001600160e01b031982166380ac58cd60e01b1480620011e357506001600160e01b03198216635b5e139f60e01b145b80620003f757506301ffc9a760e01b6001600160e01b0319831614620003f7565b6200120e62001427565b620005df8383836200146f565b620012268162001533565b6000818152600a602052604090208054620012419062001dc3565b15905062000709576000818152600a60205260408120620007099162001a01565b60006001600160a01b0384163b156200136557604051630a85bd0160e11b81526001600160a01b0385169063150b7a0290620012a990339089908890889060040162002052565b6020604051808303816000875af1925050508015620012e7575060408051601f3d908101601f19168201909252620012e49181019062002091565b60015b6200134a573d80801562001318576040519150601f19603f3d011682016040523d82523d6000602084013e6200131d565b606091505b508051600003620013425760405162461bcd60e51b8152600401620005379062001eae565b805181602001fd5b6001600160e01b031916630a85bd0160e11b14905062000c57565b506001949350505050565b6200137c8383620015e2565b6200138b600084848462001262565b620005df5760405162461bcd60e51b8152600401620005379062001eae565b6060620013b78262000b09565b6000620013cf60408051602081019091526000815290565b90506000815111620013f1576040518060200160405280600081525062001420565b80620013fd8462001738565b604051602001620014109291906200201f565b6040516020818303038152906040525b9392505050565b600b5460ff1615620008a55760405162461bcd60e51b815260206004820152601060248201526f14185d5cd8589b194e881c185d5cd95960821b604482015260640162000537565b6001600160a01b038316620014cd57620014c781600880546000838152600960205260408120829055600182018355919091527ff3f7a9fe364faab93b216da50a3214154f22a0a2b415b23a84c8169e8b636ee30155565b620014f3565b816001600160a01b0316836001600160a01b031614620014f357620014f3838262001851565b6001600160a01b0382166200150d57620005df81620018f3565b826001600160a01b0316826001600160a01b031614620005df57620005df8282620019ad565b60006200154082620007a5565b9050620015508160008462001204565b6200155d60008362000b6a565b6001600160a01b03811660009081526003602052604081208054600192906200158890849062001e79565b909155505060008281526002602052604080822080546001600160a01b0319169055518391906001600160a01b038416907fddf252ad1be2c89b69c2b068fc378daa952ba7f163c4a11628f55a4df523b3ef908390a45050565b6001600160a01b0382166200163a5760405162461bcd60e51b815260206004820181905260248201527f4552433732313a206d696e7420746f20746865207a65726f2061646472657373604482015260640162000537565b6000818152600260205260409020546001600160a01b031615620016a15760405162461bcd60e51b815260206004820152601c60248201527f4552433732313a20746f6b656e20616c7265616479206d696e74656400000000604482015260640162000537565b620016af6000838362001204565b6001600160a01b0382166000908152600360205260408120805460019290620016da90849062001e93565b909155505060008181526002602052604080822080546001600160a01b0319166001600160a01b03861690811790915590518392907fddf252ad1be2c89b69c2b068fc378daa952ba7f163c4a11628f55a4df523b3ef908290a45050565b606081600003620017605750506040805180820190915260018152600360fc1b602082015290565b8160005b81156200179057806200177781620020b1565b9150620017889050600a83620020e3565b915062001764565b60008167ffffffffffffffff811115620017ae57620017ae62001c01565b6040519080825280601f01601f191660200182016040528015620017d9576020820181803683370190505b5090505b841562000c5757620017f160018362001e79565b915062001800600a86620020fa565b6200180d90603062001e93565b60f81b81838151811062001825576200182562001e4d565b60200101906001600160f81b031916908160001a90535062001849600a86620020e3565b9450620017dd565b60006001620018608462000807565b6200186c919062001e79565b600083815260076020526040902054909150808214620018c0576001600160a01b03841660009081526006602090815260408083208584528252808320548484528184208190558352600790915290208190555b5060009182526007602090815260408084208490556001600160a01b039094168352600681528383209183525290812055565b600854600090620019079060019062001e79565b6000838152600960205260408120546008805493945090928490811062001932576200193262001e4d565b90600052602060002001549050806008838154811062001956576200195662001e4d565b600091825260208083209091019290925582815260099091526040808220849055858252812055600880548062001991576200199162002111565b6001900381819060005260206000200160009055905550505050565b6000620019ba8362000807565b6001600160a01b039093166000908152600660209081526040808320868452825280832085905593825260079052919091209190915550565b610f8e806200212883390190565b50805462001a0f9062001dc3565b6000825580601f1062001a20575050565b601f0160209004906000526020600020908101906200070991905b8082111562001a51576000815560010162001a3b565b5090565b6001600160e01b0319811681146200070957600080fd5b60006020828403121562001a7f57600080fd5b8135620014208162001a55565b60005b8381101562001aa957818101518382015260200162001a8f565b83811115620009025750506000910152565b6000815180845262001ad581602086016020860162001a8c565b601f01601f19169290920160200192915050565b60208152600062001420602083018462001abb565b60006020828403121562001b1157600080fd5b5035919050565b80356001600160a01b038116811462001b3057600080fd5b919050565b6000806040838503121562001b4957600080fd5b62001b548362001b18565b946020939093013593505050565b60008060006060848603121562001b7857600080fd5b62001b838462001b18565b925062001b936020850162001b18565b9150604084013590509250925092565b60006020828403121562001bb657600080fd5b620014208262001b18565b6000806040838503121562001bd557600080fd5b62001be08362001b18565b91506020830135801515811462001bf657600080fd5b809150509250929050565b634e487b7160e01b600052604160045260246000fd5b600067ffffffffffffffff8084111562001c355762001c3562001c01565b604051601f8501601f19908116603f0116810190828211818310171562001c605762001c6062001c01565b8160405280935085815286868601111562001c7a57600080fd5b858560208301376000602087830101525050509392505050565b6000806000806080858703121562001cab57600080fd5b62001cb68562001b18565b935062001cc66020860162001b18565b925060408501359150606085013567ffffffffffffffff81111562001cea57600080fd5b8501601f8101871362001cfc57600080fd5b62001d0d8782356020840162001c17565b91505092959194509250565b60008060006060848603121562001d2f57600080fd5b62001d3a8462001b18565b9250602084013567ffffffffffffffff81111562001d5757600080fd5b8401601f8101861362001d6957600080fd5b62001d7a8682356020840162001c17565b925050604084013590509250925092565b6000806040838503121562001d9f57600080fd5b62001daa8362001b18565b915062001dba6020840162001b18565b90509250929050565b600181811c9082168062001dd857607f821691505b60208210810362001df957634e487b7160e01b600052602260045260246000fd5b50919050565b6020808252602e908201527f4552433732313a2063616c6c6572206973206e6f7420746f6b656e206f776e6560408201526d1c881b9bdc88185c1c1c9bdd995960921b606082015260800190565b634e487b7160e01b600052603260045260246000fd5b634e487b7160e01b600052601160045260246000fd5b60008282101562001e8e5762001e8e62001e63565b500390565b6000821982111562001ea95762001ea962001e63565b500190565b60208082526032908201527f4552433732313a207472616e7366657220746f206e6f6e20455243373231526560408201527131b2b4bb32b91034b6b83632b6b2b73a32b960711b606082015260800190565b601f821115620005df57600081815260208120601f850160051c8101602086101562001f295750805b601f850160051c820191505b8181101562001f4a5782815560010162001f35565b505050505050565b815167ffffffffffffffff81111562001f6f5762001f6f62001c01565b62001f878162001f80845462001dc3565b8462001f00565b602080601f83116001811462001fbf576000841562001fa65750858301515b600019600386901b1c1916600185901b17855562001f4a565b600085815260208120601f198616915b8281101562001ff05788860151825594840194600190910190840162001fcf565b50858210156200200f5787850151600019600388901b60f8161c191681555b5050505050600190811b01905550565b600083516200203381846020880162001a8c565b8351908301906200204981836020880162001a8c565b01949350505050565b6001600160a01b0385811682528416602082015260408101839052608060608201819052600090620020879083018462001abb565b9695505050505050565b600060208284031215620020a457600080fd5b8151620014208162001a55565b600060018201620020c657620020c662001e63565b5060010190565b634e487b7160e01b600052601260045260246000fd5b600082620020f557620020f5620020cd565b500490565b6000826200210c576200210c620020cd565b500690565b634e487b7160e01b600052603160045260246000fdfe60806040523480156200001157600080fd5b50604051806040016040528060088152602001672327232a37b5b2b760c11b8152506040518060400160405280600381526020016211939560ea1b81525081600390816200006091906200018d565b5060046200006f82826200018d565b5050506200008c620000866200009260201b60201c565b62000096565b62000259565b3390565b600580546001600160a01b038381166001600160a01b0319831681179093556040519116919082907f8be0079c531659141344cd1fd0a4f28419497f9722a3daafe3b4186f6b6457e090600090a35050565b634e487b7160e01b600052604160045260246000fd5b600181811c908216806200011357607f821691505b6020821081036200013457634e487b7160e01b600052602260045260246000fd5b50919050565b601f8211156200018857600081815260208120601f850160051c81016020861015620001635750805b601f850160051c820191505b8181101562000184578281556001016200016f565b5050505b505050565b81516001600160401b03811115620001a957620001a9620000e8565b620001c181620001ba8454620000fe565b846200013a565b602080601f831160018114620001f95760008415620001e05750858301515b600019600386901b1c1916600185901b17855562000184565b600085815260208120601f198616915b828110156200022a5788860151825594840194600190910190840162000209565b5085821015620002495787850151600019600388901b60f8161c191681555b5050505050600190811b01905550565b610d2580620002696000396000f3fe608060405234801561001057600080fd5b506004361061010b5760003560e01c806370a08231116100a257806395d89b411161007157806395d89b411461021f578063a457c2d714610227578063a9059cbb1461023a578063dd62ed3e1461024d578063f2fde38b1461026057600080fd5b806370a08231146101c0578063715018a6146101e957806379cc6790146101f15780638da5cb5b1461020457600080fd5b8063313ce567116100de578063313ce56714610176578063395093511461018557806340c10f191461019857806342966c68146101ad57600080fd5b806306fdde0314610110578063095ea7b31461012e57806318160ddd1461015157806323b872dd14610163575b600080fd5b610118610273565b6040516101259190610b2b565b60405180910390f35b61014161013c366004610b9c565b610305565b6040519015158152602001610125565b6002545b604051908152602001610125565b610141610171366004610bc6565b61031d565b60405160128152602001610125565b610141610193366004610b9c565b610341565b6101ab6101a6366004610b9c565b610363565b005b6101ab6101bb366004610c02565b610379565b6101556101ce366004610c1b565b6001600160a01b031660009081526020819052604090205490565b6101ab610386565b6101ab6101ff366004610b9c565b61039a565b6005546040516001600160a01b039091168152602001610125565b6101186103af565b610141610235366004610b9c565b6103be565b610141610248366004610b9c565b61043e565b61015561025b366004610c3d565b61044c565b6101ab61026e366004610c1b565b610477565b60606003805461028290610c70565b80601f01602080910402602001604051908101604052809291908181526020018280546102ae90610c70565b80156102fb5780601f106102d0576101008083540402835291602001916102fb565b820191906000526020600020905b8154815290600101906020018083116102de57829003601f168201915b5050505050905090565b6000336103138185856104ed565b5060019392505050565b60003361032b858285610612565b61033685858561068c565b506001949350505050565b600033610313818585610354838361044c565b61035e9190610cc0565b6104ed565b61036b61085a565b61037582826108b4565b5050565b6103833382610993565b50565b61038e61085a565b6103986000610ad9565b565b6103a5823383610612565b6103758282610993565b60606004805461028290610c70565b600033816103cc828661044c565b9050838110156104315760405162461bcd60e51b815260206004820152602560248201527f45524332303a2064656372656173656420616c6c6f77616e63652062656c6f77604482015264207a65726f60d81b60648201526084015b60405180910390fd5b61033682868684036104ed565b60003361031381858561068c565b6001600160a01b03918216600090815260016020908152604080832093909416825291909152205490565b61047f61085a565b6001600160a01b0381166104e45760405162461bcd60e51b815260206004820152602660248201527f4f776e61626c653a206e6577206f776e657220697320746865207a65726f206160448201526564647265737360d01b6064820152608401610428565b61038381610ad9565b6001600160a01b03831661054f5760405162461bcd60e51b8152602060048201526024808201527f45524332303a20617070726f76652066726f6d20746865207a65726f206164646044820152637265737360e01b6064820152608401610428565b6001600160a01b0382166105b05760405162461bcd60e51b815260206004820152602260248201527f45524332303a20617070726f766520746f20746865207a65726f206164647265604482015261737360f01b6064820152608401610428565b6001600160a01b0383811660008181526001602090815260408083209487168084529482529182902085905590518481527f8c5be1e5ebec7d5bd14f71427d1e84f3dd0314c0f7b2291e5b200ac8c7c3b92591015b60405180910390a3505050565b600061061e848461044c565b9050600019811461068657818110156106795760405162461bcd60e51b815260206004820152601d60248201527f45524332303a20696e73756666696369656e7420616c6c6f77616e63650000006044820152606401610428565b61068684848484036104ed565b50505050565b6001600160a01b0383166106f05760405162461bcd60e51b815260206004820152602560248201527f45524332303a207472616e736665722066726f6d20746865207a65726f206164604482015264647265737360d81b6064820152608401610428565b6001600160a01b0382166107525760405162461bcd60e51b815260206004820152602360248201527f45524332303a207472616e7366657220746f20746865207a65726f206164647260448201526265737360e81b6064820152608401610428565b6001600160a01b038316600090815260208190526040902054818110156107ca5760405162461bcd60e51b815260206004820152602660248201527f45524332303a207472616e7366657220616d6f756e7420657863656564732062604482015265616c616e636560d01b6064820152608401610428565b6001600160a01b03808516600090815260208190526040808220858503905591851681529081208054849290610801908490610cc0565b92505081905550826001600160a01b0316846001600160a01b03167fddf252ad1be2c89b69c2b068fc378daa952ba7f163c4a11628f55a4df523b3ef8460405161084d91815260200190565b60405180910390a3610686565b6005546001600160a01b031633146103985760405162461bcd60e51b815260206004820181905260248201527f4f776e61626c653a2063616c6c6572206973206e6f7420746865206f776e65726044820152606401610428565b6001600160a01b03821661090a5760405162461bcd60e51b815260206004820152601f60248201527f45524332303a206d696e7420746f20746865207a65726f2061646472657373006044820152606401610428565b806002600082825461091c9190610cc0565b90915550506001600160a01b03821660009081526020819052604081208054839290610949908490610cc0565b90915550506040518181526001600160a01b038316906000907fddf252ad1be2c89b69c2b068fc378daa952ba7f163c4a11628f55a4df523b3ef9060200160405180910390a35050565b6001600160a01b0382166109f35760405162461bcd60e51b815260206004820152602160248201527f45524332303a206275726e2066726f6d20746865207a65726f206164647265736044820152607360f81b6064820152608401610428565b6001600160a01b03821660009081526020819052604090205481811015610a675760405162461bcd60e51b815260206004820152602260248201527f45524332303a206275726e20616d6f756e7420657863656564732062616c616e604482015261636560f01b6064820152608401610428565b6001600160a01b0383166000908152602081905260408120838303905560028054849290610a96908490610cd8565b90915550506040518281526000906001600160a01b038516907fddf252ad1be2c89b69c2b068fc378daa952ba7f163c4a11628f55a4df523b3ef90602001610605565b600580546001600160a01b038381166001600160a01b0319831681179093556040519116919082907f8be0079c531659141344cd1fd0a4f28419497f9722a3daafe3b4186f6b6457e090600090a35050565b600060208083528351808285015260005b81811015610b5857858101830151858201604001528201610b3c565b81811115610b6a576000604083870101525b50601f01601f1916929092016040019392505050565b80356001600160a01b0381168114610b9757600080fd5b919050565b60008060408385031215610baf57600080fd5b610bb883610b80565b946020939093013593505050565b600080600060608486031215610bdb57600080fd5b610be484610b80565b9250610bf260208501610b80565b9150604084013590509250925092565b600060208284031215610c1457600080fd5b5035919050565b600060208284031215610c2d57600080fd5b610c3682610b80565b9392505050565b60008060408385031215610c5057600080fd5b610c5983610b80565b9150610c6760208401610b80565b90509250929050565b600181811c90821680610c8457607f821691505b602082108103610ca457634e487b7160e01b600052602260045260246000fd5b50919050565b634e487b7160e01b600052601160045260246000fd5b60008219821115610cd357610cd3610caa565b500190565b600082821015610cea57610cea610caa565b50039056fea26469706673582212209440ce8d97b81aa50f5227655702e207e3e762e4a27a500656c12550e2de9ae164736f6c634300080f0033a26469706673582212201cee8c5a4620b30287ac31620902c098267d2717ee7385171fe8dd187040734e64736f6c634300080f0033",
  "immutableReferences": {},
  "source": "// SPDX-License-Identifier: MIT\r\npragma solidity ^0.8.0;\r\n\r\nimport \"@openzeppelin/contracts/token/ERC721/ERC721.sol\";\r\nimport \"@openzeppelin/contracts/token/ERC721/extensions/ERC721Enumerable.sol\";\r\nimport \"@openzeppelin/contracts/token/ERC721/extensions/ERC721URIStorage.sol\";\r\nimport \"@openzeppelin/contracts/token/ERC721/extensions/ERC721Burnable.sol\";\r\nimport \"@openzeppelin/contracts/token/ERC20/ERC20.sol\";\r\nimport \"@openzeppelin/contracts/token/ERC20/extensions/ERC20Burnable.sol\";\r\nimport \"@openzeppelin/contracts/security/Pausable.sol\";\r\nimport \"@openzeppelin/contracts/access/Ownable.sol\";\r\nimport \"@openzeppelin/contracts/utils/Counters.sol\";\r\n\r\ncontract FractionalNFT is ERC721, ERC721Enumerable, ERC721URIStorage, Pausable, Ownable, ERC721Burnable \r\n{\r\n    using Counters for Counters.Counter;\r\n\r\n    Counters.Counter private _tokenIdCounter;\r\n\r\n    struct _fnft{\r\n        uint256 tokenId;\r\n        address fractionalToken;\r\n    }\r\n\r\n    mapping(uint256 => _fnft) public FNFT;\r\n    // Constructor of ERC721 requires Name of NFT and Symbol of NFT\r\n    constructor() ERC721(\"FractionalNFT\", \"FNFT\") {}  \r\n\r\n    // _beforeTokenTransfer used by ERC-721 internally in _mint function\r\n    function _beforeTokenTransfer(address from, address to, uint256 tokenId) internal whenNotPaused override(ERC721, ERC721Enumerable)\r\n    {\r\n        super._beforeTokenTransfer(from, to, tokenId);\r\n    }\r\n\r\n    function _burn(uint256 tokenId) internal override(ERC721, ERC721URIStorage) {\r\n        super._burn(tokenId);\r\n    }\r\n\r\n    function tokenURI(uint256 tokenId) public view override(ERC721, ERC721URIStorage) returns (string memory)\r\n    {\r\n        return super.tokenURI(tokenId);\r\n    }\r\n\r\n    function supportsInterface(bytes4 interfaceId) public view override(ERC721, ERC721Enumerable) returns (bool)\r\n    {\r\n        return super.supportsInterface(interfaceId);\r\n    }\r\n\r\n    function mint(address _to, string memory tokenURI_, uint256 _totalFractionalTokens) external onlyOwner() \r\n    {\r\n        _safeMint(_to, _tokenIdCounter.current());\r\n        _setTokenURI(_tokenIdCounter.current(), tokenURI_);\r\n\r\n        //Create a ERC20 Token Contract for this newly minted NFT\r\n        FNFToken _fnftoken = new FNFToken();                                      //initialize\r\n        _fnftoken.mint(msg.sender, _totalFractionalTokens);   //now mint the fractional tokens and send it to the owner of this NFT           \r\n        _fnft memory fnft;                                                          //constructor\r\n        fnft.tokenId = _tokenIdCounter.current();                           \r\n        fnft.fractionalToken = address(_fnftoken);\r\n        FNFT[_tokenIdCounter.current()]  = fnft;                                    //bind the fractional token address to this NFT token just minted\r\n        _tokenIdCounter.increment();\r\n    }\r\n}\r\n\r\ncontract FNFToken is ERC20, ERC20Burnable, Ownable {\r\n    constructor() ERC20(\"FNFToken\", \"FNT\") {}\r\n\r\n    function mint(address to, uint256 amount) public onlyOwner {\r\n        _mint(to, amount);\r\n    }\r\n}\r\n",
  "sourcePath": "C:\\Users\\v-racharya\\Desktop\\Real-Estate-FNFT\\blockchain\\contracts\\FractionalNFT.sol",
  "compiler": {
    "name": "solc",
    "version": "0.8.15+commit.e14f2714.Emscripten.clang"
  },
  "schemaVersion": "3.4.7",
  "updatedAt": "2022-07-16T17:56:13.290Z",
  "devdoc": {
    "kind": "dev",
    "methods": {
      "approve(address,uint256)": {
        "details": "See {IERC721-approve}."
      },
      "balanceOf(address)": {
        "details": "See {IERC721-balanceOf}."
      },
      "burn(uint256)": {
        "details": "Burns `tokenId`. See {ERC721-_burn}. Requirements: - The caller must own `tokenId` or be an approved operator."
      },
      "getApproved(uint256)": {
        "details": "See {IERC721-getApproved}."
      },
      "isApprovedForAll(address,address)": {
        "details": "See {IERC721-isApprovedForAll}."
      },
      "name()": {
        "details": "See {IERC721Metadata-name}."
      },
      "owner()": {
        "details": "Returns the address of the current owner."
      },
      "ownerOf(uint256)": {
        "details": "See {IERC721-ownerOf}."
      },
      "paused()": {
        "details": "Returns true if the contract is paused, and false otherwise."
      },
      "renounceOwnership()": {
        "details": "Leaves the contract without owner. It will not be possible to call `onlyOwner` functions anymore. Can only be called by the current owner. NOTE: Renouncing ownership will leave the contract without an owner, thereby removing any functionality that is only available to the owner."
      },
      "safeTransferFrom(address,address,uint256)": {
        "details": "See {IERC721-safeTransferFrom}."
      },
      "safeTransferFrom(address,address,uint256,bytes)": {
        "details": "See {IERC721-safeTransferFrom}."
      },
      "setApprovalForAll(address,bool)": {
        "details": "See {IERC721-setApprovalForAll}."
      },
      "symbol()": {
        "details": "See {IERC721Metadata-symbol}."
      },
      "tokenByIndex(uint256)": {
        "details": "See {IERC721Enumerable-tokenByIndex}."
      },
      "tokenOfOwnerByIndex(address,uint256)": {
        "details": "See {IERC721Enumerable-tokenOfOwnerByIndex}."
      },
      "totalSupply()": {
        "details": "See {IERC721Enumerable-totalSupply}."
      },
      "transferFrom(address,address,uint256)": {
        "details": "See {IERC721-transferFrom}."
      },
      "transferOwnership(address)": {
        "details": "Transfers ownership of the contract to a new account (`newOwner`). Can only be called by the current owner."
      }
    },
    "version": 1
  },
  "userdoc": {
    "kind": "user",
    "methods": {},
    "version": 1
  }
}