{
  "contractName": "FractionalClaim",
  "abi": [
    {
      "inputs": [
        {
          "internalType": "address",
          "name": "_nftAddress",
          "type": "address"
        },
        {
          "internalType": "uint256",
          "name": "_tokenID",
          "type": "uint256"
        }
      ],
      "stateMutability": "nonpayable",
      "type": "constructor"
    },
    {
      "anonymous": false,
      "inputs": [],
      "name": "funded",
      "type": "event"
    },
    {
      "inputs": [],
      "name": "claimState",
      "outputs": [
        {
          "internalType": "enum FractionalClaim.ClaimState",
          "name": "",
          "type": "uint8"
        }
      ],
      "stateMutability": "view",
      "type": "function"
    },
    {
      "inputs": [],
      "name": "funds",
      "outputs": [
        {
          "internalType": "uint256",
          "name": "",
          "type": "uint256"
        }
      ],
      "stateMutability": "view",
      "type": "function"
    },
    {
      "inputs": [],
      "name": "nftAddress",
      "outputs": [
        {
          "internalType": "address",
          "name": "",
          "type": "address"
        }
      ],
      "stateMutability": "view",
      "type": "function"
    },
    {
      "inputs": [],
      "name": "ownerAddress",
      "outputs": [
        {
          "internalType": "address payable",
          "name": "",
          "type": "address"
        }
      ],
      "stateMutability": "view",
      "type": "function"
    },
    {
      "inputs": [],
      "name": "supply",
      "outputs": [
        {
          "internalType": "uint256",
          "name": "",
          "type": "uint256"
        }
      ],
      "stateMutability": "view",
      "type": "function"
    },
    {
      "inputs": [],
      "name": "tokenAddress",
      "outputs": [
        {
          "internalType": "address",
          "name": "",
          "type": "address"
        }
      ],
      "stateMutability": "view",
      "type": "function"
    },
    {
      "inputs": [
        {
          "internalType": "address",
          "name": "_token",
          "type": "address"
        }
      ],
      "name": "fund",
      "outputs": [],
      "stateMutability": "payable",
      "type": "function"
    },
    {
      "inputs": [
        {
          "internalType": "address",
          "name": "_token",
          "type": "address"
        },
        {
          "internalType": "uint256",
          "name": "_amount",
          "type": "uint256"
        }
      ],
      "name": "claim",
      "outputs": [],
      "stateMutability": "payable",
      "type": "function"
    }
  ],
  "bytecode": "0x608060405234801561001057600080fd5b506040516106ee3803806106ee83398101604081905261002f91610118565b6040516331a9108f60e11b81526004810182905282903390839082906001600160a01b03851690636352211e90602401602060405180830381865afa15801561007c573d6000803e3d6000fd5b505050506040513d601f19601f820116820180604052508101906100a09190610144565b6001600160a01b0316146100b357600080fd5b600180546001600160a01b0387166001600160a01b03199182161790915560008054909116331781556002805460ff60a01b1916600160a01b8302179055505050505050610166565b80516001600160a01b038116811461011357600080fd5b919050565b6000806040838503121561012b57600080fd5b610134836100fc565b9150602083015190509250929050565b60006020828403121561015657600080fd5b61015f826100fc565b9392505050565b610579806101756000396000f3fe60806040526004361061007b5760003560e01c80639a7258091161004e5780639a725809146101165780639d76ea5814610144578063aad3ec9614610164578063c89f2ce41461017757600080fd5b8063047fc9aa1461008057806323024408146100a95780635bf8633a146100be5780638f84aa09146100f6575b600080fd5b34801561008c57600080fd5b5061009660045481565b6040519081526020015b60405180910390f35b6100bc6100b7366004610463565b61018d565b005b3480156100ca57600080fd5b506001546100de906001600160a01b031681565b6040516001600160a01b0390911681526020016100a0565b34801561010257600080fd5b506000546100de906001600160a01b031681565b34801561012257600080fd5b5060025461013790600160a01b900460ff1681565b6040516100a09190610494565b34801561015057600080fd5b506002546100de906001600160a01b031681565b6100bc6101723660046104bc565b610287565b34801561018357600080fd5b5061009660035481565b60008060028054600160a01b900460ff16908111156101ae576101ae61047e565b146101b857600080fd5b6000546001600160a01b031633146101cf57600080fd5b34600355600280546001600160a01b0384166001600160a81b03199091168117600160a01b17909155604080516318160ddd60e01b815290516318160ddd916004808201926020929091908290030181865afa158015610233573d6000803e3d6000fd5b505050506040513d601f19601f8201168201806040525081019061025791906104e6565b6004556040517ff3a504f28a34fdf555994a3bdfd3dc29f822e8684a9ef01001afb738cc3cdd0a90600090a15050565b60025482906001600160a01b038083169116146102a357600080fd5b6040516323b872dd60e01b8152336004820152306024820152604481018390526001600160a01b038416906323b872dd906064016020604051808303816000875af11580156102f6573d6000803e3d6000fd5b505050506040513d601f19601f8201168201806040525081019061031a91906104ff565b50604051630852cd8d60e31b8152600481018390526001600160a01b038416906342966c6890602401600060405180830381600087803b15801561035d57600080fd5b505af1158015610371573d6000803e3d6000fd5b50506004543392506108fc9150610389908590610434565b6040518115909202916000818181858888f193505050501580156103b1573d6000803e3d6000fd5b50826001600160a01b03166318160ddd6040518163ffffffff1660e01b8152600401602060405180830381865afa1580156103f0573d6000803e3d6000fd5b505050506040513d601f19601f8201168201806040525081019061041491906104e6565b60000361042f576002805460ff60a01b1916600160a11b1790555b505050565b60006104408284610521565b9392505050565b80356001600160a01b038116811461045e57600080fd5b919050565b60006020828403121561047557600080fd5b61044082610447565b634e487b7160e01b600052602160045260246000fd5b60208101600383106104b657634e487b7160e01b600052602160045260246000fd5b91905290565b600080604083850312156104cf57600080fd5b6104d883610447565b946020939093013593505050565b6000602082840312156104f857600080fd5b5051919050565b60006020828403121561051157600080fd5b8151801515811461044057600080fd5b60008261053e57634e487b7160e01b600052601260045260246000fd5b50049056fea2646970667358221220dc16a418e1fe165ca338e894773178a9588ba76cfc2da87ec3992478974d656d64736f6c63430008110033",
  "immutableReferences": {},
  "source": "// SPDX-License-Identifier: MIT\n\npragma solidity ^0.8.2;\n\nimport \"@openzeppelin/contracts/token/ERC721/ERC721.sol\";\nimport \"@openzeppelin/contracts/token/ERC20/ERC20.sol\";\nimport \"@openzeppelin/contracts/token/ERC20/extensions/ERC20Burnable.sol\";\nimport \"@openzeppelin/contracts/utils/math/SafeMath.sol\"; // Used for Division operation of integers\n\ncontract FractionalClaim {\n\n    using SafeMath for uint256;\n\n    address payable public ownerAddress;\n    address public nftAddress;\n    address public tokenAddress;\n    enum ClaimState {initiated, accepting, closed}\n    ClaimState public claimState;\n    uint256 public funds;\n    uint256 public supply;\n\n    event funded();\n\n    //this claims contract should only be allowed if the guy who started it owns this NFT token\n    modifier isOwnerOfNFT(address _nftAddress, address _ownerAddress, uint256 _tokenID){\n        require(ERC721(_nftAddress).ownerOf(_tokenID) == _ownerAddress);\n        _;\n    }\n\n\tmodifier onlyOwner() {\n\t\trequire(msg.sender == ownerAddress);\n\t\t_;\n\t}\n\n    modifier inClaimState(ClaimState _state) {\n\t\trequire(claimState == _state);\n\t\t_;\n\t}\n\n    modifier correctToken(address _token)\n    {\n        require(_token == tokenAddress);\n        _;\n    }\n\n    constructor(address _nftAddress, uint256 _tokenID) isOwnerOfNFT(_nftAddress, msg.sender, _tokenID)\n    {\n        nftAddress = _nftAddress;\n        ownerAddress = payable(msg.sender);\n        claimState = ClaimState.initiated;\n    }\n\n    function fund(address _token) public payable inClaimState(ClaimState.initiated) onlyOwner\n    {\n        funds = msg.value;                                                //amount added to allow claims to be made\n        tokenAddress = _token;                                            //address of acceptable token\n        claimState = ClaimState.accepting;                                //set to accepting status\n\n        supply = ERC20(_token).totalSupply();    //find out how many tokens are out there\n  \n        emit funded();\n    }\n\n    function claim(address _token, uint256 _amount) public payable correctToken(_token)\n    {\n        ERC20(_token).transferFrom(msg.sender, address(this), _amount); //collect the token back, not working yet\n        ERC20Burnable(_token).burn( _amount);                                   //claimed, so burn this token\n        payable(msg.sender).transfer((_amount).div(supply));                    //send the ETH to the claimant\n\n        //ok, fully claimed. Close this contract\n        if (ERC20(_token).totalSupply() == 0){\n            claimState = ClaimState.closed;\n        }\n    }\n}",
  "sourcePath": "/home/shubham/Desktop/Real-Estate-FNFT/blockchain/contracts/FractionalClaim.sol",
  "compiler": {
    "name": "solc",
    "version": "0.8.17+commit.8df45f5f.Emscripten.clang"
  },
  "schemaVersion": "3.4.9",
  "updatedAt": "2022-09-18T17:31:48.837Z",
  "devdoc": {
    "kind": "dev",
    "methods": {},
    "version": 1
  },
  "userdoc": {
    "kind": "user",
    "methods": {},
    "version": 1
  }
}