{
  "contractName": "NFTEscrow",
  "abi": [
    {
      "inputs": [],
      "stateMutability": "nonpayable",
      "type": "constructor"
    },
    {
      "inputs": [],
      "name": "buyerAddress",
      "outputs": [
        {
          "internalType": "address payable",
          "name": "",
          "type": "address"
        }
      ],
      "stateMutability": "view",
      "type": "function"
    },
    {
      "inputs": [],
      "name": "nftAddress",
      "outputs": [
        {
          "internalType": "address",
          "name": "",
          "type": "address"
        }
      ],
      "stateMutability": "view",
      "type": "function"
    },
    {
      "inputs": [],
      "name": "projectState",
      "outputs": [
        {
          "internalType": "enum NFTEscrow.ProjectState",
          "name": "",
          "type": "uint8"
        }
      ],
      "stateMutability": "view",
      "type": "function"
    },
    {
      "inputs": [],
      "name": "sellerAddress",
      "outputs": [
        {
          "internalType": "address payable",
          "name": "",
          "type": "address"
        }
      ],
      "stateMutability": "view",
      "type": "function"
    },
    {
      "inputs": [
        {
          "internalType": "address",
          "name": "operator",
          "type": "address"
        },
        {
          "internalType": "address",
          "name": "from",
          "type": "address"
        },
        {
          "internalType": "uint256",
          "name": "tokenId",
          "type": "uint256"
        },
        {
          "internalType": "bytes",
          "name": "data",
          "type": "bytes"
        }
      ],
      "name": "onERC721Received",
      "outputs": [
        {
          "internalType": "bytes4",
          "name": "",
          "type": "bytes4"
        }
      ],
      "stateMutability": "nonpayable",
      "type": "function"
    },
    {
      "inputs": [
        {
          "internalType": "address",
          "name": "_NFTAddress",
          "type": "address"
        },
        {
          "internalType": "uint256",
          "name": "_TokenID",
          "type": "uint256"
        }
      ],
      "name": "depositNFT",
      "outputs": [],
      "stateMutability": "nonpayable",
      "type": "function"
    },
    {
      "inputs": [],
      "name": "cancelAtNFT",
      "outputs": [],
      "stateMutability": "nonpayable",
      "type": "function"
    },
    {
      "inputs": [
        {
          "internalType": "bool",
          "name": "_state",
          "type": "bool"
        }
      ],
      "name": "cancelBeforeDelivery",
      "outputs": [],
      "stateMutability": "payable",
      "type": "function"
    },
    {
      "inputs": [],
      "name": "depositETH",
      "outputs": [],
      "stateMutability": "payable",
      "type": "function"
    },
    {
      "inputs": [],
      "name": "initiateDelivery",
      "outputs": [],
      "stateMutability": "nonpayable",
      "type": "function"
    },
    {
      "inputs": [],
      "name": "confirmDelivery",
      "outputs": [],
      "stateMutability": "payable",
      "type": "function"
    },
    {
      "inputs": [],
      "name": "getBalance",
      "outputs": [
        {
          "internalType": "uint256",
          "name": "balance",
          "type": "uint256"
        }
      ],
      "stateMutability": "view",
      "type": "function"
    },
    {
      "inputs": [],
      "name": "getProjectState",
      "outputs": [
        {
          "internalType": "string",
          "name": "",
          "type": "string"
        }
      ],
      "stateMutability": "view",
      "type": "function"
    }
  ],
  "bytecode": "0x60806040526004805461ffff1916905534801561001b57600080fd5b5060008054336001600160a01b03199091161790556004805462ff000019169055610c568061004b6000396000f3fe6080604052600436106100c25760003560e01c8063499586111161007f578063748807ab11610059578063748807ab146101f85780639b5b9b1814610225578063a1ee418114610245578063f6326fb31461025a57600080fd5b806349958611146101ae5780635bf8633a146101d05780635e10177b146101f057600080fd5b806312065fe0146100c7578063150b7a02146100e75780632f9fa7f61461012c578063342901a7146101435780633d9b2ae61461015657806344834aca1461018e575b600080fd5b3480156100d357600080fd5b506040514781526020015b60405180910390f35b3480156100f357600080fd5b50610113610102366004610a41565b630a85bd0160e11b95945050505050565b6040516001600160e01b031990911681526020016100de565b34801561013857600080fd5b50610141610262565b005b610141610151366004610adc565b610343565b34801561016257600080fd5b50600054610176906001600160a01b031681565b6040516001600160a01b0390911681526020016100de565b34801561019a57600080fd5b50600154610176906001600160a01b031681565b3480156101ba57600080fd5b506101c36104fc565b6040516100de9190610b05565b3480156101dc57600080fd5b50600254610176906001600160a01b031681565b6101416106cb565b34801561020457600080fd5b506004546102189062010000900460ff1681565b6040516100de9190610b69565b34801561023157600080fd5b50610141610240366004610b91565b61080e565b34801561025157600080fd5b506101416108f2565b6101416109d1565b60018060045462010000900460ff16600681111561028257610282610b53565b1461028c57600080fd5b6000546001600160a01b031633146102bf5760405162461bcd60e51b81526004016102b690610bbb565b60405180910390fd5b600254600354604051632142170760e11b81526001600160a01b03909216916342842e0e916102f49130913391600401610bfc565b600060405180830381600087803b15801561030e57600080fd5b505af1158015610322573d6000803e3d6000fd5b5050600480546002935090915062ff0000191662010000835b021790555050565b60038060045462010000900460ff16600681111561036357610363610b53565b1461036d57600080fd5b6001546001600160a01b031633148061039057506000546001600160a01b031633145b6103dc5760405162461bcd60e51b815260206004820152601e60248201527f43616c6c6572206973206e6f74206275796572206f722073656c6c65722e000060448201526064016102b6565b6000546001600160a01b03163303610406576004805461ff00191661010084151502179055610415565b6004805460ff19168315151790555b60045460ff6101009091041615156001148015610439575060045460ff1615156001145b156104f857600254600054600354604051632142170760e11b81526001600160a01b03938416936342842e0e936104799330939290911691600401610bfc565b600060405180830381600087803b15801561049357600080fd5b505af11580156104a7573d6000803e3d6000fd5b50506001546040516001600160a01b0390911692504780156108fc029250906000818181858888f193505050501580156104e5573d6000803e3d6000fd5b506004805462ff00001916620400001790555b5050565b60045460609062010000900460ff16600081600681111561051f5761051f610b53565b0361054a57505060408051808201909152600a8152694e657720457363726f7760b01b602082015290565b600181600681111561055e5761055e610b53565b0361058c57505060408051808201909152600d81526c1391950811195c1bdcda5d1959609a1b602082015290565b60028160068111156105a0576105a0610b53565b036105cb57505060408051808201909152600a81526910d85b98d95b0813919560b21b602082015290565b60038160068111156105df576105df610b53565b0361060d57505060408051808201909152600d81526c1155120811195c1bdcda5d1959609a1b602082015290565b600481600681111561062157610621610b53565b0361065f57505060408051808201909152601981527f43616e63656c6c6564204265666f72652044656c697665727900000000000000602082015290565b600581600681111561067357610673610b53565b036106a657505060408051808201909152601281527111195b1a5d995c9e48125b9a5d1a585d195960721b602082015290565b505060408051808201909152600981526811195b1a5d995c995960ba1b602082015290565b60058060045462010000900460ff1660068111156106eb576106eb610b53565b146106f557600080fd5b6001546001600160a01b0316331461074f5760405162461bcd60e51b815260206004820181905260248201527f43616c6c65722061646472657373206973206e6f74207468652062757965722e60448201526064016102b6565b600254600154600354604051632142170760e11b81526001600160a01b03938416936342842e0e9361078a9330939290911691600401610bfc565b600060405180830381600087803b1580156107a457600080fd5b505af11580156107b8573d6000803e3d6000fd5b5050600080546040516001600160a01b0390911693504780156108fc02935091818181858888f193505050501580156107f5573d6000803e3d6000fd5b50600480546006919062ff00001916620100008361033b565b60008060045462010000900460ff16600681111561082e5761082e610b53565b1461083857600080fd5b6000546001600160a01b031633146108625760405162461bcd60e51b81526004016102b690610bbb565b600280546001600160a01b0319166001600160a01b0385169081179091556003839055604051632142170760e11b81526342842e0e906108aa90339030908790600401610bfc565b600060405180830381600087803b1580156108c457600080fd5b505af11580156108d8573d6000803e3d6000fd5b50506004805462ff00001916620100001790555050505050565b60038060045462010000900460ff16600681111561091257610912610b53565b1461091c57600080fd5b6000546001600160a01b031633146109465760405162461bcd60e51b81526004016102b690610bbb565b60045460ff161580156109615750600454610100900460ff16155b6109b95760405162461bcd60e51b8152602060048201526024808201527f456974686572206275796572206f722073656c6c65722063616e636c6564206460448201526332b0b61760e11b60648201526084016102b6565b600480546005919062ff00001916620100008361033b565b60018060045462010000900460ff1660068111156109f1576109f1610b53565b146109fb57600080fd5b600180546001600160a01b03191633179055600480546003919062ff00001916620100008361033b565b80356001600160a01b0381168114610a3c57600080fd5b919050565b600080600080600060808688031215610a5957600080fd5b610a6286610a25565b9450610a7060208701610a25565b935060408601359250606086013567ffffffffffffffff80821115610a9457600080fd5b818801915088601f830112610aa857600080fd5b813581811115610ab757600080fd5b896020828501011115610ac957600080fd5b9699959850939650602001949392505050565b600060208284031215610aee57600080fd5b81358015158114610afe57600080fd5b9392505050565b600060208083528351808285015260005b81811015610b3257858101830151858201604001528201610b16565b506000604082860101526040601f19601f8301168501019250505092915050565b634e487b7160e01b600052602160045260246000fd5b6020810160078310610b8b57634e487b7160e01b600052602160045260246000fd5b91905290565b60008060408385031215610ba457600080fd5b610bad83610a25565b946020939093013593505050565b60208082526021908201527f43616c6c65722061646472657373206973206e6f74207468652073656c6c65726040820152601760f91b606082015260800190565b6001600160a01b03938416815291909216602082015260408101919091526060019056fea2646970667358221220ce6994610ea322bfd5ef6c92e6d01327b24c674689497c61dc4889748ebbf71464736f6c63430008110033",
  "immutableReferences": {},
  "source": "//SPDX-License-Identifier: MIT\n \npragma solidity ^0.8.2;\nimport \"@openzeppelin/contracts/token/ERC721/ERC721.sol\";\nimport \"@openzeppelin/contracts/token/ERC721/IERC721Receiver.sol\";\n\ncontract NFTEscrow is IERC721Receiver {\n    \n    enum ProjectState {newEscrow, nftDeposited, cancelNFT, ethDeposited, canceledBeforeDelivery, deliveryInitiated, delivered}\n    \n    address payable public sellerAddress;\n    address payable public buyerAddress;\n    address public nftAddress;\n    uint256 tokenID;\n    bool buyerCancel = false;\n    bool sellerCancel = false;\n    ProjectState public projectState;\n\n    constructor(){\n        sellerAddress = payable(msg.sender);\n        projectState = ProjectState.newEscrow;\n    }\n    \n    function onERC721Received( address operator, address from, uint256 tokenId, bytes calldata data ) public override returns (bytes4) {\n        return this.onERC721Received.selector;\n    }\n    \n    function depositNFT(address _NFTAddress, uint256 _TokenID) public inProjectState(ProjectState.newEscrow) onlySeller {\n        \n        nftAddress = _NFTAddress;\n        tokenID = _TokenID;\n        ERC721(nftAddress).safeTransferFrom(msg.sender, address(this), tokenID);\n        projectState = ProjectState.nftDeposited;\n    }\n    \n    function cancelAtNFT() public inProjectState(ProjectState.nftDeposited) onlySeller {\n        ERC721(nftAddress).safeTransferFrom(address(this), msg.sender, tokenID);\n        projectState = ProjectState.cancelNFT;\n    }\n  \n    function cancelBeforeDelivery(bool _state) public inProjectState(ProjectState.ethDeposited) payable BuyerOrSeller {\n        if (msg.sender == sellerAddress){\n            sellerCancel = _state;\n        }\n        else{\n            buyerCancel = _state;\n        }\n        \n        if (sellerCancel == true && buyerCancel == true){\n            ERC721(nftAddress).safeTransferFrom(address(this), sellerAddress, tokenID);\n            buyerAddress.transfer(address(this).balance);\n            projectState = ProjectState.canceledBeforeDelivery;     \n        }\n    }\n    \n    function depositETH() public payable inProjectState(ProjectState.nftDeposited) {\n        buyerAddress = payable(msg.sender);\n        projectState = ProjectState.ethDeposited;\n    }\n    \n    function initiateDelivery() public inProjectState(ProjectState.ethDeposited) onlySeller noDispute {\n        projectState = ProjectState.deliveryInitiated;\n    }        \n    \n    function confirmDelivery() public payable inProjectState(ProjectState.deliveryInitiated) onlyBuyer {\n        ERC721(nftAddress).safeTransferFrom(address(this), buyerAddress, tokenID);\n        sellerAddress.transfer(address(this).balance);\n        projectState = ProjectState.delivered;\n    }\n        \n   \tmodifier condition(bool _condition) {\n\t\trequire(_condition);\n\t\t_;\n\t}\n\n\tmodifier onlySeller() {\n\t\trequire(msg.sender == sellerAddress, \"Caller address is not the seller.\");\n\t\t_;\n\t}\n\n\tmodifier onlyBuyer() {\n\t\trequire(msg.sender == buyerAddress, \"Caller address is not the buyer.\");\n\t\t_;\n\t}\n\t\n\tmodifier noDispute(){\n\t    require(buyerCancel == false && sellerCancel == false, \"Either buyer or seller cancled deal.\" );\n\t    _;\n\t}\n\t\n\tmodifier BuyerOrSeller() {\n\t\trequire(msg.sender == buyerAddress || msg.sender == sellerAddress,\"Caller is not buyer or seller.\");\n\t\t_;\n\t}\n\t\n\tmodifier inProjectState(ProjectState _state) {\n\t\trequire(projectState == _state);\n\t\t_;\n\t}\n\n    function getBalance() public view returns (uint256 balance) {\n        return address(this).balance;\n    }\n\n    function getProjectState() public view returns (string memory) {\n        ProjectState temp = projectState;\n        if(temp == ProjectState.newEscrow) return \"New Escrow\";\n        else if(temp == ProjectState.nftDeposited) return \"NFT Deposited\";\n        else if(temp == ProjectState.cancelNFT) return \"Cancel NFT\";\n        else if(temp == ProjectState.ethDeposited) return \"ETH Deposited\";\n        else if(temp == ProjectState.canceledBeforeDelivery) return \"Cancelled Before Delivery\";\n        else if(temp == ProjectState.deliveryInitiated) return \"Delivery Initiated\";\n        else return \"Delivered\";\n        \n    }\n} \n",
  "sourcePath": "/home/shubham/Desktop/Real-Estate-FNFT/blockchain/contracts/EscrowNFT.sol",
  "compiler": {
    "name": "solc",
    "version": "0.8.17+commit.8df45f5f.Emscripten.clang"
  },
  "schemaVersion": "3.4.9",
  "updatedAt": "2022-10-21T16:37:33.371Z",
  "devdoc": {
    "kind": "dev",
    "methods": {
      "onERC721Received(address,address,uint256,bytes)": {
        "details": "Whenever an {IERC721} `tokenId` token is transferred to this contract via {IERC721-safeTransferFrom} by `operator` from `from`, this function is called. It must return its Solidity selector to confirm the token transfer. If any other value is returned or the interface is not implemented by the recipient, the transfer will be reverted. The selector can be obtained in Solidity with `IERC721Receiver.onERC721Received.selector`."
      }
    },
    "version": 1
  },
  "userdoc": {
    "kind": "user",
    "methods": {},
    "version": 1
  }
}