{
  "_format": "hh-sol-artifact-1",
  "contractName": "FractionalNFT",
  "sourceName": "contracts/FractionalNFT.sol",
  "abi": [
    {
      "inputs": [],
      "stateMutability": "nonpayable",
      "type": "constructor"
    },
    {
      "anonymous": false,
      "inputs": [
        {
          "indexed": true,
          "internalType": "address",
          "name": "owner",
          "type": "address"
        },
        {
          "indexed": true,
          "internalType": "address",
          "name": "spender",
          "type": "address"
        },
        {
          "indexed": false,
          "internalType": "uint256",
          "name": "value",
          "type": "uint256"
        }
      ],
      "name": "Approval",
      "type": "event"
    },
    {
      "anonymous": false,
      "inputs": [
        {
          "indexed": false,
          "internalType": "uint256",
          "name": "tokenId",
          "type": "uint256"
        },
        {
          "indexed": false,
          "internalType": "string",
          "name": "name",
          "type": "string"
        },
        {
          "indexed": false,
          "internalType": "string",
          "name": "symbol",
          "type": "string"
        },
        {
          "indexed": false,
          "internalType": "uint256",
          "name": "totalSupply",
          "type": "uint256"
        }
      ],
      "name": "FNFTCreated",
      "type": "event"
    },
    {
      "anonymous": false,
      "inputs": [
        {
          "indexed": true,
          "internalType": "address",
          "name": "previousOwner",
          "type": "address"
        },
        {
          "indexed": true,
          "internalType": "address",
          "name": "newOwner",
          "type": "address"
        }
      ],
      "name": "OwnershipTransferred",
      "type": "event"
    },
    {
      "anonymous": false,
      "inputs": [
        {
          "indexed": true,
          "internalType": "address",
          "name": "from",
          "type": "address"
        },
        {
          "indexed": true,
          "internalType": "address",
          "name": "to",
          "type": "address"
        },
        {
          "indexed": false,
          "internalType": "uint256",
          "name": "value",
          "type": "uint256"
        }
      ],
      "name": "Transfer",
      "type": "event"
    },
    {
      "inputs": [
        {
          "internalType": "address",
          "name": "owner",
          "type": "address"
        },
        {
          "internalType": "address",
          "name": "spender",
          "type": "address"
        }
      ],
      "name": "allowance",
      "outputs": [
        {
          "internalType": "uint256",
          "name": "",
          "type": "uint256"
        }
      ],
      "stateMutability": "view",
      "type": "function"
    },
    {
      "inputs": [
        {
          "internalType": "address",
          "name": "spender",
          "type": "address"
        },
        {
          "internalType": "uint256",
          "name": "amount",
          "type": "uint256"
        }
      ],
      "name": "approve",
      "outputs": [
        {
          "internalType": "bool",
          "name": "",
          "type": "bool"
        }
      ],
      "stateMutability": "nonpayable",
      "type": "function"
    },
    {
      "inputs": [
        {
          "internalType": "address",
          "name": "account",
          "type": "address"
        }
      ],
      "name": "balanceOf",
      "outputs": [
        {
          "internalType": "uint256",
          "name": "",
          "type": "uint256"
        }
      ],
      "stateMutability": "view",
      "type": "function"
    },
    {
      "inputs": [
        {
          "internalType": "uint256",
          "name": "amount",
          "type": "uint256"
        }
      ],
      "name": "burn",
      "outputs": [],
      "stateMutability": "nonpayable",
      "type": "function"
    },
    {
      "inputs": [
        {
          "internalType": "address",
          "name": "account",
          "type": "address"
        },
        {
          "internalType": "uint256",
          "name": "amount",
          "type": "uint256"
        }
      ],
      "name": "burnFrom",
      "outputs": [],
      "stateMutability": "nonpayable",
      "type": "function"
    },
    {
      "inputs": [],
      "name": "decimals",
      "outputs": [
        {
          "internalType": "uint8",
          "name": "",
          "type": "uint8"
        }
      ],
      "stateMutability": "view",
      "type": "function"
    },
    {
      "inputs": [
        {
          "internalType": "address",
          "name": "spender",
          "type": "address"
        },
        {
          "internalType": "uint256",
          "name": "subtractedValue",
          "type": "uint256"
        }
      ],
      "name": "decreaseAllowance",
      "outputs": [
        {
          "internalType": "bool",
          "name": "",
          "type": "bool"
        }
      ],
      "stateMutability": "nonpayable",
      "type": "function"
    },
    {
      "inputs": [
        {
          "internalType": "address",
          "name": "spender",
          "type": "address"
        },
        {
          "internalType": "uint256",
          "name": "addedValue",
          "type": "uint256"
        }
      ],
      "name": "increaseAllowance",
      "outputs": [
        {
          "internalType": "bool",
          "name": "",
          "type": "bool"
        }
      ],
      "stateMutability": "nonpayable",
      "type": "function"
    },
    {
      "inputs": [
        {
          "internalType": "address",
          "name": "to",
          "type": "address"
        },
        {
          "internalType": "uint256",
          "name": "amount",
          "type": "uint256"
        },
        {
          "internalType": "uint256",
          "name": "_tokenId",
          "type": "uint256"
        }
      ],
      "name": "mint",
      "outputs": [],
      "stateMutability": "nonpayable",
      "type": "function"
    },
    {
      "inputs": [],
      "name": "name",
      "outputs": [
        {
          "internalType": "string",
          "name": "",
          "type": "string"
        }
      ],
      "stateMutability": "view",
      "type": "function"
    },
    {
      "inputs": [],
      "name": "owner",
      "outputs": [
        {
          "internalType": "address",
          "name": "",
          "type": "address"
        }
      ],
      "stateMutability": "view",
      "type": "function"
    },
    {
      "inputs": [],
      "name": "reNFTId",
      "outputs": [
        {
          "internalType": "uint256",
          "name": "",
          "type": "uint256"
        }
      ],
      "stateMutability": "view",
      "type": "function"
    },
    {
      "inputs": [],
      "name": "renounceOwnership",
      "outputs": [],
      "stateMutability": "nonpayable",
      "type": "function"
    },
    {
      "inputs": [],
      "name": "symbol",
      "outputs": [
        {
          "internalType": "string",
          "name": "",
          "type": "string"
        }
      ],
      "stateMutability": "view",
      "type": "function"
    },
    {
      "inputs": [],
      "name": "totalSupply",
      "outputs": [
        {
          "internalType": "uint256",
          "name": "",
          "type": "uint256"
        }
      ],
      "stateMutability": "view",
      "type": "function"
    },
    {
      "inputs": [
        {
          "internalType": "address",
          "name": "to",
          "type": "address"
        },
        {
          "internalType": "uint256",
          "name": "amount",
          "type": "uint256"
        }
      ],
      "name": "transfer",
      "outputs": [
        {
          "internalType": "bool",
          "name": "",
          "type": "bool"
        }
      ],
      "stateMutability": "nonpayable",
      "type": "function"
    },
    {
      "inputs": [
        {
          "internalType": "address",
          "name": "from",
          "type": "address"
        },
        {
          "internalType": "address",
          "name": "to",
          "type": "address"
        },
        {
          "internalType": "uint256",
          "name": "amount",
          "type": "uint256"
        }
      ],
      "name": "transferFrom",
      "outputs": [
        {
          "internalType": "bool",
          "name": "",
          "type": "bool"
        }
      ],
      "stateMutability": "nonpayable",
      "type": "function"
    },
    {
      "inputs": [
        {
          "internalType": "address",
          "name": "newOwner",
          "type": "address"
        }
      ],
      "name": "transferOwnership",
      "outputs": [],
      "stateMutability": "nonpayable",
      "type": "function"
    }
  ],
  "bytecode": "0x60806040523480156200001157600080fd5b506040518060400160405280600d81526020017f4672616374696f6e616c4e4654000000000000000000000000000000000000008152506040518060400160405280600481526020017f464e465400000000000000000000000000000000000000000000000000000000815250816003908051906020019062000096929190620001a6565b508060049080519060200190620000af929190620001a6565b505050620000d2620000c6620000d860201b60201c565b620000e060201b60201c565b620002bb565b600033905090565b6000600560009054906101000a900473ffffffffffffffffffffffffffffffffffffffff16905081600560006101000a81548173ffffffffffffffffffffffffffffffffffffffff021916908373ffffffffffffffffffffffffffffffffffffffff1602179055508173ffffffffffffffffffffffffffffffffffffffff168173ffffffffffffffffffffffffffffffffffffffff167f8be0079c531659141344cd1fd0a4f28419497f9722a3daafe3b4186f6b6457e060405160405180910390a35050565b828054620001b49062000256565b90600052602060002090601f016020900481019282620001d8576000855562000224565b82601f10620001f357805160ff191683800117855562000224565b8280016001018555821562000224579182015b828111156200022357825182559160200191906001019062000206565b5b50905062000233919062000237565b5090565b5b808211156200025257600081600090555060010162000238565b5090565b600060028204905060018216806200026f57607f821691505b602082108114156200028657620002856200028c565b5b50919050565b7f4e487b7100000000000000000000000000000000000000000000000000000000600052602260045260246000fd5b611d9780620002cb6000396000f3fe608060405234801561001057600080fd5b50600436106101165760003560e01c806370a08231116100a257806395d89b411161007157806395d89b41146102cf578063a457c2d7146102ed578063a9059cbb1461031d578063dd62ed3e1461034d578063f2fde38b1461037d57610116565b806370a082311461025b578063715018a61461028b57806379cc6790146102955780638da5cb5b146102b157610116565b806318160ddd116100e957806318160ddd146101a357806323b872dd146101c1578063313ce567146101f1578063395093511461020f57806342966c681461023f57610116565b806306fdde031461011b578063095ea7b31461013957806311e9399c14610169578063156e29f614610187575b600080fd5b610123610399565b6040516101309190611598565b60405180910390f35b610153600480360381019061014e9190611289565b61042b565b604051610160919061157d565b60405180910390f35b61017161044e565b60405161017e919061173a565b60405180910390f35b6101a1600480360381019061019c91906112c9565b610454565b005b6101ab6104d0565b6040516101b8919061173a565b60405180910390f35b6101db60048036038101906101d69190611236565b6104da565b6040516101e8919061157d565b60405180910390f35b6101f9610509565b60405161020691906117a8565b60405180910390f35b61022960048036038101906102249190611289565b610512565b604051610236919061157d565b60405180910390f35b6102596004803603810190610254919061131c565b610549565b005b610275600480360381019061027091906111c9565b61055d565b604051610282919061173a565b60405180910390f35b6102936105a5565b005b6102af60048036038101906102aa9190611289565b6105b9565b005b6102b96105d9565b6040516102c69190611562565b60405180910390f35b6102d7610603565b6040516102e49190611598565b60405180910390f35b61030760048036038101906103029190611289565b610695565b604051610314919061157d565b60405180910390f35b61033760048036038101906103329190611289565b61070c565b604051610344919061157d565b60405180910390f35b610367600480360381019061036291906111f6565b61072f565b604051610374919061173a565b60405180910390f35b610397600480360381019061039291906111c9565b6107b6565b005b6060600380546103a89061194b565b80601f01602080910402602001604051908101604052809291908181526020018280546103d49061194b565b80156104215780601f106103f657610100808354040283529160200191610421565b820191906000526020600020905b81548152906001019060200180831161040457829003601f168201915b5050505050905090565b60008061043661083a565b9050610443818585610842565b600191505092915050565b60065481565b61045c610a0d565b61047983670de0b6b3a7640000846104749190611835565b610a8b565b806006819055507fa1e56de171422563cb213e42577696eb1e6bc893b62eefccec270563e04fa0ec816104aa610399565b6104b2610603565b856040516104c39493929190611755565b60405180910390a1505050565b6000600254905090565b6000806104e561083a565b90506104f2858285610beb565b6104fd858585610c77565b60019150509392505050565b60006012905090565b60008061051d61083a565b905061053e81858561052f858961072f565b61053991906117df565b610842565b600191505092915050565b61055a61055461083a565b82610ef8565b50565b60008060008373ffffffffffffffffffffffffffffffffffffffff1673ffffffffffffffffffffffffffffffffffffffff168152602001908152602001600020549050919050565b6105ad610a0d565b6105b760006110cf565b565b6105cb826105c561083a565b83610beb565b6105d58282610ef8565b5050565b6000600560009054906101000a900473ffffffffffffffffffffffffffffffffffffffff16905090565b6060600480546106129061194b565b80601f016020809104026020016040519081016040528092919081815260200182805461063e9061194b565b801561068b5780601f106106605761010080835404028352916020019161068b565b820191906000526020600020905b81548152906001019060200180831161066e57829003601f168201915b5050505050905090565b6000806106a061083a565b905060006106ae828661072f565b9050838110156106f3576040517f08c379a00000000000000000000000000000000000000000000000000000000081526004016106ea906116fa565b60405180910390fd5b6107008286868403610842565b60019250505092915050565b60008061071761083a565b9050610724818585610c77565b600191505092915050565b6000600160008473ffffffffffffffffffffffffffffffffffffffff1673ffffffffffffffffffffffffffffffffffffffff16815260200190815260200160002060008373ffffffffffffffffffffffffffffffffffffffff1673ffffffffffffffffffffffffffffffffffffffff16815260200190815260200160002054905092915050565b6107be610a0d565b600073ffffffffffffffffffffffffffffffffffffffff168173ffffffffffffffffffffffffffffffffffffffff16141561082e576040517f08c379a0000000000000000000000000000000000000000000000000000000008152600401610825906115fa565b60405180910390fd5b610837816110cf565b50565b600033905090565b600073ffffffffffffffffffffffffffffffffffffffff168373ffffffffffffffffffffffffffffffffffffffff1614156108b2576040517f08c379a00000000000000000000000000000000000000000000000000000000081526004016108a9906116da565b60405180910390fd5b600073ffffffffffffffffffffffffffffffffffffffff168273ffffffffffffffffffffffffffffffffffffffff161415610922576040517f08c379a00000000000000000000000000000000000000000000000000000000081526004016109199061161a565b60405180910390fd5b80600160008573ffffffffffffffffffffffffffffffffffffffff1673ffffffffffffffffffffffffffffffffffffffff16815260200190815260200160002060008473ffffffffffffffffffffffffffffffffffffffff1673ffffffffffffffffffffffffffffffffffffffff168152602001908152602001600020819055508173ffffffffffffffffffffffffffffffffffffffff168373ffffffffffffffffffffffffffffffffffffffff167f8c5be1e5ebec7d5bd14f71427d1e84f3dd0314c0f7b2291e5b200ac8c7c3b92583604051610a00919061173a565b60405180910390a3505050565b610a1561083a565b73ffffffffffffffffffffffffffffffffffffffff16610a336105d9565b73ffffffffffffffffffffffffffffffffffffffff1614610a89576040517f08c379a0000000000000000000000000000000000000000000000000000000008152600401610a809061167a565b60405180910390fd5b565b600073ffffffffffffffffffffffffffffffffffffffff168273ffffffffffffffffffffffffffffffffffffffff161415610afb576040517f08c379a0000000000000000000000000000000000000000000000000000000008152600401610af29061171a565b60405180910390fd5b610b0760008383611195565b8060026000828254610b1991906117df565b92505081905550806000808473ffffffffffffffffffffffffffffffffffffffff1673ffffffffffffffffffffffffffffffffffffffff1681526020019081526020016000206000828254610b6e91906117df565b925050819055508173ffffffffffffffffffffffffffffffffffffffff16600073ffffffffffffffffffffffffffffffffffffffff167fddf252ad1be2c89b69c2b068fc378daa952ba7f163c4a11628f55a4df523b3ef83604051610bd3919061173a565b60405180910390a3610be76000838361119a565b5050565b6000610bf7848461072f565b90507fffffffffffffffffffffffffffffffffffffffffffffffffffffffffffffffff8114610c715781811015610c63576040517f08c379a0000000000000000000000000000000000000000000000000000000008152600401610c5a9061163a565b60405180910390fd5b610c708484848403610842565b5b50505050565b600073ffffffffffffffffffffffffffffffffffffffff168373ffffffffffffffffffffffffffffffffffffffff161415610ce7576040517f08c379a0000000000000000000000000000000000000000000000000000000008152600401610cde906116ba565b60405180910390fd5b600073ffffffffffffffffffffffffffffffffffffffff168273ffffffffffffffffffffffffffffffffffffffff161415610d57576040517f08c379a0000000000000000000000000000000000000000000000000000000008152600401610d4e906115ba565b60405180910390fd5b610d62838383611195565b60008060008573ffffffffffffffffffffffffffffffffffffffff1673ffffffffffffffffffffffffffffffffffffffff16815260200190815260200160002054905081811015610de8576040517f08c379a0000000000000000000000000000000000000000000000000000000008152600401610ddf9061165a565b60405180910390fd5b8181036000808673ffffffffffffffffffffffffffffffffffffffff1673ffffffffffffffffffffffffffffffffffffffff16815260200190815260200160002081905550816000808573ffffffffffffffffffffffffffffffffffffffff1673ffffffffffffffffffffffffffffffffffffffff1681526020019081526020016000206000828254610e7b91906117df565b925050819055508273ffffffffffffffffffffffffffffffffffffffff168473ffffffffffffffffffffffffffffffffffffffff167fddf252ad1be2c89b69c2b068fc378daa952ba7f163c4a11628f55a4df523b3ef84604051610edf919061173a565b60405180910390a3610ef284848461119a565b50505050565b600073ffffffffffffffffffffffffffffffffffffffff168273ffffffffffffffffffffffffffffffffffffffff161415610f68576040517f08c379a0000000000000000000000000000000000000000000000000000000008152600401610f5f9061169a565b60405180910390fd5b610f7482600083611195565b60008060008473ffffffffffffffffffffffffffffffffffffffff1673ffffffffffffffffffffffffffffffffffffffff16815260200190815260200160002054905081811015610ffa576040517f08c379a0000000000000000000000000000000000000000000000000000000008152600401610ff1906115da565b60405180910390fd5b8181036000808573ffffffffffffffffffffffffffffffffffffffff1673ffffffffffffffffffffffffffffffffffffffff168152602001908152602001600020819055508160026000828254611051919061188f565b92505081905550600073ffffffffffffffffffffffffffffffffffffffff168373ffffffffffffffffffffffffffffffffffffffff167fddf252ad1be2c89b69c2b068fc378daa952ba7f163c4a11628f55a4df523b3ef846040516110b6919061173a565b60405180910390a36110ca8360008461119a565b505050565b6000600560009054906101000a900473ffffffffffffffffffffffffffffffffffffffff16905081600560006101000a81548173ffffffffffffffffffffffffffffffffffffffff021916908373ffffffffffffffffffffffffffffffffffffffff1602179055508173ffffffffffffffffffffffffffffffffffffffff168173ffffffffffffffffffffffffffffffffffffffff167f8be0079c531659141344cd1fd0a4f28419497f9722a3daafe3b4186f6b6457e060405160405180910390a35050565b505050565b505050565b6000813590506111ae81611d33565b92915050565b6000813590506111c381611d4a565b92915050565b6000602082840312156111df576111de6119db565b5b60006111ed8482850161119f565b91505092915050565b6000806040838503121561120d5761120c6119db565b5b600061121b8582860161119f565b925050602061122c8582860161119f565b9150509250929050565b60008060006060848603121561124f5761124e6119db565b5b600061125d8682870161119f565b935050602061126e8682870161119f565b925050604061127f868287016111b4565b9150509250925092565b600080604083850312156112a05761129f6119db565b5b60006112ae8582860161119f565b92505060206112bf858286016111b4565b9150509250929050565b6000806000606084860312156112e2576112e16119db565b5b60006112f08682870161119f565b9350506020611301868287016111b4565b9250506040611312868287016111b4565b9150509250925092565b600060208284031215611332576113316119db565b5b6000611340848285016111b4565b91505092915050565b611352816118c3565b82525050565b611361816118d5565b82525050565b6000611372826117c3565b61137c81856117ce565b935061138c818560208601611918565b611395816119e0565b840191505092915050565b60006113ad6023836117ce565b91506113b8826119f1565b604082019050919050565b60006113d06022836117ce565b91506113db82611a40565b604082019050919050565b60006113f36026836117ce565b91506113fe82611a8f565b604082019050919050565b60006114166022836117ce565b915061142182611ade565b604082019050919050565b6000611439601d836117ce565b915061144482611b2d565b602082019050919050565b600061145c6026836117ce565b915061146782611b56565b604082019050919050565b600061147f6020836117ce565b915061148a82611ba5565b602082019050919050565b60006114a26021836117ce565b91506114ad82611bce565b604082019050919050565b60006114c56025836117ce565b91506114d082611c1d565b604082019050919050565b60006114e86024836117ce565b91506114f382611c6c565b604082019050919050565b600061150b6025836117ce565b915061151682611cbb565b604082019050919050565b600061152e601f836117ce565b915061153982611d0a565b602082019050919050565b61154d81611901565b82525050565b61155c8161190b565b82525050565b60006020820190506115776000830184611349565b92915050565b60006020820190506115926000830184611358565b92915050565b600060208201905081810360008301526115b28184611367565b905092915050565b600060208201905081810360008301526115d3816113a0565b9050919050565b600060208201905081810360008301526115f3816113c3565b9050919050565b60006020820190508181036000830152611613816113e6565b9050919050565b6000602082019050818103600083015261163381611409565b9050919050565b600060208201905081810360008301526116538161142c565b9050919050565b600060208201905081810360008301526116738161144f565b9050919050565b6000602082019050818103600083015261169381611472565b9050919050565b600060208201905081810360008301526116b381611495565b9050919050565b600060208201905081810360008301526116d3816114b8565b9050919050565b600060208201905081810360008301526116f3816114db565b9050919050565b60006020820190508181036000830152611713816114fe565b9050919050565b6000602082019050818103600083015261173381611521565b9050919050565b600060208201905061174f6000830184611544565b92915050565b600060808201905061176a6000830187611544565b818103602083015261177c8186611367565b905081810360408301526117908185611367565b905061179f6060830184611544565b95945050505050565b60006020820190506117bd6000830184611553565b92915050565b600081519050919050565b600082825260208201905092915050565b60006117ea82611901565b91506117f583611901565b9250827fffffffffffffffffffffffffffffffffffffffffffffffffffffffffffffffff0382111561182a5761182961197d565b5b828201905092915050565b600061184082611901565b915061184b83611901565b9250817fffffffffffffffffffffffffffffffffffffffffffffffffffffffffffffffff04831182151516156118845761188361197d565b5b828202905092915050565b600061189a82611901565b91506118a583611901565b9250828210156118b8576118b761197d565b5b828203905092915050565b60006118ce826118e1565b9050919050565b60008115159050919050565b600073ffffffffffffffffffffffffffffffffffffffff82169050919050565b6000819050919050565b600060ff82169050919050565b60005b8381101561193657808201518184015260208101905061191b565b83811115611945576000848401525b50505050565b6000600282049050600182168061196357607f821691505b60208210811415611977576119766119ac565b5b50919050565b7f4e487b7100000000000000000000000000000000000000000000000000000000600052601160045260246000fd5b7f4e487b7100000000000000000000000000000000000000000000000000000000600052602260045260246000fd5b600080fd5b6000601f19601f8301169050919050565b7f45524332303a207472616e7366657220746f20746865207a65726f206164647260008201527f6573730000000000000000000000000000000000000000000000000000000000602082015250565b7f45524332303a206275726e20616d6f756e7420657863656564732062616c616e60008201527f6365000000000000000000000000000000000000000000000000000000000000602082015250565b7f4f776e61626c653a206e6577206f776e657220697320746865207a65726f206160008201527f6464726573730000000000000000000000000000000000000000000000000000602082015250565b7f45524332303a20617070726f766520746f20746865207a65726f20616464726560008201527f7373000000000000000000000000000000000000000000000000000000000000602082015250565b7f45524332303a20696e73756666696369656e7420616c6c6f77616e6365000000600082015250565b7f45524332303a207472616e7366657220616d6f756e742065786365656473206260008201527f616c616e63650000000000000000000000000000000000000000000000000000602082015250565b7f4f776e61626c653a2063616c6c6572206973206e6f7420746865206f776e6572600082015250565b7f45524332303a206275726e2066726f6d20746865207a65726f2061646472657360008201527f7300000000000000000000000000000000000000000000000000000000000000602082015250565b7f45524332303a207472616e736665722066726f6d20746865207a65726f20616460008201527f6472657373000000000000000000000000000000000000000000000000000000602082015250565b7f45524332303a20617070726f76652066726f6d20746865207a65726f2061646460008201527f7265737300000000000000000000000000000000000000000000000000000000602082015250565b7f45524332303a2064656372656173656420616c6c6f77616e63652062656c6f7760008201527f207a65726f000000000000000000000000000000000000000000000000000000602082015250565b7f45524332303a206d696e7420746f20746865207a65726f206164647265737300600082015250565b611d3c816118c3565b8114611d4757600080fd5b50565b611d5381611901565b8114611d5e57600080fd5b5056fea2646970667358221220bb5e2e5b3e01fbdc527ef774cb33e81f328ff761f39bc97da5f19ac5964fda4b64736f6c63430008070033",
  "linkReferences": {},
  "deployedLinkReferences": {}
}