{
  "_format": "hh-sol-artifact-1",
  "contractName": "NFTEscrow",
  "sourceName": "contracts/EscrowNFT.sol",
  "abi": [
    {
      "inputs": [],
      "stateMutability": "nonpayable",
      "type": "constructor"
    },
    {
      "inputs": [],
      "name": "buyerAddress",
      "outputs": [
        {
          "internalType": "address payable",
          "name": "",
          "type": "address"
        }
      ],
      "stateMutability": "view",
      "type": "function"
    },
    {
      "inputs": [],
      "name": "cancelAtNFT",
      "outputs": [],
      "stateMutability": "nonpayable",
      "type": "function"
    },
    {
      "inputs": [
        {
          "internalType": "bool",
          "name": "_state",
          "type": "bool"
        }
      ],
      "name": "cancelBeforeDelivery",
      "outputs": [],
      "stateMutability": "payable",
      "type": "function"
    },
    {
      "inputs": [],
      "name": "confirmDelivery",
      "outputs": [],
      "stateMutability": "payable",
      "type": "function"
    },
    {
      "inputs": [],
      "name": "depositETH",
      "outputs": [],
      "stateMutability": "payable",
      "type": "function"
    },
    {
      "inputs": [
        {
          "internalType": "address",
          "name": "_NFTAddress",
          "type": "address"
        },
        {
          "internalType": "uint256",
          "name": "_TokenID",
          "type": "uint256"
        }
      ],
      "name": "depositNFT",
      "outputs": [],
      "stateMutability": "nonpayable",
      "type": "function"
    },
    {
      "inputs": [],
      "name": "getBalance",
      "outputs": [
        {
          "internalType": "uint256",
          "name": "balance",
          "type": "uint256"
        }
      ],
      "stateMutability": "view",
      "type": "function"
    },
    {
      "inputs": [],
      "name": "initiateDelivery",
      "outputs": [],
      "stateMutability": "nonpayable",
      "type": "function"
    },
    {
      "inputs": [],
      "name": "nftAddress",
      "outputs": [
        {
          "internalType": "address",
          "name": "",
          "type": "address"
        }
      ],
      "stateMutability": "view",
      "type": "function"
    },
    {
      "inputs": [
        {
          "internalType": "address",
          "name": "operator",
          "type": "address"
        },
        {
          "internalType": "address",
          "name": "from",
          "type": "address"
        },
        {
          "internalType": "uint256",
          "name": "tokenId",
          "type": "uint256"
        },
        {
          "internalType": "bytes",
          "name": "data",
          "type": "bytes"
        }
      ],
      "name": "onERC721Received",
      "outputs": [
        {
          "internalType": "bytes4",
          "name": "",
          "type": "bytes4"
        }
      ],
      "stateMutability": "nonpayable",
      "type": "function"
    },
    {
      "inputs": [],
      "name": "projectState",
      "outputs": [
        {
          "internalType": "enum NFTEscrow.ProjectState",
          "name": "",
          "type": "uint8"
        }
      ],
      "stateMutability": "view",
      "type": "function"
    },
    {
      "inputs": [],
      "name": "sellerAddress",
      "outputs": [
        {
          "internalType": "address payable",
          "name": "",
          "type": "address"
        }
      ],
      "stateMutability": "view",
      "type": "function"
    }
  ],
  "bytecode": "0x60806040526000600460006101000a81548160ff0219169083151502179055506000600460016101000a81548160ff02191690831515021790555034801561004657600080fd5b50336000806101000a81548173ffffffffffffffffffffffffffffffffffffffff021916908373ffffffffffffffffffffffffffffffffffffffff1602179055506000600460026101000a81548160ff021916908360068111156100ad576100ac6100b7565b5b02179055506100e6565b7f4e487b7100000000000000000000000000000000000000000000000000000000600052602160045260246000fd5b611116806100f56000396000f3fe6080604052600436106100a75760003560e01c80635bf8633a116100645780635bf8633a1461019d5780635e10177b146101c8578063748807ab146101d25780639b5b9b18146101fd578063a1ee418114610226578063f6326fb31461023d576100a7565b806312065fe0146100ac578063150b7a02146100d75780632f9fa7f614610114578063342901a71461012b5780633d9b2ae61461014757806344834aca14610172575b600080fd5b3480156100b857600080fd5b506100c1610247565b6040516100ce9190610f43565b60405180910390f35b3480156100e357600080fd5b506100fe60048036038101906100f99190610d1a565b61024f565b60405161010b9190610f0d565b60405180910390f35b34801561012057600080fd5b50610129610264565b005b61014560048036038101906101409190610de2565b6103be565b005b34801561015357600080fd5b5061015c6106c3565b6040516101699190610e84565b60405180910390f35b34801561017e57600080fd5b506101876106e7565b6040516101949190610e84565b60405180910390f35b3480156101a957600080fd5b506101b261070d565b6040516101bf9190610e69565b60405180910390f35b6101d0610733565b005b3480156101de57600080fd5b506101e7610918565b6040516101f49190610f28565b60405180910390f35b34801561020957600080fd5b50610224600480360381019061021f9190610da2565b61092b565b005b34801561023257600080fd5b5061023b610acf565b005b610245610bd5565b005b600047905090565b600063150b7a0260e01b905095945050505050565b60018060068111156102795761027861103f565b5b600460029054906101000a900460ff16600681111561029b5761029a61103f565b5b146102a557600080fd5b60008054906101000a900473ffffffffffffffffffffffffffffffffffffffff1673ffffffffffffffffffffffffffffffffffffffff163373ffffffffffffffffffffffffffffffffffffffff16146102fd57600080fd5b600260009054906101000a900473ffffffffffffffffffffffffffffffffffffffff1673ffffffffffffffffffffffffffffffffffffffff166342842e0e30336003546040518463ffffffff1660e01b815260040161035e93929190610ed6565b600060405180830381600087803b15801561037857600080fd5b505af115801561038c573d6000803e3d6000fd5b505050506002600460026101000a81548160ff021916908360068111156103b6576103b561103f565b5b021790555050565b60038060068111156103d3576103d261103f565b5b600460029054906101000a900460ff1660068111156103f5576103f461103f565b5b146103ff57600080fd5b600160009054906101000a900473ffffffffffffffffffffffffffffffffffffffff1673ffffffffffffffffffffffffffffffffffffffff163373ffffffffffffffffffffffffffffffffffffffff1614806104a6575060008054906101000a900473ffffffffffffffffffffffffffffffffffffffff1673ffffffffffffffffffffffffffffffffffffffff163373ffffffffffffffffffffffffffffffffffffffff16145b6104af57600080fd5b60008054906101000a900473ffffffffffffffffffffffffffffffffffffffff1673ffffffffffffffffffffffffffffffffffffffff163373ffffffffffffffffffffffffffffffffffffffff1614156105225781600460016101000a81548160ff02191690831515021790555061053d565b81600460006101000a81548160ff0219169083151502179055505b60011515600460019054906101000a900460ff161515148015610573575060011515600460009054906101000a900460ff161515145b156106bf57600260009054906101000a900473ffffffffffffffffffffffffffffffffffffffff1673ffffffffffffffffffffffffffffffffffffffff166342842e0e3060008054906101000a900473ffffffffffffffffffffffffffffffffffffffff166003546040518463ffffffff1660e01b81526004016105f993929190610e9f565b600060405180830381600087803b15801561061357600080fd5b505af1158015610627573d6000803e3d6000fd5b50505050600160009054906101000a900473ffffffffffffffffffffffffffffffffffffffff1673ffffffffffffffffffffffffffffffffffffffff166108fc479081150290604051600060405180830381858888f19350505050158015610693573d6000803e3d6000fd5b5060048060026101000a81548160ff021916908360068111156106b9576106b861103f565b5b02179055505b5050565b60008054906101000a900473ffffffffffffffffffffffffffffffffffffffff1681565b600160009054906101000a900473ffffffffffffffffffffffffffffffffffffffff1681565b600260009054906101000a900473ffffffffffffffffffffffffffffffffffffffff1681565b60058060068111156107485761074761103f565b5b600460029054906101000a900460ff16600681111561076a5761076961103f565b5b1461077457600080fd5b600160009054906101000a900473ffffffffffffffffffffffffffffffffffffffff1673ffffffffffffffffffffffffffffffffffffffff163373ffffffffffffffffffffffffffffffffffffffff16146107ce57600080fd5b600260009054906101000a900473ffffffffffffffffffffffffffffffffffffffff1673ffffffffffffffffffffffffffffffffffffffff166342842e0e30600160009054906101000a900473ffffffffffffffffffffffffffffffffffffffff166003546040518463ffffffff1660e01b815260040161085193929190610e9f565b600060405180830381600087803b15801561086b57600080fd5b505af115801561087f573d6000803e3d6000fd5b5050505060008054906101000a900473ffffffffffffffffffffffffffffffffffffffff1673ffffffffffffffffffffffffffffffffffffffff166108fc479081150290604051600060405180830381858888f193505050501580156108e9573d6000803e3d6000fd5b506006600460026101000a81548160ff021916908360068111156109105761090f61103f565b5b021790555050565b600460029054906101000a900460ff1681565b60008060068111156109405761093f61103f565b5b600460029054906101000a900460ff1660068111156109625761096161103f565b5b1461096c57600080fd5b60008054906101000a900473ffffffffffffffffffffffffffffffffffffffff1673ffffffffffffffffffffffffffffffffffffffff163373ffffffffffffffffffffffffffffffffffffffff16146109c457600080fd5b82600260006101000a81548173ffffffffffffffffffffffffffffffffffffffff021916908373ffffffffffffffffffffffffffffffffffffffff16021790555081600381905550600260009054906101000a900473ffffffffffffffffffffffffffffffffffffffff1673ffffffffffffffffffffffffffffffffffffffff166342842e0e33306003546040518463ffffffff1660e01b8152600401610a6d93929190610ed6565b600060405180830381600087803b158015610a8757600080fd5b505af1158015610a9b573d6000803e3d6000fd5b505050506001600460026101000a81548160ff02191690836006811115610ac557610ac461103f565b5b0217905550505050565b6003806006811115610ae457610ae361103f565b5b600460029054906101000a900460ff166006811115610b0657610b0561103f565b5b14610b1057600080fd5b60008054906101000a900473ffffffffffffffffffffffffffffffffffffffff1673ffffffffffffffffffffffffffffffffffffffff163373ffffffffffffffffffffffffffffffffffffffff1614610b6857600080fd5b60001515600460009054906101000a900460ff161515148015610b9e575060001515600460019054906101000a900460ff161515145b610ba757600080fd5b6005600460026101000a81548160ff02191690836006811115610bcd57610bcc61103f565b5b021790555050565b6001806006811115610bea57610be961103f565b5b600460029054906101000a900460ff166006811115610c0c57610c0b61103f565b5b14610c1657600080fd5b33600160006101000a81548173ffffffffffffffffffffffffffffffffffffffff021916908373ffffffffffffffffffffffffffffffffffffffff1602179055506003600460026101000a81548160ff02191690836006811115610c7d57610c7c61103f565b5b021790555050565b600081359050610c948161109b565b92915050565b600081359050610ca9816110b2565b92915050565b60008083601f840112610cc557610cc4611073565b5b8235905067ffffffffffffffff811115610ce257610ce161106e565b5b602083019150836001820283011115610cfe57610cfd611078565b5b9250929050565b600081359050610d14816110c9565b92915050565b600080600080600060808688031215610d3657610d35611082565b5b6000610d4488828901610c85565b9550506020610d5588828901610c85565b9450506040610d6688828901610d05565b935050606086013567ffffffffffffffff811115610d8757610d8661107d565b5b610d9388828901610caf565b92509250509295509295909350565b60008060408385031215610db957610db8611082565b5b6000610dc785828601610c85565b9250506020610dd885828601610d05565b9150509250929050565b600060208284031215610df857610df7611082565b5b6000610e0684828501610c9a565b91505092915050565b610e1881610ff7565b82525050565b610e2781610f70565b82525050565b610e3681610f5e565b82525050565b610e4581610f8e565b82525050565b610e5481611009565b82525050565b610e6381610fed565b82525050565b6000602082019050610e7e6000830184610e2d565b92915050565b6000602082019050610e996000830184610e1e565b92915050565b6000606082019050610eb46000830186610e2d565b610ec16020830185610e0f565b610ece6040830184610e5a565b949350505050565b6000606082019050610eeb6000830186610e2d565b610ef86020830185610e2d565b610f056040830184610e5a565b949350505050565b6000602082019050610f226000830184610e3c565b92915050565b6000602082019050610f3d6000830184610e4b565b92915050565b6000602082019050610f586000830184610e5a565b92915050565b6000610f6982610fcd565b9050919050565b6000610f7b82610fcd565b9050919050565b60008115159050919050565b60007fffffffff0000000000000000000000000000000000000000000000000000000082169050919050565b6000819050610fc882611087565b919050565b600073ffffffffffffffffffffffffffffffffffffffff82169050919050565b6000819050919050565b60006110028261101b565b9050919050565b600061101482610fba565b9050919050565b60006110268261102d565b9050919050565b600061103882610fcd565b9050919050565b7f4e487b7100000000000000000000000000000000000000000000000000000000600052602160045260246000fd5b600080fd5b600080fd5b600080fd5b600080fd5b600080fd5b600781106110985761109761103f565b5b50565b6110a481610f5e565b81146110af57600080fd5b50565b6110bb81610f82565b81146110c657600080fd5b50565b6110d281610fed565b81146110dd57600080fd5b5056fea2646970667358221220667286f3da8a5da203ec5e22ebe522b02d29aae0c473d3feeb961a345550669c64736f6c63430008070033",
  "linkReferences": {},
  "deployedLinkReferences": {}
}